{
  "address": "0xEDef341cC26f3385A8Df8304907361DD4Da6d154",
  "abi": [
    {
      "type": "function",
      "name": "ALLOWED_ROLE",
      "inputs": [],
      "outputs": [
        {
          "name": "",
          "type": "bytes32",
          "internalType": "bytes32"
        }
      ],
      "stateMutability": "view"
    },
    {
      "type": "function",
      "name": "DEFAULT_ADMIN_ROLE",
      "inputs": [],
      "outputs": [
        {
          "name": "",
          "type": "bytes32",
          "internalType": "bytes32"
        }
      ],
      "stateMutability": "view"
    },
    {
      "type": "function",
      "name": "KEEPER_FEE",
      "inputs": [],
      "outputs": [
        {
          "name": "",
          "type": "uint256",
          "internalType": "uint256"
        }
      ],
      "stateMutability": "view"
    },
    {
      "type": "function",
      "name": "LIQUIDATION_LOGIC",
      "inputs": [],
      "outputs": [
        {
          "name": "",
          "type": "address",
          "internalType": "address"
        }
      ],
      "stateMutability": "view"
    },
    {
      "type": "function",
      "name": "LT_MARGIN_FOR_DEFAULTING",
      "inputs": [],
      "outputs": [
        {
          "name": "",
          "type": "uint256",
          "internalType": "uint256"
        }
      ],
      "stateMutability": "pure"
    },
    {
      "type": "function",
      "name": "VERSION",
      "inputs": [],
      "outputs": [
        {
          "name": "",
          "type": "string",
          "internalType": "string"
        }
      ],
      "stateMutability": "pure"
    },
    {
      "type": "function",
      "name": "acceptOwnership",
      "inputs": [],
      "outputs": [],
      "stateMutability": "nonpayable"
    },
    {
      "type": "function",
      "name": "afterAction",
      "inputs": [
        {
          "name": "_silo",
          "type": "address",
          "internalType": "address"
        },
        {
          "name": "_action",
          "type": "uint256",
          "internalType": "uint256"
        },
        {
          "name": "_inputAndOutput",
          "type": "bytes",
          "internalType": "bytes"
        }
      ],
      "outputs": [],
      "stateMutability": "nonpayable"
    },
    {
      "type": "function",
      "name": "beforeAction",
      "inputs": [
        {
          "name": "",
          "type": "address",
          "internalType": "address"
        },
        {
          "name": "",
          "type": "uint256",
          "internalType": "uint256"
        },
        {
          "name": "",
          "type": "bytes",
          "internalType": "bytes"
        }
      ],
      "outputs": [],
      "stateMutability": "nonpayable"
    },
    {
      "type": "function",
      "name": "configuredGauges",
      "inputs": [
        {
          "name": "",
          "type": "address",
          "internalType": "contract IShareToken"
        }
      ],
      "outputs": [
        {
          "name": "",
          "type": "address",
          "internalType": "contract ISiloIncentivesController"
        }
      ],
      "stateMutability": "view"
    },
    {
      "type": "function",
      "name": "getKeeperAndLenderSharesSplit",
      "inputs": [
        {
          "name": "_assetsToLiquidate",
          "type": "uint256",
          "internalType": "uint256"
        },
        {
          "name": "_collateralType",
          "type": "uint8",
          "internalType": "enum ISilo.CollateralType"
        }
      ],
      "outputs": [
        {
          "name": "totalSharesToLiquidate",
          "type": "uint256",
          "internalType": "uint256"
        },
        {
          "name": "keeperShares",
          "type": "uint256",
          "internalType": "uint256"
        },
        {
          "name": "lendersShares",
          "type": "uint256",
          "internalType": "uint256"
        }
      ],
      "stateMutability": "view"
    },
    {
      "type": "function",
      "name": "getRoleAdmin",
      "inputs": [
        {
          "name": "role",
          "type": "bytes32",
          "internalType": "bytes32"
        }
      ],
      "outputs": [
        {
          "name": "",
          "type": "bytes32",
          "internalType": "bytes32"
        }
      ],
      "stateMutability": "view"
    },
    {
      "type": "function",
      "name": "getRoleMember",
      "inputs": [
        {
          "name": "role",
          "type": "bytes32",
          "internalType": "bytes32"
        },
        {
          "name": "index",
          "type": "uint256",
          "internalType": "uint256"
        }
      ],
      "outputs": [
        {
          "name": "",
          "type": "address",
          "internalType": "address"
        }
      ],
      "stateMutability": "view"
    },
    {
      "type": "function",
      "name": "getRoleMemberCount",
      "inputs": [
        {
          "name": "role",
          "type": "bytes32",
          "internalType": "bytes32"
        }
      ],
      "outputs": [
        {
          "name": "",
          "type": "uint256",
          "internalType": "uint256"
        }
      ],
      "stateMutability": "view"
    },
    {
      "type": "function",
      "name": "getRoleMembers",
      "inputs": [
        {
          "name": "role",
          "type": "bytes32",
          "internalType": "bytes32"
        }
      ],
      "outputs": [
        {
          "name": "",
          "type": "address[]",
          "internalType": "address[]"
        }
      ],
      "stateMutability": "view"
    },
    {
      "type": "function",
      "name": "grantRole",
      "inputs": [
        {
          "name": "role",
          "type": "bytes32",
          "internalType": "bytes32"
        },
        {
          "name": "account",
          "type": "address",
          "internalType": "address"
        }
      ],
      "outputs": [],
      "stateMutability": "nonpayable"
    },
    {
      "type": "function",
      "name": "hasRole",
      "inputs": [
        {
          "name": "role",
          "type": "bytes32",
          "internalType": "bytes32"
        },
        {
          "name": "account",
          "type": "address",
          "internalType": "address"
        }
      ],
      "outputs": [
        {
          "name": "",
          "type": "bool",
          "internalType": "bool"
        }
      ],
      "stateMutability": "view"
    },
    {
      "type": "function",
      "name": "hookReceiverConfig",
      "inputs": [
        {
          "name": "_silo",
          "type": "address",
          "internalType": "address"
        }
      ],
      "outputs": [
        {
          "name": "hooksBefore",
          "type": "uint24",
          "internalType": "uint24"
        },
        {
          "name": "hooksAfter",
          "type": "uint24",
          "internalType": "uint24"
        }
      ],
      "stateMutability": "view"
    },
    {
      "type": "function",
      "name": "initialize",
      "inputs": [
        {
          "name": "_config",
          "type": "address",
          "internalType": "contract ISiloConfig"
        },
        {
          "name": "_data",
          "type": "bytes",
          "internalType": "bytes"
        }
      ],
      "outputs": [],
      "stateMutability": "nonpayable"
    },
    {
      "type": "function",
      "name": "liquidationCall",
      "inputs": [
        {
          "name": "_collateralAsset",
          "type": "address",
          "internalType": "address"
        },
        {
          "name": "_debtAsset",
          "type": "address",
          "internalType": "address"
        },
        {
          "name": "_borrower",
          "type": "address",
          "internalType": "address"
        },
        {
          "name": "_maxDebtToCover",
          "type": "uint256",
          "internalType": "uint256"
        },
        {
          "name": "_receiveSToken",
          "type": "bool",
          "internalType": "bool"
        }
      ],
      "outputs": [
        {
          "name": "withdrawCollateral",
          "type": "uint256",
          "internalType": "uint256"
        },
        {
          "name": "repayDebtAssets",
          "type": "uint256",
          "internalType": "uint256"
        }
      ],
      "stateMutability": "nonpayable"
    },
    {
      "type": "function",
      "name": "liquidationCallByDefaulting",
      "inputs": [
        {
          "name": "_borrower",
          "type": "address",
          "internalType": "address"
        }
      ],
      "outputs": [
        {
          "name": "withdrawCollateral",
          "type": "uint256",
          "internalType": "uint256"
        },
        {
          "name": "repayDebtAssets",
          "type": "uint256",
          "internalType": "uint256"
        }
      ],
      "stateMutability": "nonpayable"
    },
    {
      "type": "function",
      "name": "maxLiquidation",
      "inputs": [
        {
          "name": "_borrower",
          "type": "address",
          "internalType": "address"
        }
      ],
      "outputs": [
        {
          "name": "collateralToLiquidate",
          "type": "uint256",
          "internalType": "uint256"
        },
        {
          "name": "debtToRepay",
          "type": "uint256",
          "internalType": "uint256"
        },
        {
          "name": "sTokenRequired",
          "type": "bool",
          "internalType": "bool"
        }
      ],
      "stateMutability": "view"
    },
    {
      "type": "function",
      "name": "owner",
      "inputs": [],
      "outputs": [
        {
          "name": "",
          "type": "address",
          "internalType": "address"
        }
      ],
      "stateMutability": "view"
    },
    {
      "type": "function",
      "name": "pendingOwner",
      "inputs": [],
      "outputs": [
        {
          "name": "",
          "type": "address",
          "internalType": "address"
        }
      ],
      "stateMutability": "view"
    },
    {
      "type": "function",
      "name": "removeGauge",
      "inputs": [
        {
          "name": "_shareToken",
          "type": "address",
          "internalType": "contract IShareToken"
        }
      ],
      "outputs": [],
      "stateMutability": "nonpayable"
    },
    {
      "type": "function",
      "name": "renounceOwnership",
      "inputs": [],
      "outputs": [],
      "stateMutability": "nonpayable"
    },
    {
      "type": "function",
      "name": "renounceRole",
      "inputs": [
        {
          "name": "role",
          "type": "bytes32",
          "internalType": "bytes32"
        },
        {
          "name": "callerConfirmation",
          "type": "address",
          "internalType": "address"
        }
      ],
      "outputs": [],
      "stateMutability": "nonpayable"
    },
    {
      "type": "function",
      "name": "revokeRole",
      "inputs": [
        {
          "name": "role",
          "type": "bytes32",
          "internalType": "bytes32"
        },
        {
          "name": "account",
          "type": "address",
          "internalType": "address"
        }
      ],
      "outputs": [],
      "stateMutability": "nonpayable"
    },
    {
      "type": "function",
      "name": "setGauge",
      "inputs": [
        {
          "name": "_gauge",
          "type": "address",
          "internalType": "contract ISiloIncentivesController"
        },
        {
          "name": "_shareToken",
          "type": "address",
          "internalType": "contract IShareToken"
        }
      ],
      "outputs": [],
      "stateMutability": "nonpayable"
    },
    {
      "type": "function",
      "name": "siloConfig",
      "inputs": [],
      "outputs": [
        {
          "name": "",
          "type": "address",
          "internalType": "contract ISiloConfig"
        }
      ],
      "stateMutability": "view"
    },
    {
      "type": "function",
      "name": "supportsInterface",
      "inputs": [
        {
          "name": "interfaceId",
          "type": "bytes4",
          "internalType": "bytes4"
        }
      ],
      "outputs": [
        {
          "name": "",
          "type": "bool",
          "internalType": "bool"
        }
      ],
      "stateMutability": "view"
    },
    {
      "type": "function",
      "name": "transferOwnership",
      "inputs": [
        {
          "name": "newOwner",
          "type": "address",
          "internalType": "address"
        }
      ],
      "outputs": [],
      "stateMutability": "nonpayable"
    },
    {
      "type": "function",
      "name": "transferOwnership1Step",
      "inputs": [
        {
          "name": "newOwner",
          "type": "address",
          "internalType": "address"
        }
      ],
      "outputs": [],
      "stateMutability": "nonpayable"
    },
    {
      "type": "function",
      "name": "validateControllerForCollateral",
      "inputs": [
        {
          "name": "_silo",
          "type": "address",
          "internalType": "address"
        }
      ],
      "outputs": [
        {
          "name": "controllerCollateral",
          "type": "address",
          "internalType": "contract ISiloIncentivesController"
        }
      ],
      "stateMutability": "view"
    },
    {
      "type": "function",
      "name": "validateDefaultingCollateral",
      "inputs": [],
      "outputs": [],
      "stateMutability": "view"
    },
    {
      "type": "event",
      "name": "DefaultingLiquidation",
      "inputs": [
        {
          "name": "canceledDebt",
          "type": "uint256",
          "indexed": false,
          "internalType": "uint256"
        },
        {
          "name": "deductedFromCollateral",
          "type": "uint256",
          "indexed": false,
          "internalType": "uint256"
        }
      ],
      "anonymous": false
    },
    {
      "type": "event",
      "name": "DefaultingLiquidationData",
      "inputs": [
        {
          "name": "debtSilo",
          "type": "address",
          "indexed": true,
          "internalType": "address"
        },
        {
          "name": "borrower",
          "type": "address",
          "indexed": true,
          "internalType": "address"
        },
        {
          "name": "withdrawAssetsFromCollateral",
          "type": "uint256",
          "indexed": false,
          "internalType": "uint256"
        },
        {
          "name": "withdrawAssetsFromProtected",
          "type": "uint256",
          "indexed": false,
          "internalType": "uint256"
        },
        {
          "name": "repayDebtAssets",
          "type": "uint256",
          "indexed": false,
          "internalType": "uint256"
        }
      ],
      "anonymous": false
    },
    {
      "type": "event",
      "name": "GaugeConfigured",
      "inputs": [
        {
          "name": "gauge",
          "type": "address",
          "indexed": false,
          "internalType": "address"
        },
        {
          "name": "shareToken",
          "type": "address",
          "indexed": false,
          "internalType": "address"
        }
      ],
      "anonymous": false
    },
    {
      "type": "event",
      "name": "GaugeRemoved",
      "inputs": [
        {
          "name": "shareToken",
          "type": "address",
          "indexed": false,
          "internalType": "address"
        }
      ],
      "anonymous": false
    },
    {
      "type": "event",
      "name": "HookConfigured",
      "inputs": [
        {
          "name": "silo",
          "type": "address",
          "indexed": false,
          "internalType": "address"
        },
        {
          "name": "hooksBefore",
          "type": "uint24",
          "indexed": false,
          "internalType": "uint24"
        },
        {
          "name": "hooksAfter",
          "type": "uint24",
          "indexed": false,
          "internalType": "uint24"
        }
      ],
      "anonymous": false
    },
    {
      "type": "event",
      "name": "Initialized",
      "inputs": [
        {
          "name": "version",
          "type": "uint64",
          "indexed": false,
          "internalType": "uint64"
        }
      ],
      "anonymous": false
    },
    {
      "type": "event",
      "name": "LiquidationCall",
      "inputs": [
        {
          "name": "liquidator",
          "type": "address",
          "indexed": true,
          "internalType": "address"
        },
        {
          "name": "silo",
          "type": "address",
          "indexed": true,
          "internalType": "address"
        },
        {
          "name": "borrower",
          "type": "address",
          "indexed": true,
          "internalType": "address"
        },
        {
          "name": "repayDebtAssets",
          "type": "uint256",
          "indexed": false,
          "internalType": "uint256"
        },
        {
          "name": "withdrawCollateral",
          "type": "uint256",
          "indexed": false,
          "internalType": "uint256"
        },
        {
          "name": "receiveSToken",
          "type": "bool",
          "indexed": false,
          "internalType": "bool"
        }
      ],
      "anonymous": false
    },
    {
      "type": "event",
      "name": "LiquidationStart",
      "inputs": [
        {
          "name": "liquidationType",
          "type": "uint8",
          "indexed": true,
          "internalType": "enum IPartialLiquidation.LiquidationType"
        }
      ],
      "anonymous": false
    },
    {
      "type": "event",
      "name": "OwnershipTransferStarted",
      "inputs": [
        {
          "name": "previousOwner",
          "type": "address",
          "indexed": true,
          "internalType": "address"
        },
        {
          "name": "newOwner",
          "type": "address",
          "indexed": true,
          "internalType": "address"
        }
      ],
      "anonymous": false
    },
    {
      "type": "event",
      "name": "OwnershipTransferred",
      "inputs": [
        {
          "name": "previousOwner",
          "type": "address",
          "indexed": true,
          "internalType": "address"
        },
        {
          "name": "newOwner",
          "type": "address",
          "indexed": true,
          "internalType": "address"
        }
      ],
      "anonymous": false
    },
    {
      "type": "event",
      "name": "RoleAdminChanged",
      "inputs": [
        {
          "name": "role",
          "type": "bytes32",
          "indexed": true,
          "internalType": "bytes32"
        },
        {
          "name": "previousAdminRole",
          "type": "bytes32",
          "indexed": true,
          "internalType": "bytes32"
        },
        {
          "name": "newAdminRole",
          "type": "bytes32",
          "indexed": true,
          "internalType": "bytes32"
        }
      ],
      "anonymous": false
    },
    {
      "type": "event",
      "name": "RoleGranted",
      "inputs": [
        {
          "name": "role",
          "type": "bytes32",
          "indexed": true,
          "internalType": "bytes32"
        },
        {
          "name": "account",
          "type": "address",
          "indexed": true,
          "internalType": "address"
        },
        {
          "name": "sender",
          "type": "address",
          "indexed": true,
          "internalType": "address"
        }
      ],
      "anonymous": false
    },
    {
      "type": "event",
      "name": "RoleRevoked",
      "inputs": [
        {
          "name": "role",
          "type": "bytes32",
          "indexed": true,
          "internalType": "bytes32"
        },
        {
          "name": "account",
          "type": "address",
          "indexed": true,
          "internalType": "address"
        },
        {
          "name": "sender",
          "type": "address",
          "indexed": true,
          "internalType": "address"
        }
      ],
      "anonymous": false
    },
    {
      "type": "error",
      "name": "AccessControlBadConfirmation",
      "inputs": []
    },
    {
      "type": "error",
      "name": "AccessControlUnauthorizedAccount",
      "inputs": [
        {
          "name": "account",
          "type": "address",
          "internalType": "address"
        },
        {
          "name": "neededRole",
          "type": "bytes32",
          "internalType": "bytes32"
        }
      ]
    },
    {
      "type": "error",
      "name": "AddressEmptyCode",
      "inputs": [
        {
          "name": "target",
          "type": "address",
          "internalType": "address"
        }
      ]
    },
    {
      "type": "error",
      "name": "AlreadyConfigured",
      "inputs": []
    },
    {
      "type": "error",
      "name": "CantRemoveActiveGauge",
      "inputs": []
    },
    {
      "type": "error",
      "name": "CollateralNotSupportedForDefaulting",
      "inputs": []
    },
    {
      "type": "error",
      "name": "DeductDefaultedDebtFromCollateralFailed",
      "inputs": []
    },
    {
      "type": "error",
      "name": "EmptyCollateralShareToken",
      "inputs": []
    },
    {
      "type": "error",
      "name": "EmptyGaugeAddress",
      "inputs": []
    },
    {
      "type": "error",
      "name": "EmptySiloConfig",
      "inputs": []
    },
    {
      "type": "error",
      "name": "FailedCall",
      "inputs": []
    },
    {
      "type": "error",
      "name": "FullLiquidationRequired",
      "inputs": []
    },
    {
      "type": "error",
      "name": "GaugeAlreadyConfigured",
      "inputs": []
    },
    {
      "type": "error",
      "name": "GaugeIsNotConfigured",
      "inputs": []
    },
    {
      "type": "error",
      "name": "InsufficientBalance",
      "inputs": [
        {
          "name": "balance",
          "type": "uint256",
          "internalType": "uint256"
        },
        {
          "name": "needed",
          "type": "uint256",
          "internalType": "uint256"
        }
      ]
    },
    {
      "type": "error",
      "name": "InvalidInitialization",
      "inputs": []
    },
    {
      "type": "error",
      "name": "InvalidLTConfig0",
      "inputs": []
    },
    {
      "type": "error",
      "name": "InvalidLTConfig1",
      "inputs": []
    },
    {
      "type": "error",
      "name": "InvalidShareToken",
      "inputs": []
    },
    {
      "type": "error",
      "name": "NoCollateralToLiquidate",
      "inputs": []
    },
    {
      "type": "error",
      "name": "NoControllerForCollateral",
      "inputs": []
    },
    {
      "type": "error",
      "name": "NoDebtToCover",
      "inputs": []
    },
    {
      "type": "error",
      "name": "NoRepayAssets",
      "inputs": []
    },
    {
      "type": "error",
      "name": "NotInitializing",
      "inputs": []
    },
    {
      "type": "error",
      "name": "OnlyAllowedRole",
      "inputs": []
    },
    {
      "type": "error",
      "name": "OnlySilo",
      "inputs": []
    },
    {
      "type": "error",
      "name": "OnlySiloOrShareToken",
      "inputs": []
    },
    {
      "type": "error",
      "name": "OwnableInvalidOwner",
      "inputs": [
        {
          "name": "owner",
          "type": "address",
          "internalType": "address"
        }
      ]
    },
    {
      "type": "error",
      "name": "OwnableUnauthorizedAccount",
      "inputs": [
        {
          "name": "account",
          "type": "address",
          "internalType": "address"
        }
      ]
    },
    {
      "type": "error",
      "name": "OwnerIsZeroAddress",
      "inputs": []
    },
    {
      "type": "error",
      "name": "ReentrancyGuardReentrantCall",
      "inputs": []
    },
    {
      "type": "error",
      "name": "RepayDebtByDefaultingFailed",
      "inputs": []
    },
    {
      "type": "error",
      "name": "RequestNotSupported",
      "inputs": []
    },
    {
      "type": "error",
      "name": "SafeERC20FailedOperation",
      "inputs": [
        {
          "name": "token",
          "type": "address",
          "internalType": "address"
        }
      ]
    },
    {
      "type": "error",
      "name": "TwoWayMarketNotAllowed",
      "inputs": []
    },
    {
      "type": "error",
      "name": "UnexpectedCollateralToken",
      "inputs": []
    },
    {
      "type": "error",
      "name": "UnexpectedDebtToken",
      "inputs": []
    },
    {
      "type": "error",
      "name": "UnknownRatio",
      "inputs": []
    },
    {
      "type": "error",
      "name": "UnnecessaryLiquidationFee",
      "inputs": []
    },
    {
      "type": "error",
      "name": "UserIsSolvent",
      "inputs": []
    },
    {
      "type": "error",
      "name": "WrongGaugeShareToken",
      "inputs": []
    }
  ],
  "bytecode": "0x60a060405234801561000f575f5ffd5b50338061001a610093565b6001600160a01b03811661004757604051631e4fbdf760e01b81525f600482015260240160405180910390fd5b61005081610145565b5061005c90505f610145565b604051610068906101aa565b604051809103905ff080158015610081573d5f5f3e3d5ffd5b506001600160a01b03166080526101b7565b7ff0c57e16840df040f15088dc2f81fe391c3923bec73e23a9662efc9c229c6a00805468010000000000000000900460ff16156100e35760405163f92ee8a960e01b815260040160405180910390fd5b80546001600160401b03908116146101425780546001600160401b0319166001600160401b0390811782556040519081527fc7f505b2f371ae2175ee4913f4499e1f2633a7b5936321eed1cdaeb6115181d29060200160405180910390a15b50565b600380546001600160a01b031916905561014281600280546001600160a01b038381166001600160a01b0319831681179093556040519116919082907f8be0079c531659141344cd1fd0a4f28419497f9722a3daafe3b4186f6b6457e0905f90a35050565b6103ca8061489b83390190565b6080516146c56101d65f395f818161041301526133db01526146c55ff3fe608060405234801561000f575f5ffd5b5060043610610207575f3560e01c806391d148541161011f578063d1f57894116100a9578063e1b9713911610079578063e1b97139146104ea578063e30c3978146104fd578063e4784fa91461050e578063f2fde38b14610578578063ffa1ad741461058b575f5ffd5b8063d1f578941461048b578063d32f71541461049e578063d547741f146104c5578063d714fd19146104d8575f5ffd5b8063aef28235116100ef578063aef28235146103fb578063b24972ee1461040e578063b55cb64214610435578063bd02d84814610448578063ca15c87314610478575f5ffd5b806391d1485414610399578063a217fddf146103ac578063a3246ad3146103b3578063a37d9411146103d3575f5ffd5b806336568abe116101a0578063632c2d8511610170578063632c2d8514610344578063715018a61461035157806379ba5097146103595780638da5cb5b146103615780639010d07c14610386575f5ffd5b806336568abe146102fc5780633a0451451461030f5780633d1b760b14610322578063430f099414610331575f5ffd5b8063237e6d64116101db578063237e6d6414610293578063248a9ca3146102a65780632f2ff15d146102d657806335cb1099146102e9575f5ffd5b8062a718a91461020b57806301ffc9a7146102385780630b85609b1461025b5780631f9c9dfc14610265575b5f5ffd5b61021e610219366004613b3f565b6105bd565b604080519283526020830191909152015b60405180910390f35b61024b610246366004613bb8565b610b09565b604051901515815260200161022f565b610263610b33565b005b610278610273366004613bd3565b610dbd565b6040805193845260208401929092529082015260600161022f565b6102636102a1366004613c04565b610df0565b6102c86102b4366004613c30565b5f9081526005602052604090206001015490565b60405190815260200161022f565b6102636102e4366004613c47565b61102d565b6102636102f7366004613ca8565b611051565b61026361030a366004613c47565b611090565b61026361031d366004613d00565b6110c8565b6102c86702c68af0bb14000081565b61021e61033f366004613d00565b611165565b662386f26fc100006102c8565b6102636116c5565b6102636116d8565b6002546001600160a01b03165b6040516001600160a01b03909116815260200161022f565b61036e610394366004613d1b565b611721565b61024b6103a7366004613c47565b61173f565b6102c85f81565b6103c66103c1366004613c30565b611769565b60405161022f9190613d3b565b61036e6103e1366004613d00565b60046020525f90815260409020546001600160a01b031681565b610263610409366004613ca8565b611782565b61036e7f000000000000000000000000000000000000000000000000000000000000000081565b61036e610443366004613d00565b6117b4565b61045b610456366004613d00565b6118e3565b60408051938452602084019290925215159082015260600161022f565b6102c8610486366004613c30565b61197a565b610263610499366004613d86565b611990565b6102c87fd5dc6b389d0dd5687ab5bd9338f760ebeaff2d2852a93a9a9ebaebbfefc763ac81565b6102636104d3366004613c47565b611ac2565b5f5461036e906001600160a01b031681565b6102636104f8366004613d00565b611ae6565b6003546001600160a01b031661036e565b61055c61051c366004613d00565b6001600160a01b03165f9081526001602090815260409182902082518084019093525462ffffff8082168085526301000000909204169290910182905291565b6040805162ffffff93841681529290911660208301520161022f565b610263610586366004613d00565b611b17565b604080518082018252601081526f053696c6f486f6f6b563220342e342e360841b6020820152905161022f9190613e05565b5f8060ff815c16156105e257604051633ee5aeb560e01b815260040160405180910390fd5b60015f805c60ff19168217905d505f6040517fb59c4a578f1cf03f75770e14b8cbc94d58157d6f0be1fd91afc8416836b1ca10905f90a25f546001600160a01b031680610642576040516379c39cf960e01b815260040160405180910390fd5b845f03610662576040516317ff0e0960e11b815260040160405180910390fd5b806001600160a01b0316639dd413306040518163ffffffff1660e01b81526004015f604051808303815f87803b15801561069a575f5ffd5b505af11580156106ac573d5f5f3e3d5ffd5b505050505f5f6106be838b8b8b611b88565b915091506106f96040518060a001604052805f81526020015f81526020015f81526020015f81526020015f6001600160e01b03191681525090565b6101a0830151604051636da707db60e01b815273__$13ae51f56eab8417585cbbba140ac4e457$__91636da707db9161073d91879187918f918f9190600401613f83565b608060405180830381865af4158015610758573d5f5f3e3d5ffd5b505050506040513d601f19601f8201168201806040525081019061077c9190613fc8565b6001600160e01b03191660808501819052606085019290925260408401929092529095506107a990611da5565b878511156107ca5760405163d65db62d60e01b815260040160405180910390fd5b60608201516107e4906001600160a01b0316333088611dc2565b61080a82604001518684606001516001600160a01b0316611e1c9092919063ffffffff16565b5f876108165730610818565b335b905061083584604001518b8385604001518860a001516001611ea3565b825260408401516060830151608086015161085692918d918591905f611ea3565b826020018181525050846001600160a01b03166362402b046040518163ffffffff1660e01b81526004015f604051808303815f87803b158015610897575f5ffd5b505af11580156108a9573d5f5f3e3d5ffd5b505050604080850151905163acb7081560e01b8152600481018990526001600160a01b038d81166024830152909116915063acb70815906044016020604051808303815f875af11580156108ff573d5f5f3e3d5ffd5b505050506040513d601f19601f820116820180604052508101906109239190614008565b5081511515806109365750602082015115155b6109535760405163797c40e160e01b815260040160405180910390fd5b8715610a61578151156109d8576040808501518351915163a7d6e44b60e01b81526001600160a01b039091169163a7d6e44b91610996919060019060040161402f565b602060405180830381865afa1580156109b1573d5f5f3e3d5ffd5b505050506040513d601f19601f820116820180604052508101906109d59190614008565b96505b602082015115610a5c5783604001516001600160a01b031663a7d6e44b83602001515f6040518363ffffffff1660e01b8152600401610a1892919061402f565b602060405180830381865afa158015610a33573d5f5f3e3d5ffd5b505050506040513d601f19601f82011682018060405250810190610a579190614008565b870196505b610a98565b610a7984604001518560a00151845f01516001612000565b9650610a938460400151856080015184602001515f612000565b870196505b6040838101518151888152602081018a90528a15158184015291516001600160a01b038d81169392169133917f3a84f64446e8eada995aa9da2ddbfcd9b5d5d650503b19f024096d04c05ef2a99181900360600190a4505f93505050815c60ff19169050815d509550959350505050565b5f6001600160e01b03198216635a05180f60e01b1480610b2d5750610b2d82612159565b92915050565b5f80546040805163aecc90cb60e01b8152815184936001600160a01b03169263aecc90cb92600480820193918290030181865afa158015610b76573d5f5f3e3d5ffd5b505050506040513d601f19601f82011682018060405250810190610b9a919061405c565b5f805460405163e48a5f7b60e01b81526001600160a01b0380861660048301529496509294509092169063e48a5f7b9060240161022060405180830381865afa158015610be9573d5f5f3e3d5ffd5b505050506040513d601f19601f82011682018060405250810190610c0d919061421b565b5f805460405163e48a5f7b60e01b81526001600160a01b0386811660048301529394509192169063e48a5f7b9060240161022060405180830381865afa158015610c59573d5f5f3e3d5ffd5b505050506040513d601f19601f82011682018060405250810190610c7d919061421b565b90508161016001515f1480610c955750610160810151155b610cb2576040516329c5f0dd60e21b815260040160405180910390fd5b8161016001515f03610ce7576101a082015115610ce257604051631c3196cb60e21b815260040160405180910390fd5b610d0b565b6101a081015115610d0b57604051631c3196cb60e21b815260040160405180910390fd5b670de0b6b3a7640000826101a00151610d28662386f26fc1000090565b846101600151610d38919061424a565b610d42919061424a565b1115610d615760405163732481ab60e01b815260040160405180910390fd5b670de0b6b3a7640000816101a00151610d7e662386f26fc1000090565b836101600151610d8e919061424a565b610d98919061424a565b1115610db7576040516312b0b4f560e21b815260040160405180910390fd5b50505050565b5f5f5f5f5f5f610dcc8761218d565b925092509250610ddf8383838b8b61232c565b919a90995090975095505050505050565b610df86124ca565b6001600160a01b038216610e1f5760405163d1af83ef60e01b815260040160405180910390fd5b806001600160a01b0316826001600160a01b0316631d7e35566040518163ffffffff1660e01b8152600401602060405180830381865afa158015610e65573d5f5f3e3d5ffd5b505050506040513d601f19601f82011682018060405250810190610e89919061425d565b6001600160a01b031614610eb05760405163060a0aaf60e41b815260040160405180910390fd5b6001600160a01b038082165f90815260046020526040902054168015610ee95760405163d0c7225560e01b815260040160405180910390fd5b5f826001600160a01b031663eb3beb296040518163ffffffff1660e01b8152600401602060405180830381865afa158015610f26573d5f5f3e3d5ffd5b505050506040513d601f19601f82011682018060405250810190610f4a919061425d565b90505f610f5782856124f7565b6001600160a01b0383165f90815260016020526040812054919250906301000000900462ffffff1690506104008217610f8f82821790565b9150610fbe84610fb8866001600160a01b03165f9081526001602052604090205462ffffff1690565b846125fa565b6001600160a01b038681165f8181526004602090815260409182902080546001600160a01b031916948c16948517905581519384528301919091527f213d54ca7d6adb897962b4f78f6c2424aa527ee584f57a6000f961c507e0ec27910160405180910390a150505050505050565b5f82815260056020526040902060010154611047816126dd565b610db783836126e7565b61105a3361271a565b611077576040516310528c6d60e11b815260040160405180910390fd5b604051632a188cb160e21b815260040160405180910390fd5b6001600160a01b03811633146110b95760405163334bd91960e11b815260040160405180910390fd5b6110c382826127c1565b505050565b6110d06124ca565b6001600160a01b038082165f90815260046020526040902054168061110857604051632e77844760e21b815260040160405180910390fd5b6001600160a01b0382165f8181526004602090815260409182902080546001600160a01b031916905590519182527f94ac12f5301759f065db9de7f23677e50bef009f062b028d4d4612f620f0f5fb910160405180910390a15050565b5f8060ff815c161561118a57604051633ee5aeb560e01b815260040160405180910390fd5b60015f805c60ff19168217905d506111c17fd5dc6b389d0dd5687ab5bd9338f760ebeaff2d2852a93a9a9ebaebbfefc763ac61197a565b15806111f257506111f27fd5dc6b389d0dd5687ab5bd9338f760ebeaff2d2852a93a9a9ebaebbfefc763ac3361173f565b61120f576040516394572de960e01b815260040160405180910390fd5b60016040517fb59c4a578f1cf03f75770e14b8cbc94d58157d6f0be1fd91afc8416836b1ca10905f90a25f546001600160a01b031680611262576040516379c39cf960e01b815260040160405180910390fd5b806001600160a01b0316639dd413306040518163ffffffff1660e01b81526004015f604051808303815f87803b15801561129a575f5ffd5b505af11580156112ac573d5f5f3e3d5ffd5b505050505f5f6112bc83876127ec565b915091506112ce662386f26fc1000090565b82610160018181516112e0919061424a565b915081815250506113376040518061012001604052805f81526020015f81526020015f81526020015f81526020015f81526020015f81526020015f81526020015f81526020015f6001600160e01b03191681525090565b6101a0830151604051636da707db60e01b815273__$13ae51f56eab8417585cbbba140ac4e457$__91636da707db9161137c91879187918d915f199190600401613f83565b608060405180830381865af4158015611397573d5f5f3e3d5ffd5b505050506040513d601f19601f820116820180604052508101906113bb9190613fc8565b6001600160e01b0319166101008501819052606085019290925260408401929092529095506113e990611da5565b61140883604001518460a00151856101a001518460400151600161232c565b60a08401526080808401919091529082526040840151908401516101a0850151606084015161143a939291905f61232c565b60e084015260c08301526020820152604082015160a08481015190830151608084015161146c938b939092909161299b565b61148987836040015185608001518460e001518560c0015161299b565b805115611508576040808401518251915163a7d6e44b60e01b81526001600160a01b039091169163a7d6e44b916114c6919060019060040161402f565b602060405180830381865afa1580156114e1573d5f5f3e3d5ffd5b505050506040513d601f19601f820116820180604052508101906115059190614008565b95505b6020810151156115945782604001516001600160a01b031663a7d6e44b82602001515f6040518363ffffffff1660e01b815260040161154892919061402f565b602060405180830381865afa158015611563573d5f5f3e3d5ffd5b505050506040513d601f19601f820116820180604052508101906115879190614008565b611591908761424a565b95505b6115a2826040015186612ae8565b836001600160a01b03166362402b046040518163ffffffff1660e01b81526004015f604051808303815f87803b1580156115da575f5ffd5b505af11580156115ec573d5f5f3e3d5ffd5b505050506115ff82604001518689612b32565b60408085015184820151606080870151845192835260208301529281018490529298506001600160a01b03808c16945016917f54cc728c12748a65aedfe79efaabd7c185b1ef2165e29bd4e4f17ab2da2c2ede910160405180910390a360408281015181518781526020810189905260018184015291516001600160a01b038a81169392169133917f3a84f64446e8eada995aa9da2ddbfcd9b5d5d650503b19f024096d04c05ef2a99181900360600190a4505f92505050805c60ff1916815d50915091565b6116cd6124ca565b6116d65f612bc8565b565b60035433906001600160a01b031681146117155760405163118cdaa760e01b81526001600160a01b03821660048201526024015b60405180910390fd5b61171e81612bc8565b50565b5f8281526006602052604081206117389083612be1565b9392505050565b5f9182526005602090815260408084206001600160a01b0393909316845291905290205460ff1690565b5f818152600660205260409020606090610b2d90612bec565b61178b33612bf8565b6117a8576040516358ec9b7760e11b815260040160405180910390fd5b610db784848484612e0f565b5f8054604051630483b24f60e41b81526001600160a01b0384811660048301528392169063483b24f090602401606060405180830381865afa1580156117fc573d5f5f3e3d5ffd5b505050506040513d601f19601f820116820180604052508101906118209190614278565b509150506001600160a01b03811661184b57604051638b3f447160e01b815260040160405180910390fd5b60405163a37d941160e01b81526001600160a01b0382166004820152309063a37d941190602401602060405180830381865afa15801561188d573d5f5f3e3d5ffd5b505050506040513d601f19601f820116820180604052508101906118b1919061425d565b91506001600160a01b0382166118dd57604051600162036e1560e11b0319815260040160405180910390fd5b50919050565b5f8054604051631c2b1ded60e01b81526001600160a01b03918216600482015290831660248201528190819073__$13ae51f56eab8417585cbbba140ac4e457$__90631c2b1ded90604401606060405180830381865af4158015611949573d5f5f3e3d5ffd5b505050506040513d601f19601f8201168201806040525081019061196d91906142c2565b9250925092509193909250565b5f818152600660205260408120610b2d90612f1e565b7ff0c57e16840df040f15088dc2f81fe391c3923bec73e23a9662efc9c229c6a008054600160401b810460ff16159067ffffffffffffffff165f811580156119d55750825b90505f8267ffffffffffffffff1660011480156119f15750303b155b9050811580156119ff575080155b15611a1d5760405163f92ee8a960e01b815260040160405180910390fd5b845467ffffffffffffffff191660011785558315611a4757845460ff60401b1916600160401b1785555b5f611a5487890189613d00565b9050611a5f89612f27565b611a6881612fa0565b611a7181612fcf565b508315611ab857845460ff60401b19168555604051600181527fc7f505b2f371ae2175ee4913f4499e1f2633a7b5936321eed1cdaeb6115181d29060200160405180910390a15b5050505050505050565b5f82815260056020526040902060010154611adc816126dd565b610db783836127c1565b611aee6124ca565b6001600160a01b03811661171557604051631e4fbdf760e01b81525f600482015260240161170c565b611b1f6124ca565b600380546001600160a01b0383166001600160a01b03199091168117909155611b506002546001600160a01b031690565b6001600160a01b03167f38d16b8cac22d99fc7c124b9cd0de2d3fa1faef420bfe791d8c362d765e2270060405160405180910390a350565b611b90613a93565b611b98613a93565b6040516394c0527d60e01b81526001600160a01b0384811660048301528716906394c0527d9060240161044060405180830381865afa158015611bdd573d5f5f3e3d5ffd5b505050506040513d601f19601f82011682018060405250810190611c0191906142ee565b604081015191935091506001600160a01b0316611c3157604051632f13551560e11b815260040160405180910390fd5b81606001516001600160a01b0316856001600160a01b031614611c675760405163055692d760e21b815260040160405180910390fd5b80606001516001600160a01b0316846001600160a01b031614611c9d5760405163129e080d60e21b815260040160405180910390fd5b80604001516001600160a01b031663a6afed956040518163ffffffff1660e01b81526004016020604051808303815f875af1158015611cde573d5f5f3e3d5ffd5b505050506040513d601f19601f82011682018060405250810190611d029190614008565b5080604001516001600160a01b031682604001516001600160a01b031614611d9c5781604001516001600160a01b031663a6afed956040518163ffffffff1660e01b81526004016020604051808303815f875af1158015611d65573d5f5f3e3d5ffd5b505050506040513d601f19601f82011682018060405250810190611d899190614008565b50611d9382612fe8565b611d9c81612fe8565b94509492505050565b6001600160e01b031981165f03611db95750565b61171e8161306e565b610db784856001600160a01b03166323b872dd868686604051602401611dea93929190614323565b604051602081830303815290604052915060e01b6020820180516001600160e01b03838183161783525050505061309f565b604051636eb1769f60e11b81523060048201526001600160a01b0383811660248301525f919085169063dd62ed3e90604401602060405180830381865afa158015611e69573d5f5f3e3d5ffd5b505050506040513d601f19601f82011682018060405250810190611e8d9190614008565b9050610db78484611e9e858561424a565b613100565b5f835f03611eb257505f611ff6565b611f8884886001600160a01b031663b6d821c7856040518263ffffffff1660e01b8152600401611ee29190614347565b602060405180830381865afa158015611efd573d5f5f3e3d5ffd5b505050506040513d601f19601f82011682018060405250810190611f219190614008565b856001600160a01b03166318160ddd6040518163ffffffff1660e01b8152600401602060405180830381865afa158015611f5d573d5f5f3e3d5ffd5b505050506040513d601f19601f82011682018060405250810190611f819190614008565b5f8661318f565b9050805f03611f9857505f611ff6565b604051633661585b60e21b81526001600160a01b0384169063d985616c90611fc890899089908690600401614323565b5f604051808303815f87803b158015611fdf575f5ffd5b505af1158015611ff1573d5f5f3e3d5ffd5b505050505b9695505050505050565b5f825f0361200f57505f612151565b6040516306d29bb360e51b81526001600160a01b0386169063da53766090612041908690339030908890600401614361565b6020604051808303815f875af192505050801561207b575060408051601f3d908101601f1916820190925261207891810190614008565b60015b61214e573d8080156120a8576040519150601f19603f3d011682016040523d82523d5f602084013e6120ad565b606091505b506120b7816131cc565b156121305760405163a9059cbb60e01b8152336004820152602481018590526001600160a01b0386169063a9059cbb906044016020604051808303815f875af1158015612106573d5f5f3e3d5ffd5b505050506040513d601f19601f8201168201806040525081019061212a9190614397565b50612148565b6121488160405180602001604052805f8152506131fb565b50612151565b90505b949350505050565b5f6001600160e01b03198216637965db0b60e01b1480610b2d57506301ffc9a760e01b6001600160e01b0319831614610b2d565b5f80546040805163aecc90cb60e01b81528151849384936001600160a01b039091169284928392859263aecc90cb92600480830193928290030181865afa1580156121da573d5f5f3e3d5ffd5b505050506040513d601f19601f820116820180604052508101906121fe919061405c565b60405163e48a5f7b60e01b81526001600160a01b0380841660048301529298508894509092505f9185169063e48a5f7b9060240161022060405180830381865afa15801561224e573d5f5f3e3d5ffd5b505050506040513d601f19601f82011682018060405250810190612272919061421b565b90508061016001515f036122ef5760405163e48a5f7b60e01b81526001600160a01b03838116600483015285169063e48a5f7b9060240161022060405180830381865afa1580156122c5573d5f5f3e3d5ffd5b505050506040513d601f19601f820116820180604052508101906122e9919061421b565b90508196505b600188600181111561230357612303613e17565b14612312578060800151612318565b8060a001515b6101a0909101519698909750945050505050565b5f5f5f845f0361234357505f9150819050806124bf565b5f886001600160a01b031663b6d821c786600181111561236557612365613e17565b60ff16600281111561237957612379613e17565b6040518263ffffffff1660e01b81526004016123959190614347565b602060405180830381865afa1580156123b0573d5f5f3e3d5ffd5b505050506040513d601f19601f820116820180604052508101906123d49190614008565b90505f886001600160a01b03166318160ddd6040518163ffffffff1660e01b8152600401602060405180830381865afa158015612413573d5f5f3e3d5ffd5b505050506040513d601f19601f820116820180604052508101906124379190614008565b905061246b8783835f8a600181111561245257612452613e17565b60ff16600281111561246657612466613e17565b61318f565b945061247f88670de0b6b3a764000061424a565b6124a46124946702c68af0bb1400008b6143b2565b87670de0b6b3a76400005f613224565b6124ae91906143dd565b93506124ba84866143f0565b925050505b955095509592505050565b6002546001600160a01b031633146116d65760405163118cdaa760e01b815233600482015260240161170c565b5f8054604051630483b24f60e41b81526001600160a01b0385811660048301528392839283929091169063483b24f090602401606060405180830381865afa158015612545573d5f5f3e3d5ffd5b505050506040513d601f19601f820116820180604052508101906125699190614278565b925092509250816001600160a01b0316856001600160a01b031603612595576108009350505050610b2d565b826001600160a01b0316856001600160a01b0316036125bb576110009350505050610b2d565b806001600160a01b0316856001600160a01b0316036125e1576120009350505050610b2d565b60405163d938fa3760e01b815260040160405180910390fd5b60408051808201825262ffffff84811680835284821660208085018281526001600160a01b038a165f81815260018452889020965187549251871663010000000265ffffffffffff1990931696169590951717909455845192835292820152918201527f1c26a8451bc890d476a0e7bb8310f00750604879bb30d4813a7718a1ee089fa69060600160405180910390a1826001600160a01b031663cad1aacf6040518163ffffffff1660e01b81526004015f604051808303815f87803b1580156126c2575f5ffd5b505af11580156126d4573d5f5f3e3d5ffd5b50505050505050565b61171e8133613266565b5f5f6126f384846132a3565b90508015611738575f8481526006602052604090206127129084613334565b509392505050565b5f80546040805163aecc90cb60e01b81528151849384936001600160a01b039091169263aecc90cb92600480830193928290030181865afa158015612761573d5f5f3e3d5ffd5b505050506040513d601f19601f82011682018060405250810190612785919061405c565b91509150816001600160a01b0316846001600160a01b031614806121515750806001600160a01b0316846001600160a01b031614949350505050565b5f5f6127cd8484613348565b90508015611738575f84815260066020526040902061271290846133b3565b6127f4613a93565b6127fc613a93565b6040516394c0527d60e01b81526001600160a01b0384811660048301528516906394c0527d9060240161044060405180830381865afa158015612841573d5f5f3e3d5ffd5b505050506040513d601f19601f8201168201806040525081019061286591906142ee565b604081015191935091506001600160a01b031661289557604051632f13551560e11b815260040160405180910390fd5b80604001516001600160a01b031663a6afed956040518163ffffffff1660e01b81526004016020604051808303815f875af11580156128d6573d5f5f3e3d5ffd5b505050506040513d601f19601f820116820180604052508101906128fa9190614008565b5080604001516001600160a01b031682604001516001600160a01b0316146129945781604001516001600160a01b031663a6afed956040518163ffffffff1660e01b81526004016020604051808303815f875af115801561295d573d5f5f3e3d5ffd5b505050506040513d601f19601f820116820180604052508101906129819190614008565b5061298b82612fe8565b61299481612fe8565b9250929050565b5f6129a5856117b4565b90508215612a7c57604051633661585b60e21b81526001600160a01b0385169063d985616c906129dd90899085908890600401614323565b5f604051808303815f87803b1580156129f4575f5ffd5b505af1158015612a06573d5f5f3e3d5ffd5b50506040516316757f2360e21b81526001600160a01b03878116600483015260248201879052841692506359d5fc8c91506044016020604051808303815f875af1158015612a56573d5f5f3e3d5ffd5b505050506040513d601f19601f82011682018060405250810190612a7a9190614008565b505b8115612ae057604051633661585b60e21b81526001600160a01b0385169063d985616c90612ab290899033908790600401614323565b5f604051808303815f87803b158015612ac9575f5ffd5b505af1158015612adb573d5f5f3e3d5ffd5b505050505b505050505050565b6040805160248082018490528251808303909101815260449091019091526020810180516001600160e01b031663194af7dd60e11b179052610db7838263fe568fd160e01b6133c7565b5f5f5f612ba586631bc77f3060e01b8787604051602401612b669291909182526001600160a01b0316602082015260400190565b60408051601f198184030181529190526020810180516001600160e01b03166001600160e01b0319909316929092179091526340561a9d60e11b6133c7565b905080806020019051810190612bbb9190614403565b9097909650945050505050565b600380546001600160a01b031916905561171e81613472565b5f61173883836134c3565b60605f611738836134e9565b5f80546040805163aecc90cb60e01b81528151849384936001600160a01b039091169263aecc90cb92600480830193928290030181865afa158015612c3f573d5f5f3e3d5ffd5b505050506040513d601f19601f82011682018060405250810190612c63919061405c565b91509150816001600160a01b0316846001600160a01b03161480612c985750806001600160a01b0316846001600160a01b0316145b15612ca7575060019392505050565b5f8054604051630483b24f60e41b81526001600160a01b0385811660048301528392169063483b24f090602401606060405180830381865afa158015612cef573d5f5f3e3d5ffd5b505050506040513d601f19601f82011682018060405250810190612d139190614278565b919350909150506001600160a01b038681169083161480612d455750806001600160a01b0316866001600160a01b0316145b15612d565750600195945050505050565b5f54604051630483b24f60e41b81526001600160a01b0385811660048301529091169063483b24f090602401606060405180830381865afa158015612d9d573d5f5f3e3d5ffd5b505050506040513d601f19601f82011682018060405250810190612dc19190614278565b919350909150506001600160a01b038681169083161480612df35750806001600160a01b0316866001600160a01b0316145b15612e045750600195945050505050565b505f95945050505050565b335f908152600460205260409020546001600160a01b031680612e325750610db7565b612e6784612e61876001600160a01b03165f9081526001602052604090205462ffffff63010000009091041690565b81161490565b612e715750610db7565b5f612eb084848080601f0160208091040260200160405190810160405280939291908181526020018383808284375f9201919091525061354292505050565b805160608201516020830151608084015160a0850151604080870151905163bbdc013b60e01b81526001600160a01b039687166004820152602481019590955292851660448501526064840191909152608483015260a482015291925083169063bbdc013b9060c401612ab2565b5f610b2d825490565b612f2f6135e6565b6001600160a01b038116612f56576040516379c39cf960e01b815260040160405180910390fd5b5f546001600160a01b031615612f7f576040516308db0db560e11b815260040160405180910390fd5b5f80546001600160a01b0319166001600160a01b0392909216919091179055565b612fa86135e6565b6001600160a01b038116611715576040516354a4010f60e01b815260040160405180910390fd5b612fd76135e6565b612fe08161362f565b61171e610b33565b8061020001518015613006575060e08101516001600160a01b031615155b1561171e5760e08101516060820151604051637cfd30cd60e11b81526001600160a01b03918216600482015291169063f9fa619a906024015f604051808303815f87803b158015613055575f5ffd5b505af1158015613067573d5f5f3e3d5ffd5b5050505050565b6040805160048152602481019091526020810180516001600160e01b03166001600160e01b03198416178152815190fd5b5f6130b36001600160a01b03841683613639565b905080515f141580156130d75750808060200190518101906130d59190614397565b155b156110c357604051635274afe760e01b81526001600160a01b038416600482015260240161170c565b604080516001600160a01b038416602482015260448082018490528251808303909101815260649091019091526020810180516001600160e01b031663095ea7b360e01b1790526131518482613646565b610db7576040516001600160a01b0384811660248301525f604483015261318591869182169063095ea7b390606401611dea565b610db7848261309f565b5f5f5f61319d8787866136e3565b91509150815f036131b25787925050506131c3565b6131be88838388613224565b925050505b95945050505050565b5f81516004148015610b2d575063284fe51560e01b6131ea83614425565b6001600160e01b0319161492915050565b81511561320a57815182602001fd5b8060405162461bcd60e51b815260040161170c9190613e05565b5f6132516132318361373e565b801561324c57505f8480613247576132476143c9565b868809115b151590565b61325c86868661376a565b61214e919061424a565b613270828261173f565b61329f5760405163e2517d3f60e01b81526001600160a01b03821660048201526024810183905260440161170c565b5050565b5f6132ae838361173f565b61332d575f8381526005602090815260408083206001600160a01b03861684529091529020805460ff191660011790556132e53390565b6001600160a01b0316826001600160a01b0316847f2f8788117e7eff1d82e926ec794901d17c78024a50270940304540a733656f0d60405160405180910390a4506001610b2d565b505f610b2d565b5f611738836001600160a01b038416613827565b5f613353838361173f565b1561332d575f8381526005602090815260408083206001600160a01b0386168085529252808320805460ff1916905551339286917ff6391f5c32d9c69d2a47ea670b442974b53935d1edc7fd64eb21e047a839171b9190a4506001610b2d565b5f611738836001600160a01b03841661386c565b60605f846001600160a01b0316634624c6a77f00000000000000000000000000000000000000000000000000000000000000005f6001886040518563ffffffff1660e01b815260040161341d9493929190614463565b5f604051808303815f875af1158015613438573d5f5f3e3d5ffd5b505050506040513d5f823e601f3d908101601f1916820160405261345f919081019061449a565b925090508061271257612712828461394f565b600280546001600160a01b038381166001600160a01b0319831681179093556040519116919082907f8be0079c531659141344cd1fd0a4f28419497f9722a3daafe3b4186f6b6457e0905f90a35050565b5f825f0182815481106134d8576134d8614542565b905f5260205f200154905092915050565b6060815f0180548060200260200160405190810160405280929190818152602001828054801561353657602002820191905f5260205f20905b815481526020019060010190808311613522575b50505050509050919050565b6135876040518060c001604052805f6001600160a01b031681526020015f6001600160a01b031681526020015f81526020015f81526020015f81526020015f81525090565b506014810151602882015160488301516068840151608885015160a8909501516040805160c0810182526001600160a01b039687168152959094166020860152928401919091526060830152608082019290925260a081019190915290565b7ff0c57e16840df040f15088dc2f81fe391c3923bec73e23a9662efc9c229c6a0054600160401b900460ff166116d657604051631afcd79f60e31b815260040160405180910390fd5b61329f5f826126e7565b606061173883835f613967565b5f5f5f846001600160a01b0316846040516136619190614556565b5f604051808303815f865af19150503d805f811461369a576040519150601f19603f3d011682016040523d82523d5f602084013e61369f565b606091505b50915091508180156136c95750805115806136c95750808060200190518101906136c99190614397565b80156131c35750505050506001600160a01b03163b151590565b5f5f835f036136f0575f94505b600283600281111561370457613704613e17565b1461372f576137156003600a61464f565b61371f908561424a565b61372a86600161424a565b613732565b83855b90969095509350505050565b5f600282600381111561375357613753613e17565b61375d919061465a565b60ff166001149050919050565b5f838302815f1985870982811083820303915050805f0361379e57838281613794576137946143c9565b0492505050611738565b8084116137bc576137bc84156137b55760116139fd565b60126139fd565b5f848688095f868103871696879004966002600389028118808a02820302808a02820302808a02820302808a02820302808a02820302808a02909103029181900381900460010186841190950394909402919094039290920491909117919091029150509392505050565b5f81815260018301602052604081205461332d57508154600181810184555f848152602080822090930184905584548482528286019093526040902091909155610b2d565b5f8181526001830160205260408120548015613946575f61388e6001836143f0565b85549091505f906138a1906001906143f0565b9050808214613900575f865f0182815481106138bf576138bf614542565b905f5260205f200154905080875f0184815481106138df576138df614542565b5f918252602080832090910192909255918252600188019052604090208390555b85548690806139115761391161467b565b600190038181905f5260205f20015f90559055856001015f8681526020019081526020015f205f905560019350505050610b2d565b5f915050610b2d565b81511561395e57815182602001fd5b61329f8161306e565b6060814710156139935760405163cf47918160e01b81524760048201526024810183905260440161170c565b5f5f856001600160a01b031684866040516139ae9190614556565b5f6040518083038185875af1925050503d805f81146139e8576040519150601f19603f3d011682016040523d82523d5f602084013e6139ed565b606091505b5091509150611ff6868383613a0e565b634e487b715f52806020526024601cfd5b606082613a2357613a1e82613a6a565b611738565b8151158015613a3a57506001600160a01b0384163b155b15613a6357604051639996b31560e01b81526001600160a01b038516600482015260240161170c565b5080611738565b805115613a7a5780518082602001fd5b60405163d6bda27560e01b815260040160405180910390fd5b60408051610220810182525f80825260208201819052918101829052606081018290526080810182905260a0810182905260c0810182905260e08101829052610100810182905261012081018290526101408101829052610160810182905261018081018290526101a081018290526101c081018290526101e0810182905261020081019190915290565b6001600160a01b038116811461171e575f5ffd5b801515811461171e575f5ffd5b5f5f5f5f5f60a08688031215613b53575f5ffd5b8535613b5e81613b1e565b94506020860135613b6e81613b1e565b93506040860135613b7e81613b1e565b9250606086013591506080860135613b9581613b32565b809150509295509295909350565b6001600160e01b03198116811461171e575f5ffd5b5f60208284031215613bc8575f5ffd5b813561173881613ba3565b5f5f60408385031215613be4575f5ffd5b82359150602083013560028110613bf9575f5ffd5b809150509250929050565b5f5f60408385031215613c15575f5ffd5b8235613c2081613b1e565b91506020830135613bf981613b1e565b5f60208284031215613c40575f5ffd5b5035919050565b5f5f60408385031215613c58575f5ffd5b823591506020830135613bf981613b1e565b5f5f83601f840112613c7a575f5ffd5b50813567ffffffffffffffff811115613c91575f5ffd5b602083019150836020828501011115612994575f5ffd5b5f5f5f5f60608587031215613cbb575f5ffd5b8435613cc681613b1e565b935060208501359250604085013567ffffffffffffffff811115613ce8575f5ffd5b613cf487828801613c6a565b95989497509550505050565b5f60208284031215613d10575f5ffd5b813561173881613b1e565b5f5f60408385031215613d2c575f5ffd5b50508035926020909101359150565b602080825282518282018190525f918401906040840190835b81811015613d7b5783516001600160a01b0316835260209384019390920191600101613d54565b509095945050505050565b5f5f5f60408486031215613d98575f5ffd5b8335613da381613b1e565b9250602084013567ffffffffffffffff811115613dbe575f5ffd5b613dca86828701613c6a565b9497909650939450505050565b5f81518084528060208401602086015e5f602082860101526020601f19601f83011685010191505092915050565b602081525f6117386020830184613dd7565b634e487b7160e01b5f52602160045260245ffd5b80518252602081015160208301526040810151613e5360408401826001600160a01b03169052565b506060810151613e6e60608401826001600160a01b03169052565b506080810151613e8960808401826001600160a01b03169052565b5060a0810151613ea460a08401826001600160a01b03169052565b5060c0810151613ebf60c08401826001600160a01b03169052565b5060e0810151613eda60e08401826001600160a01b03169052565b50610100810151613ef76101008401826001600160a01b03169052565b50610120810151613f146101208401826001600160a01b03169052565b506101408101516101408301526101608101516101608301526101808101516101808301526101a08101516101a08301526101c08101516101c08301526101e0810151613f6d6101e08401826001600160a01b03169052565b506102008101516110c361020084018215159052565b6104a08101613f928288613e2b565b613fa0610220830187613e2b565b6001600160a01b03949094166104408201526104608101929092526104809091015292915050565b5f5f5f5f60808587031215613fdb575f5ffd5b84516020860151604087015160608801519296509094509250613ffd81613ba3565b939692955090935050565b5f60208284031215614018575f5ffd5b5051919050565b6002811061171e5761171e613e17565b8281526040810161403f8361401f565b8260208301529392505050565b805161405781613b1e565b919050565b5f5f6040838503121561406d575f5ffd5b825161407881613b1e565b6020840151909250613bf981613b1e565b634e487b7160e01b5f52604160045260245ffd5b604051610220810167ffffffffffffffff811182821017156140c1576140c1614089565b60405290565b604051601f8201601f1916810167ffffffffffffffff811182821017156140f0576140f0614089565b604052919050565b805161405781613b32565b5f6102208284031215614114575f5ffd5b61411c61409d565b825181526020808401519082015290506141386040830161404c565b60408201526141496060830161404c565b606082015261415a6080830161404c565b608082015261416b60a0830161404c565b60a082015261417c60c0830161404c565b60c082015261418d60e0830161404c565b60e082015261419f610100830161404c565b6101008201526141b2610120830161404c565b6101208201526101408281015190820152610160808301519082015261018080830151908201526101a080830151908201526101c080830151908201526141fc6101e0830161404c565b6101e082015261420f61020083016140f8565b61020082015292915050565b5f610220828403121561422c575f5ffd5b6117388383614103565b634e487b7160e01b5f52601160045260245ffd5b80820180821115610b2d57610b2d614236565b5f6020828403121561426d575f5ffd5b815161173881613b1e565b5f5f5f6060848603121561428a575f5ffd5b835161429581613b1e565b60208501519093506142a681613b1e565b60408501519092506142b781613b1e565b809150509250925092565b5f5f5f606084860312156142d4575f5ffd5b83516020850151604086015191945092506142b781613b32565b5f5f6104408385031215614300575f5ffd5b61430a8484614103565b915061431a846102208501614103565b90509250929050565b6001600160a01b039384168152919092166020820152604081019190915260600190565b602081016003831061435b5761435b613e17565b91905290565b8481526001600160a01b03848116602083015283166040820152608081016143888361401f565b82606083015295945050505050565b5f602082840312156143a7575f5ffd5b815161173881613b32565b8082028115828204841417610b2d57610b2d614236565b634e487b7160e01b5f52601260045260245ffd5b5f826143eb576143eb6143c9565b500490565b81810381811115610b2d57610b2d614236565b5f5f60408385031215614414575f5ffd5b505080516020909101519092909150565b805160208201516001600160e01b031981169190600482101561445c576001600160e01b0319600483900360031b81901b82161692505b5050919050565b6001600160a01b03851681526020810184905261447f8361401f565b826040820152608060608201525f611ff66080830184613dd7565b5f5f604083850312156144ab575f5ffd5b82516144b681613b32565b602084015190925067ffffffffffffffff8111156144d2575f5ffd5b8301601f810185136144e2575f5ffd5b805167ffffffffffffffff8111156144fc576144fc614089565b61450f601f8201601f19166020016140c7565b818152866020838501011115614523575f5ffd5b8160208401602083015e5f602083830101528093505050509250929050565b634e487b7160e01b5f52603260045260245ffd5b5f82518060208501845e5f920191825250919050565b6001815b60018411156145a75780850481111561458b5761458b614236565b600184161561459957908102905b60019390931c928002614570565b935093915050565b5f826145bd57506001610b2d565b816145c957505f610b2d565b81600181146145df57600281146145e957614605565b6001915050610b2d565b60ff8411156145fa576145fa614236565b50506001821b610b2d565b5060208310610133831016604e8410600b8410161715614628575081810a610b2d565b6146345f19848461456c565b805f190482111561464757614647614236565b029392505050565b5f61173883836145af565b5f60ff83168061466c5761466c6143c9565b8060ff84160691505092915050565b634e487b7160e01b5f52603160045260245ffdfea26469706673582212209d2099284d27ffa42c6c36e9ba11b5ec7c488a78907e2fc1371c984cddf30a4764736f6c634300081c00336080604052348015600e575f5ffd5b506103ae8061001c5f395ff3fe608060405234801561000f575f5ffd5b5060043610610034575f3560e01c80631bc77f30146100385780633295efba14610064575b5f5ffd5b61004b6100463660046102e1565b610079565b6040805192835260208301919091520160405180910390f35b61007761007236600461031a565b61015d565b005b604051632811815960e11b8152600481018390525f602482018190526001600160a01b038316604483015233606483015290819073__$2af8d6de85c36a4126e5b0561510a530d6$__9063502302b2906084016040805180830381865af41580156100e6573d5f5f3e3d5ffd5b505050506040513d601f19601f8201168201806040525081019061010a9190610331565b60408051838152602081018390529194509192506001600160a01b0385169133917fe4a1ae657f49cb1fb1c7d3a94ae6093565c4c8c0e03de488f79c377c3c3a24e0910160405180910390a39250929050565b60015f9081527fd7513ffe3a01a9f6606089d1b67011bca35bec018ac0faa914e1c529408f83026020527f9f4c9b90b8375e1a1c51483b3ca447c3cef6557c7e1ddcfb2935a045af6b0ec7547fd7513ffe3a01a9f6606089d1b67011bca35bec018ac0faa914e1c529408f830091906101d68185610282565b60015f90815260028601602052604090205591508382610242575f6101fb8387610353565b85548493509091505f90610218906001600160c01b031683610282565b915050610224816102a6565b86546001600160c01b0319166001600160c01b039190911617865550505b60408051868152602081018390527fa5329f73da29674b6bc0fb1faa44d0eafe0c62c249e1d478ce992ba1f7dea2ad910160405180910390a15050505050565b5f5f8383111561029657505f90508061029f565b50600190508183035b9250929050565b5f6001600160c01b038211156102dd576040516306dfcc6560e41b815260c060048201526024810183905260440160405180910390fd5b5090565b5f5f604083850312156102f2575f5ffd5b8235915060208301356001600160a01b038116811461030f575f5ffd5b809150509250929050565b5f6020828403121561032a575f5ffd5b5035919050565b5f5f60408385031215610342575f5ffd5b505080516020909101519092909150565b8181038181111561037257634e487b7160e01b5f52601160045260245ffd5b9291505056fea26469706673582212201affc4206887607ce4056070e2beef32de2d9db961ccb1b9344da895dac2c48564736f6c634300081c0033",
  "language": "Solidity",
  "compiler": "0.8.28+commit.7893614a"
}