{
  "address": "0x200AE3dc21F6dfbab81842DB21DBBF285e2b4CC1",
  "abi": [
    {
      "type": "constructor",
      "inputs": [
        {
          "name": "_nativeToken",
          "type": "address",
          "internalType": "address"
        },
        {
          "name": "_tokensReceiver",
          "type": "address",
          "internalType": "address payable"
        }
      ],
      "stateMutability": "nonpayable"
    },
    {
      "type": "receive",
      "stateMutability": "payable"
    },
    {
      "type": "function",
      "name": "NATIVE_TOKEN",
      "inputs": [],
      "outputs": [
        {
          "name": "",
          "type": "address",
          "internalType": "address"
        }
      ],
      "stateMutability": "view"
    },
    {
      "type": "function",
      "name": "TOKENS_RECEIVER",
      "inputs": [],
      "outputs": [
        {
          "name": "",
          "type": "address",
          "internalType": "address payable"
        }
      ],
      "stateMutability": "view"
    },
    {
      "type": "function",
      "name": "VERSION",
      "inputs": [],
      "outputs": [
        {
          "name": "",
          "type": "string",
          "internalType": "string"
        }
      ],
      "stateMutability": "pure"
    },
    {
      "type": "function",
      "name": "executeLiquidation",
      "inputs": [
        {
          "name": "_siloWithDebt",
          "type": "address",
          "internalType": "contract ISilo"
        },
        {
          "name": "_borrower",
          "type": "address",
          "internalType": "address"
        },
        {
          "name": "_maxDebtToCover",
          "type": "uint256",
          "internalType": "uint256"
        },
        {
          "name": "_receiveSToken",
          "type": "bool",
          "internalType": "bool"
        }
      ],
      "outputs": [],
      "stateMutability": "nonpayable"
    },
    {
      "type": "function",
      "name": "executeLiquidation",
      "inputs": [
        {
          "name": "_siloWithDebt",
          "type": "address",
          "internalType": "contract ISilo"
        },
        {
          "name": "_borrower",
          "type": "address",
          "internalType": "address"
        }
      ],
      "outputs": [],
      "stateMutability": "nonpayable"
    },
    {
      "type": "function",
      "name": "rescueTokens",
      "inputs": [
        {
          "name": "_token",
          "type": "address",
          "internalType": "contract IERC20"
        }
      ],
      "outputs": [],
      "stateMutability": "nonpayable"
    },
    {
      "type": "event",
      "name": "TokensRescued",
      "inputs": [
        {
          "name": "executor",
          "type": "address",
          "indexed": true,
          "internalType": "address"
        },
        {
          "name": "token",
          "type": "address",
          "indexed": true,
          "internalType": "address"
        },
        {
          "name": "amount",
          "type": "uint256",
          "indexed": false,
          "internalType": "uint256"
        }
      ],
      "anonymous": false
    },
    {
      "type": "error",
      "name": "AddressEmptyCode",
      "inputs": [
        {
          "name": "target",
          "type": "address",
          "internalType": "address"
        }
      ]
    },
    {
      "type": "error",
      "name": "EmptyRecipient",
      "inputs": []
    },
    {
      "type": "error",
      "name": "FailedCall",
      "inputs": []
    },
    {
      "type": "error",
      "name": "InsufficientBalance",
      "inputs": [
        {
          "name": "balance",
          "type": "uint256",
          "internalType": "uint256"
        },
        {
          "name": "needed",
          "type": "uint256",
          "internalType": "uint256"
        }
      ]
    },
    {
      "type": "error",
      "name": "MaxDebtToCoverZero",
      "inputs": []
    },
    {
      "type": "error",
      "name": "SafeERC20FailedOperation",
      "inputs": [
        {
          "name": "token",
          "type": "address",
          "internalType": "address"
        }
      ]
    },
    {
      "type": "error",
      "name": "UserSolvent",
      "inputs": []
    }
  ],
  "bytecode": "0x60c060405234801561000f575f5ffd5b506040516110e03803806110e083398101604081905261002e9161005c565b6001600160a01b0391821660a05216608052610094565b6001600160a01b0381168114610059575f5ffd5b50565b5f5f6040838503121561006d575f5ffd5b825161007881610045565b602084015190925061008981610045565b809150509250929050565b60805160a0516110096100d75f395f81816093015281816108d00152610a4201525f818161010201528181610193015281816101c401526101f801526110095ff3fe608060405260043610610056575f3560e01c8062ae3bf81461006157806331f7d9641461008257806389c0880f146100d2578063b34cbaf7146100f1578063bcebb1d714610124578063ffa1ad7414610143575f5ffd5b3661005d57005b5f5ffd5b34801561006c575f5ffd5b5061008061007b366004610c95565b61018e565b005b34801561008d575f5ffd5b506100b57f000000000000000000000000000000000000000000000000000000000000000081565b6040516001600160a01b0390911681526020015b60405180910390f35b3480156100dd575f5ffd5b506100806100ec366004610cbd565b6101bb565b3480156100fc575f5ffd5b506100b57f000000000000000000000000000000000000000000000000000000000000000081565b34801561012f575f5ffd5b5061008061013e366004610d0d565b6101ee565b34801561014e575f5ffd5b50604080518082018252601e81527f4d616e75616c4c69717569646174696f6e48656c70657220342e31362e300000602082015290516100c99190610d44565b6101b87f000000000000000000000000000000000000000000000000000000000000000082610220565b50565b6101e8848484847f000000000000000000000000000000000000000000000000000000000000000061030a565b50505050565b61021c82825f195f7f000000000000000000000000000000000000000000000000000000000000000061030a565b5050565b6001600160a01b03821661024757604051635834d75360e11b815260040160405180910390fd5b6040516370a0823160e01b81523060048201525f906001600160a01b038316906370a0823190602401602060405180830381865afa15801561028b573d5f5f3e3d5ffd5b505050506040513d601f19601f820116820180604052508101906102af9190610d79565b90506102c56001600160a01b03831684836106ac565b6040518181526001600160a01b0383169033907f77023e19c7343ad491fd706c36335ca0e738340a91f29b1fd81e2673d44896c49060200160405180910390a3505050565b825f0361032a5760405163f33790cd60e01b815260040160405180910390fd5b5f5f866001600160a01b03166379502c556040518163ffffffff1660e01b8152600401602060405180830381865afa158015610368573d5f5f3e3d5ffd5b505050506040513d601f19601f8201168201806040525081019061038c9190610d90565b6040516394c0527d60e01b81526001600160a01b03888116600483015291909116906394c0527d9060240161044060405180830381865afa1580156103d3573d5f5f3e3d5ffd5b505050506040513d601f19601f820116820180604052508101906103f79190610f14565b6101e081015160a083015192945090925090610414908290610710565b610427826101e001518460800151610710565b60608201516040516317a05b0960e31b81526001600160a01b0389811660048301525f919084169063bd02d84890602401606060405180830381865afa158015610473573d5f5f3e3d5ffd5b505050506040513d601f19601f820116820180604052508101906104979190610f49565b50915050805f036104bb576040516355f4767160e11b815260040160405180910390fd5b6104d06001600160a01b0383163330846107e3565b6101e08401516104eb906001600160a01b038416908361081c565b826001600160a01b031662a718a9866060015186606001518c61050e868e6108ab565b6040516001600160e01b031960e087901b1681526001600160a01b0394851660048201529284166024840152921660448201526064810191909152891515608482015260a40160408051808303815f875af115801561056f573d5f5f3e3d5ffd5b505050506040513d601f19601f820116820180604052508101906105939190610f80565b50506101e08401516105b0906001600160a01b038416905f61081c565b86156106695760808501516040516370a0823160e01b815230600482015261062d9188916001600160a01b038216906370a08231906024015b602060405180830381865afa158015610604573d5f5f3e3d5ffd5b505050506040513d601f19601f820116820180604052508101906106289190610d79565b6108c2565b60a08501516040516370a0823160e01b81523060048201526106649188916001600160a01b038216906370a08231906024016105e9565b6106a0565b60608501516040516370a0823160e01b81523060048201526106a09188916001600160a01b038216906370a08231906024016105e9565b50505050505050505050565b6040516001600160a01b0383811660248301526044820183905261070b91859182169063a9059cbb906064015b604051602081830303815290604052915060e01b6020820180516001600160e01b038381831617835250505050610925565b505050565b60405163a37d941160e01b81526001600160a01b0382811660048301525f919084169063a37d941190602401602060405180830381865afa158015610757573d5f5f3e3d5ffd5b505050506040513d601f19601f8201168201806040525081019061077b9190610d90565b90506001600160a01b03811661079057505050565b806001600160a01b03166352c702a66040518163ffffffff1660e01b81526004015f604051808303815f87803b1580156107c8575f5ffd5b505af19250505080156107d9575060015b1561070b57505050565b6040516001600160a01b0384811660248301528381166044830152606482018390526101e89186918216906323b872dd906084016106d9565b604080516001600160a01b038416602482015260448082018490528251808303909101815260649091019091526020810180516001600160e01b031663095ea7b360e01b17905261086d848261098b565b6101e8576040516001600160a01b0384811660248301525f60448301526108a191869182169063095ea7b3906064016106d9565b6101e88482610925565b5f8183106108b957816108bb565b825b9392505050565b805f036108ce57505050565b7f00000000000000000000000000000000000000000000000000000000000000006001600160a01b0316826001600160a01b0316036109115761070b8382610a2c565b61070b6001600160a01b03831684836106ac565b5f6109396001600160a01b03841683610ab5565b905080515f1415801561095d57508080602001905181019061095b9190610fa2565b155b1561070b57604051635274afe760e01b81526001600160a01b03841660048201526024015b60405180910390fd5b5f5f5f846001600160a01b0316846040516109a69190610fbd565b5f604051808303815f865af19150503d805f81146109df576040519150601f19603f3d011682016040523d82523d5f602084013e6109e4565b606091505b5091509150818015610a0e575080511580610a0e575080806020019051810190610a0e9190610fa2565b8015610a2357505f856001600160a01b03163b115b95945050505050565b604051632e1a7d4d60e01b8152600481018290527f00000000000000000000000000000000000000000000000000000000000000006001600160a01b031690632e1a7d4d906024015f604051808303815f87803b158015610a8b575f5ffd5b505af1158015610a9d573d5f5f3e3d5ffd5b5061021c925050506001600160a01b03831682610ac2565b60606108bb83835f610b5c565b80471015610aec5760405163cf47918160e01b815247600482015260248101829052604401610982565b5f826001600160a01b0316826040515f6040518083038185875af1925050503d805f8114610b35576040519150601f19603f3d011682016040523d82523d5f602084013e610b3a565b606091505b505090508061070b5760405163d6bda27560e01b815260040160405180910390fd5b606081471015610b885760405163cf47918160e01b815247600482015260248101839052604401610982565b5f5f856001600160a01b03168486604051610ba39190610fbd565b5f6040518083038185875af1925050503d805f8114610bdd576040519150601f19603f3d011682016040523d82523d5f602084013e610be2565b606091505b5091509150610bf2868383610bfc565b9695505050505050565b606082610c1157610c0c82610c58565b6108bb565b8151158015610c2857506001600160a01b0384163b155b15610c5157604051639996b31560e01b81526001600160a01b0385166004820152602401610982565b50806108bb565b805115610c685780518082602001fd5b60405163d6bda27560e01b815260040160405180910390fd5b6001600160a01b03811681146101b8575f5ffd5b5f60208284031215610ca5575f5ffd5b81356108bb81610c81565b80151581146101b8575f5ffd5b5f5f5f5f60808587031215610cd0575f5ffd5b8435610cdb81610c81565b93506020850135610ceb81610c81565b9250604085013591506060850135610d0281610cb0565b939692955090935050565b5f5f60408385031215610d1e575f5ffd5b8235610d2981610c81565b91506020830135610d3981610c81565b809150509250929050565b602081525f82518060208401528060208501604085015e5f604082850101526040601f19601f83011684010191505092915050565b5f60208284031215610d89575f5ffd5b5051919050565b5f60208284031215610da0575f5ffd5b81516108bb81610c81565b604051610220810167ffffffffffffffff81118282101715610ddb57634e487b7160e01b5f52604160045260245ffd5b60405290565b8051610dec81610c81565b919050565b8051610dec81610cb0565b5f6102208284031215610e0d575f5ffd5b610e15610dab565b82518152602080840151908201529050610e3160408301610de1565b6040820152610e4260608301610de1565b6060820152610e5360808301610de1565b6080820152610e6460a08301610de1565b60a0820152610e7560c08301610de1565b60c0820152610e8660e08301610de1565b60e0820152610e986101008301610de1565b610100820152610eab6101208301610de1565b6101208201526101408281015190820152610160808301519082015261018080830151908201526101a080830151908201526101c08083015190820152610ef56101e08301610de1565b6101e0820152610f086102008301610df1565b61020082015292915050565b5f5f6104408385031215610f26575f5ffd5b610f308484610dfc565b9150610f40846102208501610dfc565b90509250929050565b5f5f5f60608486031215610f5b575f5ffd5b8351602085015160408601519194509250610f7581610cb0565b809150509250925092565b5f5f60408385031215610f91575f5ffd5b505080516020909101519092909150565b5f60208284031215610fb2575f5ffd5b81516108bb81610cb0565b5f82518060208501845e5f92019182525091905056fea2646970667358221220961c1591b8dcc410edee103bd79ef11b45d66d05da17be003aafc278500f5df764736f6c634300081c0033",
  "language": "Solidity",
  "compiler": "0.8.28+commit.7893614a"
}