{
  "address": "0x9e64f0CD206cce2Da5dE08E7F482D62F57013D0e",
  "abi": [
    {
      "type": "function",
      "name": "acceptOwnership",
      "inputs": [],
      "outputs": [],
      "stateMutability": "nonpayable"
    },
    {
      "type": "function",
      "name": "afterAction",
      "inputs": [
        {
          "name": "_silo",
          "type": "address",
          "internalType": "address"
        },
        {
          "name": "_action",
          "type": "uint256",
          "internalType": "uint256"
        },
        {
          "name": "_inputAndOutput",
          "type": "bytes",
          "internalType": "bytes"
        }
      ],
      "outputs": [],
      "stateMutability": "nonpayable"
    },
    {
      "type": "function",
      "name": "beforeAction",
      "inputs": [
        {
          "name": "",
          "type": "address",
          "internalType": "address"
        },
        {
          "name": "",
          "type": "uint256",
          "internalType": "uint256"
        },
        {
          "name": "",
          "type": "bytes",
          "internalType": "bytes"
        }
      ],
      "outputs": [],
      "stateMutability": "nonpayable"
    },
    {
      "type": "function",
      "name": "configuredGauges",
      "inputs": [
        {
          "name": "",
          "type": "address",
          "internalType": "contract IShareToken"
        }
      ],
      "outputs": [
        {
          "name": "",
          "type": "address",
          "internalType": "contract ISiloIncentivesController"
        }
      ],
      "stateMutability": "view"
    },
    {
      "type": "function",
      "name": "hookReceiverConfig",
      "inputs": [
        {
          "name": "_silo",
          "type": "address",
          "internalType": "address"
        }
      ],
      "outputs": [
        {
          "name": "hooksBefore",
          "type": "uint24",
          "internalType": "uint24"
        },
        {
          "name": "hooksAfter",
          "type": "uint24",
          "internalType": "uint24"
        }
      ],
      "stateMutability": "view"
    },
    {
      "type": "function",
      "name": "initialize",
      "inputs": [
        {
          "name": "_config",
          "type": "address",
          "internalType": "contract ISiloConfig"
        },
        {
          "name": "_data",
          "type": "bytes",
          "internalType": "bytes"
        }
      ],
      "outputs": [],
      "stateMutability": "nonpayable"
    },
    {
      "type": "function",
      "name": "liquidationCall",
      "inputs": [
        {
          "name": "_collateralAsset",
          "type": "address",
          "internalType": "address"
        },
        {
          "name": "_debtAsset",
          "type": "address",
          "internalType": "address"
        },
        {
          "name": "_borrower",
          "type": "address",
          "internalType": "address"
        },
        {
          "name": "_maxDebtToCover",
          "type": "uint256",
          "internalType": "uint256"
        },
        {
          "name": "_receiveSToken",
          "type": "bool",
          "internalType": "bool"
        }
      ],
      "outputs": [
        {
          "name": "withdrawCollateral",
          "type": "uint256",
          "internalType": "uint256"
        },
        {
          "name": "repayDebtAssets",
          "type": "uint256",
          "internalType": "uint256"
        }
      ],
      "stateMutability": "nonpayable"
    },
    {
      "type": "function",
      "name": "maxLiquidation",
      "inputs": [
        {
          "name": "_borrower",
          "type": "address",
          "internalType": "address"
        }
      ],
      "outputs": [
        {
          "name": "collateralToLiquidate",
          "type": "uint256",
          "internalType": "uint256"
        },
        {
          "name": "debtToRepay",
          "type": "uint256",
          "internalType": "uint256"
        },
        {
          "name": "sTokenRequired",
          "type": "bool",
          "internalType": "bool"
        }
      ],
      "stateMutability": "view"
    },
    {
      "type": "function",
      "name": "owner",
      "inputs": [],
      "outputs": [
        {
          "name": "",
          "type": "address",
          "internalType": "address"
        }
      ],
      "stateMutability": "view"
    },
    {
      "type": "function",
      "name": "pendingOwner",
      "inputs": [],
      "outputs": [
        {
          "name": "",
          "type": "address",
          "internalType": "address"
        }
      ],
      "stateMutability": "view"
    },
    {
      "type": "function",
      "name": "removeGauge",
      "inputs": [
        {
          "name": "_shareToken",
          "type": "address",
          "internalType": "contract IShareToken"
        }
      ],
      "outputs": [],
      "stateMutability": "nonpayable"
    },
    {
      "type": "function",
      "name": "renounceOwnership",
      "inputs": [],
      "outputs": [],
      "stateMutability": "nonpayable"
    },
    {
      "type": "function",
      "name": "setGauge",
      "inputs": [
        {
          "name": "_gauge",
          "type": "address",
          "internalType": "contract ISiloIncentivesController"
        },
        {
          "name": "_shareToken",
          "type": "address",
          "internalType": "contract IShareToken"
        }
      ],
      "outputs": [],
      "stateMutability": "nonpayable"
    },
    {
      "type": "function",
      "name": "siloConfig",
      "inputs": [],
      "outputs": [
        {
          "name": "",
          "type": "address",
          "internalType": "contract ISiloConfig"
        }
      ],
      "stateMutability": "view"
    },
    {
      "type": "function",
      "name": "transferOwnership",
      "inputs": [
        {
          "name": "newOwner",
          "type": "address",
          "internalType": "address"
        }
      ],
      "outputs": [],
      "stateMutability": "nonpayable"
    },
    {
      "type": "function",
      "name": "transferOwnership1Step",
      "inputs": [
        {
          "name": "newOwner",
          "type": "address",
          "internalType": "address"
        }
      ],
      "outputs": [],
      "stateMutability": "nonpayable"
    },
    {
      "type": "event",
      "name": "GaugeConfigured",
      "inputs": [
        {
          "name": "gauge",
          "type": "address",
          "indexed": false,
          "internalType": "address"
        },
        {
          "name": "shareToken",
          "type": "address",
          "indexed": false,
          "internalType": "address"
        }
      ],
      "anonymous": false
    },
    {
      "type": "event",
      "name": "GaugeRemoved",
      "inputs": [
        {
          "name": "shareToken",
          "type": "address",
          "indexed": false,
          "internalType": "address"
        }
      ],
      "anonymous": false
    },
    {
      "type": "event",
      "name": "HookConfigured",
      "inputs": [
        {
          "name": "silo",
          "type": "address",
          "indexed": false,
          "internalType": "address"
        },
        {
          "name": "hooksBefore",
          "type": "uint24",
          "indexed": false,
          "internalType": "uint24"
        },
        {
          "name": "hooksAfter",
          "type": "uint24",
          "indexed": false,
          "internalType": "uint24"
        }
      ],
      "anonymous": false
    },
    {
      "type": "event",
      "name": "Initialized",
      "inputs": [
        {
          "name": "version",
          "type": "uint64",
          "indexed": false,
          "internalType": "uint64"
        }
      ],
      "anonymous": false
    },
    {
      "type": "event",
      "name": "LiquidationCall",
      "inputs": [
        {
          "name": "liquidator",
          "type": "address",
          "indexed": true,
          "internalType": "address"
        },
        {
          "name": "silo",
          "type": "address",
          "indexed": true,
          "internalType": "address"
        },
        {
          "name": "borrower",
          "type": "address",
          "indexed": true,
          "internalType": "address"
        },
        {
          "name": "repayDebtAssets",
          "type": "uint256",
          "indexed": false,
          "internalType": "uint256"
        },
        {
          "name": "withdrawCollateral",
          "type": "uint256",
          "indexed": false,
          "internalType": "uint256"
        },
        {
          "name": "receiveSToken",
          "type": "bool",
          "indexed": false,
          "internalType": "bool"
        }
      ],
      "anonymous": false
    },
    {
      "type": "event",
      "name": "LiquidationStart",
      "inputs": [
        {
          "name": "liquidationType",
          "type": "uint8",
          "indexed": true,
          "internalType": "enum IPartialLiquidation.LiquidationType"
        }
      ],
      "anonymous": false
    },
    {
      "type": "event",
      "name": "OwnershipTransferStarted",
      "inputs": [
        {
          "name": "previousOwner",
          "type": "address",
          "indexed": true,
          "internalType": "address"
        },
        {
          "name": "newOwner",
          "type": "address",
          "indexed": true,
          "internalType": "address"
        }
      ],
      "anonymous": false
    },
    {
      "type": "event",
      "name": "OwnershipTransferred",
      "inputs": [
        {
          "name": "previousOwner",
          "type": "address",
          "indexed": true,
          "internalType": "address"
        },
        {
          "name": "newOwner",
          "type": "address",
          "indexed": true,
          "internalType": "address"
        }
      ],
      "anonymous": false
    },
    {
      "type": "error",
      "name": "AddressEmptyCode",
      "inputs": [
        {
          "name": "target",
          "type": "address",
          "internalType": "address"
        }
      ]
    },
    {
      "type": "error",
      "name": "AlreadyConfigured",
      "inputs": []
    },
    {
      "type": "error",
      "name": "CantRemoveActiveGauge",
      "inputs": []
    },
    {
      "type": "error",
      "name": "EmptyGaugeAddress",
      "inputs": []
    },
    {
      "type": "error",
      "name": "EmptySiloConfig",
      "inputs": []
    },
    {
      "type": "error",
      "name": "FailedCall",
      "inputs": []
    },
    {
      "type": "error",
      "name": "FullLiquidationRequired",
      "inputs": []
    },
    {
      "type": "error",
      "name": "GaugeAlreadyConfigured",
      "inputs": []
    },
    {
      "type": "error",
      "name": "GaugeIsNotConfigured",
      "inputs": []
    },
    {
      "type": "error",
      "name": "InsufficientBalance",
      "inputs": [
        {
          "name": "balance",
          "type": "uint256",
          "internalType": "uint256"
        },
        {
          "name": "needed",
          "type": "uint256",
          "internalType": "uint256"
        }
      ]
    },
    {
      "type": "error",
      "name": "InvalidInitialization",
      "inputs": []
    },
    {
      "type": "error",
      "name": "InvalidShareToken",
      "inputs": []
    },
    {
      "type": "error",
      "name": "NoCollateralToLiquidate",
      "inputs": []
    },
    {
      "type": "error",
      "name": "NoDebtToCover",
      "inputs": []
    },
    {
      "type": "error",
      "name": "NoRepayAssets",
      "inputs": []
    },
    {
      "type": "error",
      "name": "NotInitializing",
      "inputs": []
    },
    {
      "type": "error",
      "name": "OnlySilo",
      "inputs": []
    },
    {
      "type": "error",
      "name": "OnlySiloOrShareToken",
      "inputs": []
    },
    {
      "type": "error",
      "name": "OwnableInvalidOwner",
      "inputs": [
        {
          "name": "owner",
          "type": "address",
          "internalType": "address"
        }
      ]
    },
    {
      "type": "error",
      "name": "OwnableUnauthorizedAccount",
      "inputs": [
        {
          "name": "account",
          "type": "address",
          "internalType": "address"
        }
      ]
    },
    {
      "type": "error",
      "name": "OwnerIsZeroAddress",
      "inputs": []
    },
    {
      "type": "error",
      "name": "ReentrancyGuardReentrantCall",
      "inputs": []
    },
    {
      "type": "error",
      "name": "RequestNotSupported",
      "inputs": []
    },
    {
      "type": "error",
      "name": "SafeERC20FailedOperation",
      "inputs": [
        {
          "name": "token",
          "type": "address",
          "internalType": "address"
        }
      ]
    },
    {
      "type": "error",
      "name": "UnexpectedCollateralToken",
      "inputs": []
    },
    {
      "type": "error",
      "name": "UnexpectedDebtToken",
      "inputs": []
    },
    {
      "type": "error",
      "name": "UnknownRatio",
      "inputs": []
    },
    {
      "type": "error",
      "name": "UserIsSolvent",
      "inputs": []
    },
    {
      "type": "error",
      "name": "WrongGaugeShareToken",
      "inputs": []
    }
  ],
  "bytecode": "0x608060405234801561000f575f5ffd5b50338061001a610061565b6001600160a01b03811661004757604051631e4fbdf760e01b81525f600482015260240160405180910390fd5b61005081610113565b5061005c90505f610113565b610178565b7ff0c57e16840df040f15088dc2f81fe391c3923bec73e23a9662efc9c229c6a00805468010000000000000000900460ff16156100b15760405163f92ee8a960e01b815260040160405180910390fd5b80546001600160401b03908116146101105780546001600160401b0319166001600160401b0390811782556040519081527fc7f505b2f371ae2175ee4913f4499e1f2633a7b5936321eed1cdaeb6115181d29060200160405180910390a15b50565b600380546001600160a01b031916905561011081600280546001600160a01b038381166001600160a01b0319831681179093556040519116919082907f8be0079c531659141344cd1fd0a4f28419497f9722a3daafe3b4186f6b6457e0905f90a35050565b612b23806101855f395ff3fe608060405234801561000f575f5ffd5b50600436106100fa575f3560e01c8063aef2823511610093578063e1b9713911610063578063e1b971391461022b578063e30c39781461023e578063e4784fa91461024f578063f2fde38b146102b9575f5ffd5b8063aef28235146101c3578063bd02d848146101d6578063d1f5789414610206578063d714fd1914610219575f5ffd5b8063715018a6116100ce578063715018a61461016657806379ba50971461016e5780638da5cb5b14610176578063a37d94111461019b575f5ffd5b8062a718a9146100fe578063237e6d641461012b57806335cb1099146101405780633a04514514610153575b5f5ffd5b61011161010c366004612272565b6102cc565b604080519283526020830191909152015b60405180910390f35b61013e6101393660046122d6565b610818565b005b61013e61014e366004612352565b610a55565b61013e6101613660046123aa565b610a94565b61013e610b31565b61013e610b44565b6002546001600160a01b03165b6040516001600160a01b039091168152602001610122565b6101836101a93660046123aa565b60046020525f90815260409020546001600160a01b031681565b61013e6101d1366004612352565b610b8d565b6101e96101e43660046123aa565b610bc5565b604080519384526020840192909252151590820152606001610122565b61013e6102143660046123c5565b610c5c565b5f54610183906001600160a01b031681565b61013e6102393660046123aa565b610d85565b6003546001600160a01b0316610183565b61029d61025d3660046123aa565b6001600160a01b03165f9081526001602090815260409182902082518084019093525462ffffff8082168085526301000000909204169290910182905291565b6040805162ffffff938416815292909116602083015201610122565b61013e6102c73660046123aa565b610db6565b5f8060ff815c16156102f157604051633ee5aeb560e01b815260040160405180910390fd5b60015f805c60ff19168217905d505f6040517fb59c4a578f1cf03f75770e14b8cbc94d58157d6f0be1fd91afc8416836b1ca10905f90a25f546001600160a01b031680610351576040516379c39cf960e01b815260040160405180910390fd5b845f03610371576040516317ff0e0960e11b815260040160405180910390fd5b806001600160a01b0316639dd413306040518163ffffffff1660e01b81526004015f604051808303815f87803b1580156103a9575f5ffd5b505af11580156103bb573d5f5f3e3d5ffd5b505050505f5f6103cd838b8b8b610e27565b915091506104086040518060a001604052805f81526020015f81526020015f81526020015f81526020015f6001600160e01b03191681525090565b6101a0830151604051636da707db60e01b815273__$13ae51f56eab8417585cbbba140ac4e457$__91636da707db9161044c91879187918f918f9190600401612582565b608060405180830381865af4158015610467573d5f5f3e3d5ffd5b505050506040513d601f19601f8201168201806040525081019061048b91906125c7565b6001600160e01b03191660808501819052606085019290925260408401929092529095506104b890611044565b878511156104d95760405163d65db62d60e01b815260040160405180910390fd5b60608201516104f3906001600160a01b0316333088611061565b61051982604001518684606001516001600160a01b03166110c89092919063ffffffff16565b5f876105255730610527565b335b905061054484604001518b8385604001518860a00151600161114f565b825260408401516060830151608086015161056592918d918591905f61114f565b826020018181525050846001600160a01b03166362402b046040518163ffffffff1660e01b81526004015f604051808303815f87803b1580156105a6575f5ffd5b505af11580156105b8573d5f5f3e3d5ffd5b505050604080850151905163acb7081560e01b8152600481018990526001600160a01b038d81166024830152909116915063acb70815906044016020604051808303815f875af115801561060e573d5f5f3e3d5ffd5b505050506040513d601f19601f820116820180604052508101906106329190612613565b5081511515806106455750602082015115155b6106625760405163797c40e160e01b815260040160405180910390fd5b8715610770578151156106e7576040808501518351915163a7d6e44b60e01b81526001600160a01b039091169163a7d6e44b916106a5919060019060040161263e565b602060405180830381865afa1580156106c0573d5f5f3e3d5ffd5b505050506040513d601f19601f820116820180604052508101906106e49190612613565b96505b60208201511561076b5783604001516001600160a01b031663a7d6e44b83602001515f6040518363ffffffff1660e01b815260040161072792919061263e565b602060405180830381865afa158015610742573d5f5f3e3d5ffd5b505050506040513d601f19601f820116820180604052508101906107669190612613565b870196505b6107a7565b61078884604001518560a00151845f015160016112b4565b96506107a28460400151856080015184602001515f6112b4565b870196505b6040838101518151888152602081018a90528a15158184015291516001600160a01b038d81169392169133917f3a84f64446e8eada995aa9da2ddbfcd9b5d5d650503b19f024096d04c05ef2a99181900360600190a4505f93505050815c60ff19169050815d509550959350505050565b61082061140d565b6001600160a01b0382166108475760405163d1af83ef60e01b815260040160405180910390fd5b806001600160a01b0316826001600160a01b0316631d7e35566040518163ffffffff1660e01b8152600401602060405180830381865afa15801561088d573d5f5f3e3d5ffd5b505050506040513d601f19601f820116820180604052508101906108b19190612662565b6001600160a01b0316146108d85760405163060a0aaf60e41b815260040160405180910390fd5b6001600160a01b038082165f908152600460205260409020541680156109115760405163d0c7225560e01b815260040160405180910390fd5b5f826001600160a01b031663eb3beb296040518163ffffffff1660e01b8152600401602060405180830381865afa15801561094e573d5f5f3e3d5ffd5b505050506040513d601f19601f820116820180604052508101906109729190612662565b90505f61097f828561143a565b6001600160a01b0383165f90815260016020526040812054919250906301000000900462ffffff16905061040082176109b782821790565b91506109e6846109e0866001600160a01b03165f9081526001602052604090205462ffffff1690565b84611543565b6001600160a01b038681165f8181526004602090815260409182902080546001600160a01b031916948c16948517905581519384528301919091527f213d54ca7d6adb897962b4f78f6c2424aa527ee584f57a6000f961c507e0ec27910160405180910390a150505050505050565b610a5e33611626565b610a7b576040516310528c6d60e11b815260040160405180910390fd5b604051632a188cb160e21b815260040160405180910390fd5b610a9c61140d565b6001600160a01b038082165f908152600460205260409020541680610ad457604051632e77844760e21b815260040160405180910390fd5b6001600160a01b0382165f8181526004602090815260409182902080546001600160a01b031916905590519182527f94ac12f5301759f065db9de7f23677e50bef009f062b028d4d4612f620f0f5fb910160405180910390a15050565b610b3961140d565b610b425f6116cd565b565b60035433906001600160a01b03168114610b815760405163118cdaa760e01b81526001600160a01b03821660048201526024015b60405180910390fd5b610b8a816116cd565b50565b610b96336116e6565b610bb3576040516358ec9b7760e11b815260040160405180910390fd5b610bbf848484846118fd565b50505050565b5f8054604051631c2b1ded60e01b81526001600160a01b03918216600482015290831660248201528190819073__$13ae51f56eab8417585cbbba140ac4e457$__90631c2b1ded90604401606060405180830381865af4158015610c2b573d5f5f3e3d5ffd5b505050506040513d601f19601f82011682018060405250810190610c4f9190612688565b9250925092509193909250565b7ff0c57e16840df040f15088dc2f81fe391c3923bec73e23a9662efc9c229c6a008054600160401b810460ff16159067ffffffffffffffff165f81158015610ca15750825b90505f8267ffffffffffffffff166001148015610cbd5750303b155b905081158015610ccb575080155b15610ce95760405163f92ee8a960e01b815260040160405180910390fd5b845467ffffffffffffffff191660011785558315610d1357845460ff60401b1916600160401b1785555b5f610d20878901896123aa565b9050610d2b89611a3c565b610d3481611ab5565b508315610d7b57845460ff60401b19168555604051600181527fc7f505b2f371ae2175ee4913f4499e1f2633a7b5936321eed1cdaeb6115181d29060200160405180910390a15b5050505050505050565b610d8d61140d565b6001600160a01b038116610b8157604051631e4fbdf760e01b81525f6004820152602401610b78565b610dbe61140d565b600380546001600160a01b0383166001600160a01b03199091168117909155610def6002546001600160a01b031690565b6001600160a01b03167f38d16b8cac22d99fc7c124b9cd0de2d3fa1faef420bfe791d8c362d765e2270060405160405180910390a350565b610e2f6121c6565b610e376121c6565b6040516394c0527d60e01b81526001600160a01b0384811660048301528716906394c0527d9060240161044060405180830381865afa158015610e7c573d5f5f3e3d5ffd5b505050506040513d601f19601f82011682018060405250810190610ea0919061280d565b604081015191935091506001600160a01b0316610ed057604051632f13551560e11b815260040160405180910390fd5b81606001516001600160a01b0316856001600160a01b031614610f065760405163055692d760e21b815260040160405180910390fd5b80606001516001600160a01b0316846001600160a01b031614610f3c5760405163129e080d60e21b815260040160405180910390fd5b80604001516001600160a01b031663a6afed956040518163ffffffff1660e01b81526004016020604051808303815f875af1158015610f7d573d5f5f3e3d5ffd5b505050506040513d601f19601f82011682018060405250810190610fa19190612613565b5080604001516001600160a01b031682604001516001600160a01b03161461103b5781604001516001600160a01b031663a6afed956040518163ffffffff1660e01b81526004016020604051808303815f875af1158015611004573d5f5f3e3d5ffd5b505050506040513d601f19601f820116820180604052508101906110289190612613565b5061103282611ae4565b61103b81611ae4565b94509492505050565b6001600160e01b031981165f036110585750565b610b8a81611b6a565b6040516001600160a01b038481166024830152838116604483015260648201839052610bbf9186918216906323b872dd906084015b604051602081830303815290604052915060e01b6020820180516001600160e01b038381831617835250505050611b9b565b604051636eb1769f60e11b81523060048201526001600160a01b0383811660248301525f919085169063dd62ed3e90604401602060405180830381865afa158015611115573d5f5f3e3d5ffd5b505050506040513d601f19601f820116820180604052508101906111399190612613565b9050610bbf848461114a8585612856565b611c01565b5f835f0361115e57505f6112aa565b61123484886001600160a01b031663b6d821c7856040518263ffffffff1660e01b815260040161118e9190612869565b602060405180830381865afa1580156111a9573d5f5f3e3d5ffd5b505050506040513d601f19601f820116820180604052508101906111cd9190612613565b856001600160a01b03166318160ddd6040518163ffffffff1660e01b8152600401602060405180830381865afa158015611209573d5f5f3e3d5ffd5b505050506040513d601f19601f8201168201806040525081019061122d9190612613565b5f86611c90565b9050805f0361124457505f6112aa565b604051633661585b60e21b81526001600160a01b03878116600483015286811660248301526044820183905284169063d985616c906064015f604051808303815f87803b158015611293575f5ffd5b505af11580156112a5573d5f5f3e3d5ffd5b505050505b9695505050505050565b5f825f036112c357505f611405565b6040516306d29bb360e51b81526001600160a01b0386169063da537660906112f5908690339030908890600401612883565b6020604051808303815f875af192505050801561132f575060408051601f3d908101601f1916820190925261132c91810190612613565b60015b611402573d80801561135c576040519150601f19603f3d011682016040523d82523d5f602084013e611361565b606091505b5061136b81611ccd565b156113e45760405163a9059cbb60e01b8152336004820152602481018590526001600160a01b0386169063a9059cbb906044016020604051808303815f875af11580156113ba573d5f5f3e3d5ffd5b505050506040513d601f19601f820116820180604052508101906113de91906128ae565b506113fc565b6113fc8160405180602001604052805f815250611cfc565b50611405565b90505b949350505050565b6002546001600160a01b03163314610b425760405163118cdaa760e01b8152336004820152602401610b78565b5f8054604051630483b24f60e41b81526001600160a01b0385811660048301528392839283929091169063483b24f090602401606060405180830381865afa158015611488573d5f5f3e3d5ffd5b505050506040513d601f19601f820116820180604052508101906114ac91906128c9565b925092509250816001600160a01b0316856001600160a01b0316036114d857610800935050505061153d565b826001600160a01b0316856001600160a01b0316036114fe57611000935050505061153d565b806001600160a01b0316856001600160a01b03160361152457612000935050505061153d565b60405163d938fa3760e01b815260040160405180910390fd5b92915050565b60408051808201825262ffffff84811680835284821660208085018281526001600160a01b038a165f81815260018452889020965187549251871663010000000265ffffffffffff1990931696169590951717909455845192835292820152918201527f1c26a8451bc890d476a0e7bb8310f00750604879bb30d4813a7718a1ee089fa69060600160405180910390a1826001600160a01b031663cad1aacf6040518163ffffffff1660e01b81526004015f604051808303815f87803b15801561160b575f5ffd5b505af115801561161d573d5f5f3e3d5ffd5b50505050505050565b5f80546040805163aecc90cb60e01b81528151849384936001600160a01b039091169263aecc90cb92600480830193928290030181865afa15801561166d573d5f5f3e3d5ffd5b505050506040513d601f19601f820116820180604052508101906116919190612908565b91509150816001600160a01b0316846001600160a01b031614806114055750806001600160a01b0316846001600160a01b031614949350505050565b600380546001600160a01b0319169055610b8a81611d25565b5f80546040805163aecc90cb60e01b81528151849384936001600160a01b039091169263aecc90cb92600480830193928290030181865afa15801561172d573d5f5f3e3d5ffd5b505050506040513d601f19601f820116820180604052508101906117519190612908565b91509150816001600160a01b0316846001600160a01b031614806117865750806001600160a01b0316846001600160a01b0316145b15611795575060019392505050565b5f8054604051630483b24f60e41b81526001600160a01b0385811660048301528392169063483b24f090602401606060405180830381865afa1580156117dd573d5f5f3e3d5ffd5b505050506040513d601f19601f8201168201806040525081019061180191906128c9565b919350909150506001600160a01b0386811690831614806118335750806001600160a01b0316866001600160a01b0316145b156118445750600195945050505050565b5f54604051630483b24f60e41b81526001600160a01b0385811660048301529091169063483b24f090602401606060405180830381865afa15801561188b573d5f5f3e3d5ffd5b505050506040513d601f19601f820116820180604052508101906118af91906128c9565b919350909150506001600160a01b0386811690831614806118e15750806001600160a01b0316866001600160a01b0316145b156118f25750600195945050505050565b505f95945050505050565b335f908152600460205260409020546001600160a01b0316806119205750610bbf565b6119558461194f876001600160a01b03165f9081526001602052604090205462ffffff63010000009091041690565b81161490565b61195f5750610bbf565b5f61199e84848080601f0160208091040260200160405190810160405280939291908181526020018383808284375f92019190915250611d7692505050565b805160608201516020830151608084015160a0850151604080870151905163bbdc013b60e01b81526001600160a01b039687166004820152602481019590955292851660448501526064840191909152608483015260a482015291925083169063bbdc013b9060c4015f604051808303815f87803b158015611a1e575f5ffd5b505af1158015611a30573d5f5f3e3d5ffd5b50505050505050505050565b611a44611e1a565b6001600160a01b038116611a6b576040516379c39cf960e01b815260040160405180910390fd5b5f546001600160a01b031615611a94576040516308db0db560e11b815260040160405180910390fd5b5f80546001600160a01b0319166001600160a01b0392909216919091179055565b611abd611e1a565b6001600160a01b038116610b81576040516354a4010f60e01b815260040160405180910390fd5b8061020001518015611b02575060e08101516001600160a01b031615155b15610b8a5760e08101516060820151604051637cfd30cd60e11b81526001600160a01b03918216600482015291169063f9fa619a906024015f604051808303815f87803b158015611b51575f5ffd5b505af1158015611b63573d5f5f3e3d5ffd5b5050505050565b6040805160048152602481019091526020810180516001600160e01b03166001600160e01b03198416178152815190fd5b5f611baf6001600160a01b03841683611e63565b905080515f14158015611bd3575080806020019051810190611bd191906128ae565b155b15611bfc57604051635274afe760e01b81526001600160a01b0384166004820152602401610b78565b505050565b604080516001600160a01b038416602482015260448082018490528251808303909101815260649091019091526020810180516001600160e01b031663095ea7b360e01b179052611c528482611e77565b610bbf576040516001600160a01b0384811660248301525f6044830152611c8691869182169063095ea7b390606401611096565b610bbf8482611b9b565b5f5f5f611c9e878786611f14565b91509150815f03611cb3578792505050611cc4565b611cbf88838388611f6f565b925050505b95945050505050565b5f8151600414801561153d575063284fe51560e01b611ceb83612935565b6001600160e01b0319161492915050565b815115611d0b57815182602001fd5b8060405162461bcd60e51b8152600401610b789190612973565b600280546001600160a01b038381166001600160a01b0319831681179093556040519116919082907f8be0079c531659141344cd1fd0a4f28419497f9722a3daafe3b4186f6b6457e0905f90a35050565b611dbb6040518060c001604052805f6001600160a01b031681526020015f6001600160a01b031681526020015f81526020015f81526020015f81526020015f81525090565b506014810151602882015160488301516068840151608885015160a8909501516040805160c0810182526001600160a01b039687168152959094166020860152928401919091526060830152608082019290925260a081019190915290565b7ff0c57e16840df040f15088dc2f81fe391c3923bec73e23a9662efc9c229c6a0054600160401b900460ff16610b4257604051631afcd79f60e31b815260040160405180910390fd5b6060611e7083835f611fb1565b9392505050565b5f5f5f846001600160a01b031684604051611e9291906129a8565b5f604051808303815f865af19150503d805f8114611ecb576040519150601f19603f3d011682016040523d82523d5f602084013e611ed0565b606091505b5091509150818015611efa575080511580611efa575080806020019051810190611efa91906128ae565b8015611cc45750505050506001600160a01b03163b151590565b5f5f835f03611f21575f94505b6002836002811115611f3557611f35612416565b14611f6057611f466003600a612aa1565b611f509085612856565b611f5b866001612856565b611f63565b83855b90969095509350505050565b5f611f9c611f7c83612047565b8015611f9757505f8480611f9257611f92612aac565b868809115b151590565b611fa7868686612073565b6114029190612856565b606081471015611fdd5760405163cf47918160e01b815247600482015260248101839052604401610b78565b5f5f856001600160a01b03168486604051611ff891906129a8565b5f6040518083038185875af1925050503d805f8114612032576040519150601f19603f3d011682016040523d82523d5f602084013e612037565b606091505b50915091506112aa868383612130565b5f600282600381111561205c5761205c612416565b6120669190612ac0565b60ff166001149050919050565b5f838302815f1985870982811083820303915050805f036120a75783828161209d5761209d612aac565b0492505050611e70565b8084116120c5576120c584156120be57601161218c565b601261218c565b5f848688095f868103871696879004966002600389028118808a02820302808a02820302808a02820302808a02820302808a02820302808a02909103029181900381900460010186841190950394909402919094039290920491909117919091029150509392505050565b606082612145576121408261219d565b611e70565b815115801561215c57506001600160a01b0384163b155b1561218557604051639996b31560e01b81526001600160a01b0385166004820152602401610b78565b5080611e70565b634e487b715f52806020526024601cfd5b8051156121ad5780518082602001fd5b60405163d6bda27560e01b815260040160405180910390fd5b60408051610220810182525f80825260208201819052918101829052606081018290526080810182905260a0810182905260c0810182905260e08101829052610100810182905261012081018290526101408101829052610160810182905261018081018290526101a081018290526101c081018290526101e0810182905261020081019190915290565b6001600160a01b0381168114610b8a575f5ffd5b8015158114610b8a575f5ffd5b5f5f5f5f5f60a08688031215612286575f5ffd5b853561229181612251565b945060208601356122a181612251565b935060408601356122b181612251565b92506060860135915060808601356122c881612265565b809150509295509295909350565b5f5f604083850312156122e7575f5ffd5b82356122f281612251565b9150602083013561230281612251565b809150509250929050565b5f5f83601f84011261231d575f5ffd5b50813567ffffffffffffffff811115612334575f5ffd5b60208301915083602082850101111561234b575f5ffd5b9250929050565b5f5f5f5f60608587031215612365575f5ffd5b843561237081612251565b935060208501359250604085013567ffffffffffffffff811115612392575f5ffd5b61239e8782880161230d565b95989497509550505050565b5f602082840312156123ba575f5ffd5b8135611e7081612251565b5f5f5f604084860312156123d7575f5ffd5b83356123e281612251565b9250602084013567ffffffffffffffff8111156123fd575f5ffd5b6124098682870161230d565b9497909650939450505050565b634e487b7160e01b5f52602160045260245ffd5b8051825260208101516020830152604081015161245260408401826001600160a01b03169052565b50606081015161246d60608401826001600160a01b03169052565b50608081015161248860808401826001600160a01b03169052565b5060a08101516124a360a08401826001600160a01b03169052565b5060c08101516124be60c08401826001600160a01b03169052565b5060e08101516124d960e08401826001600160a01b03169052565b506101008101516124f66101008401826001600160a01b03169052565b506101208101516125136101208401826001600160a01b03169052565b506101408101516101408301526101608101516101608301526101808101516101808301526101a08101516101a08301526101c08101516101c08301526101e081015161256c6101e08401826001600160a01b03169052565b50610200810151611bfc61020084018215159052565b6104a08101612591828861242a565b61259f61022083018761242a565b6001600160a01b03949094166104408201526104608101929092526104809091015292915050565b5f5f5f5f608085870312156125da575f5ffd5b845160208601516040870151606088015192965090945092506001600160e01b031981168114612608575f5ffd5b939692955090935050565b5f60208284031215612623575f5ffd5b5051919050565b6002811061263a5761263a612416565b9052565b82815260408101611e70602083018461262a565b805161265d81612251565b919050565b5f60208284031215612672575f5ffd5b8151611e7081612251565b805161265d81612265565b5f5f5f6060848603121561269a575f5ffd5b83516020850151604086015191945092506126b481612265565b809150509250925092565b604051610220810167ffffffffffffffff811182821017156126ef57634e487b7160e01b5f52604160045260245ffd5b60405290565b5f6102208284031215612706575f5ffd5b61270e6126bf565b8251815260208084015190820152905061272a60408301612652565b604082015261273b60608301612652565b606082015261274c60808301612652565b608082015261275d60a08301612652565b60a082015261276e60c08301612652565b60c082015261277f60e08301612652565b60e08201526127916101008301612652565b6101008201526127a46101208301612652565b6101208201526101408281015190820152610160808301519082015261018080830151908201526101a080830151908201526101c080830151908201526127ee6101e08301612652565b6101e0820152612801610200830161267d565b61020082015292915050565b5f5f610440838503121561281f575f5ffd5b61282984846126f5565b91506128398461022085016126f5565b90509250929050565b634e487b7160e01b5f52601160045260245ffd5b8082018082111561153d5761153d612842565b602081016003831061287d5761287d612416565b91905290565b8481526001600160a01b0384811660208301528316604082015260808101611cc4606083018461262a565b5f602082840312156128be575f5ffd5b8151611e7081612265565b5f5f5f606084860312156128db575f5ffd5b83516128e681612251565b60208501519093506128f781612251565b60408501519092506126b481612251565b5f5f60408385031215612919575f5ffd5b825161292481612251565b602084015190925061230281612251565b805160208201516001600160e01b031981169190600482101561296c576001600160e01b0319600483900360031b81901b82161692505b5050919050565b602081525f82518060208401528060208501604085015e5f604082850101526040601f19601f83011684010191505092915050565b5f82518060208501845e5f920191825250919050565b6001815b60018411156129f9578085048111156129dd576129dd612842565b60018416156129eb57908102905b60019390931c9280026129c2565b935093915050565b5f82612a0f5750600161153d565b81612a1b57505f61153d565b8160018114612a315760028114612a3b57612a57565b600191505061153d565b60ff841115612a4c57612a4c612842565b50506001821b61153d565b5060208310610133831016604e8410600b8410161715612a7a575081810a61153d565b612a865f1984846129be565b805f1904821115612a9957612a99612842565b029392505050565b5f611e708383612a01565b634e487b7160e01b5f52601260045260245ffd5b5f60ff831680612ade57634e487b7160e01b5f52601260045260245ffd5b8060ff8416069150509291505056fea2646970667358221220319c4dedd0d99fb037e60fab369379c93c54f5316b9b5806a14364871a11a7dd64736f6c634300081c0033",
  "language": "Solidity",
  "compiler": "0.8.28+commit.7893614a"
}