{
  "address": "0x9bdB68Da3F157333ec98Acc3ca511Eb3f2FeA0e1",
  "abi": [
    {
      "type": "constructor",
      "inputs": [
        {
          "name": "_config",
          "type": "tuple",
          "internalType": "struct IChainlinkV3Oracle.ChainlinkV3DeploymentConfig",
          "components": [
            {
              "name": "baseToken",
              "type": "address",
              "internalType": "contract IERC20Metadata"
            },
            {
              "name": "quoteToken",
              "type": "address",
              "internalType": "contract IERC20Metadata"
            },
            {
              "name": "primaryAggregator",
              "type": "address",
              "internalType": "contract AggregatorV3Interface"
            },
            {
              "name": "primaryHeartbeat",
              "type": "uint32",
              "internalType": "uint32"
            },
            {
              "name": "secondaryAggregator",
              "type": "address",
              "internalType": "contract AggregatorV3Interface"
            },
            {
              "name": "secondaryHeartbeat",
              "type": "uint32",
              "internalType": "uint32"
            },
            {
              "name": "normalizationDivider",
              "type": "uint256",
              "internalType": "uint256"
            },
            {
              "name": "normalizationMultiplier",
              "type": "uint256",
              "internalType": "uint256"
            },
            {
              "name": "invertSecondPrice",
              "type": "bool",
              "internalType": "bool"
            }
          ]
        }
      ],
      "stateMutability": "nonpayable"
    },
    {
      "type": "function",
      "name": "getConfig",
      "inputs": [],
      "outputs": [
        {
          "name": "config",
          "type": "tuple",
          "internalType": "struct IChainlinkV3Oracle.ChainlinkV3Config",
          "components": [
            {
              "name": "primaryAggregator",
              "type": "address",
              "internalType": "contract AggregatorV3Interface"
            },
            {
              "name": "secondaryAggregator",
              "type": "address",
              "internalType": "contract AggregatorV3Interface"
            },
            {
              "name": "primaryHeartbeat",
              "type": "uint256",
              "internalType": "uint256"
            },
            {
              "name": "secondaryHeartbeat",
              "type": "uint256",
              "internalType": "uint256"
            },
            {
              "name": "normalizationDivider",
              "type": "uint256",
              "internalType": "uint256"
            },
            {
              "name": "normalizationMultiplier",
              "type": "uint256",
              "internalType": "uint256"
            },
            {
              "name": "baseToken",
              "type": "address",
              "internalType": "contract IERC20Metadata"
            },
            {
              "name": "quoteToken",
              "type": "address",
              "internalType": "contract IERC20Metadata"
            },
            {
              "name": "convertToQuote",
              "type": "bool",
              "internalType": "bool"
            },
            {
              "name": "invertSecondPrice",
              "type": "bool",
              "internalType": "bool"
            }
          ]
        }
      ],
      "stateMutability": "view"
    }
  ],
  "bytecode": "0x6101c0604052348015610010575f5ffd5b506040516104fd3803806104fd83398101604081905261002f9161011d565b80516020820151606083015160c08085015160e08087015160a09283529092526001600160a01b0394851690915291831661010090815263ffffffff918216608090815260408601518516610120528501805185166101405292850151909116610160529051909116151561018052015115156101a0526101c6565b60405161012081016001600160401b03811182821017156100da57634e487b7160e01b5f52604160045260245ffd5b60405290565b80516001600160a01b03811681146100f6575f5ffd5b919050565b805163ffffffff811681146100f6575f5ffd5b805180151581146100f6575f5ffd5b5f61012082840312801561012f575f5ffd5b506101386100ab565b610141836100e0565b815261014f602084016100e0565b6020820152610160604084016100e0565b6040820152610171606084016100fb565b6060820152610182608084016100e0565b608082015261019360a084016100fb565b60a082015260c0838101519082015260e080840151908201526101b9610100840161010e565b6101008201529392505050565b60805160a05160c05160e05161010051610120516101405161016051610180516101a0516102cd6102305f395f61019e01525f61017501525f60b401525f606701525f604201525f61014e01525f61012601525f61010001525f60da01525f608f01526102cd5ff3fe608060405234801561000f575f5ffd5b5060043610610029575f3560e01c8063c3f909d41461002d575b5f5ffd5b60408051610140810182526001600160a01b037f0000000000000000000000000000000000000000000000000000000000000000811682527f0000000000000000000000000000000000000000000000000000000000000000811660208301527f0000000000000000000000000000000000000000000000000000000000000000828401527f000000000000000000000000000000000000000000000000000000000000000060608301527f000000000000000000000000000000000000000000000000000000000000000060808301527f000000000000000000000000000000000000000000000000000000000000000060a08301527f0000000000000000000000000000000000000000000000000000000000000000811660c08301527f00000000000000000000000000000000000000000000000000000000000000001660e08201527f000000000000000000000000000000000000000000000000000000000000000015156101008201527f0000000000000000000000000000000000000000000000000000000000000000151561012082015290516101d191906101da565b60405180910390f35b81516001600160a01b031681526101408101602083015161020660208401826001600160a01b03169052565b5060408301516040830152606083015160608301526080830151608083015260a083015160a083015260c083015161024960c08401826001600160a01b03169052565b5060e083015161026460e08401826001600160a01b03169052565b5061010083015161027a61010084018215159052565b5061012083015161029061012084018215159052565b509291505056fea2646970667358221220863901569025c3d775facf7007c2cc180b0018d3d13cf4b907988146969b8b7b64736f6c634300081c0033",
  "language": "Solidity",
  "compiler": "0.8.28+commit.7893614a"
}