{
  "address": "0x3A2B2A1F1fA3E33dbCbf7DC7bB8147C924806DFd",
  "abi": [
    {
      "type": "constructor",
      "inputs": [],
      "stateMutability": "nonpayable"
    },
    {
      "type": "function",
      "name": "ORACLE_IMPLEMENTATION",
      "inputs": [],
      "outputs": [
        {
          "name": "",
          "type": "address",
          "internalType": "address"
        }
      ],
      "stateMutability": "view"
    },
    {
      "type": "function",
      "name": "create",
      "inputs": [
        {
          "name": "_price",
          "type": "uint256",
          "internalType": "uint256"
        },
        {
          "name": "_baseToken",
          "type": "address",
          "internalType": "address"
        },
        {
          "name": "_quoteToken",
          "type": "address",
          "internalType": "address"
        },
        {
          "name": "_externalSalt",
          "type": "bytes32",
          "internalType": "bytes32"
        }
      ],
      "outputs": [
        {
          "name": "oracle",
          "type": "address",
          "internalType": "contract ISiloOracle"
        }
      ],
      "stateMutability": "nonpayable"
    },
    {
      "type": "function",
      "name": "createdInFactory",
      "inputs": [
        {
          "name": "",
          "type": "address",
          "internalType": "address"
        }
      ],
      "outputs": [
        {
          "name": "",
          "type": "bool",
          "internalType": "bool"
        }
      ],
      "stateMutability": "view"
    },
    {
      "type": "function",
      "name": "nonces",
      "inputs": [
        {
          "name": "owner",
          "type": "address",
          "internalType": "address"
        }
      ],
      "outputs": [
        {
          "name": "",
          "type": "uint256",
          "internalType": "uint256"
        }
      ],
      "stateMutability": "view"
    },
    {
      "type": "event",
      "name": "FlatPriceOracleCreated",
      "inputs": [
        {
          "name": "oracle",
          "type": "address",
          "indexed": true,
          "internalType": "contract ISiloOracle"
        }
      ],
      "anonymous": false
    },
    {
      "type": "error",
      "name": "FailedDeployment",
      "inputs": []
    },
    {
      "type": "error",
      "name": "InsufficientBalance",
      "inputs": [
        {
          "name": "balance",
          "type": "uint256",
          "internalType": "uint256"
        },
        {
          "name": "needed",
          "type": "uint256",
          "internalType": "uint256"
        }
      ]
    },
    {
      "type": "error",
      "name": "InvalidAccountNonce",
      "inputs": [
        {
          "name": "account",
          "type": "address",
          "internalType": "address"
        },
        {
          "name": "currentNonce",
          "type": "uint256",
          "internalType": "uint256"
        }
      ]
    }
  ],
  "bytecode": "0x60a0604052348015600e575f5ffd5b506040516019906042565b604051809103905ff0801580156031573d5f5f3e3d5ffd5b506001600160a01b0316608052604f565b610c4e8061041583390190565b6080516103a861006d5f395f8181608e015261010e01526103a85ff3fe608060405234801561000f575f5ffd5b506004361061004a575f3560e01c80637ecebe001461004e578063a8f39f6614610089578063b32d705b146100c8578063cc88a173146100fa575b5f5ffd5b61007661005c366004610318565b6001600160a01b03165f9081526020819052604090205490565b6040519081526020015b60405180910390f35b6100b07f000000000000000000000000000000000000000000000000000000000000000081565b6040516001600160a01b039091168152602001610080565b6100ea6100d6366004610318565b60016020525f908152604090205460ff1681565b6040519015158152602001610080565b6100b0610108366004610331565b5f6101997f000000000000000000000000000000000000000000000000000000000000000061019484335f81815260208190526040812080546001810190915590919060405160609290921b6bffffffffffffffffffffffff19166020830152603482015260548101839052607401604051602081830303815290604052805190602001209050919050565b610255565b604051630b4988fd60e41b8152600481018790526001600160a01b03868116602483015285811660448301529192509082169063b4988fd0906064015f604051808303815f87803b1580156101ec575f5ffd5b505af11580156101fe573d5f5f3e3d5ffd5b505050506001600160a01b0381165f818152600160208190526040808320805460ff1916909217909155517f989d033ee70df1062ddad40591e74741adc89ac01af650739144c312d63bfcb79190a2949350505050565b5f61026183835f610268565b9392505050565b5f814710156102975760405163cf47918160e01b81524760048201526024810183905260440160405180910390fd5b6e5af43d82803e903d91602b57fd5bf360205283601152763d602d80600a3d3981f3363d3d373d3d3d363d730000008460881c175f52826037600984f590506001600160a01b0381166102615760405163b06ebf3d60e01b815260040160405180910390fd5b80356001600160a01b0381168114610313575f5ffd5b919050565b5f60208284031215610328575f5ffd5b610261826102fd565b5f5f5f5f60808587031215610344575f5ffd5b84359350610354602086016102fd565b9250610362604086016102fd565b939692955092936060013592505056fea2646970667358221220b49dee62fc73aec69d9c1b50bbb2fcbb130be20522a8565f12a0c6fcb01078b464736f6c634300081c00336080604052348015600e575f5ffd5b5060156019565b60c9565b7ff0c57e16840df040f15088dc2f81fe391c3923bec73e23a9662efc9c229c6a00805468010000000000000000900460ff161560685760405163f92ee8a960e01b815260040160405180910390fd5b80546001600160401b039081161460c65780546001600160401b0319166001600160401b0390811782556040519081527fc7f505b2f371ae2175ee4913f4499e1f2633a7b5936321eed1cdaeb6115181d29060200160405180910390a15b50565b610b78806100d65f395ff3fe608060405234801561000f575f5ffd5b50600436106100cb575f3560e01c80639a6fc8f511610088578063c55dae6311610063578063c55dae63146101c3578063f9fa619a146101d4578063feaf968c146101e5578063ffa1ad74146101ed575f5ffd5b80639a6fc8f514610154578063a035b1fe146101a6578063b4988fd0146101ae575f5ffd5b806313b0be33146100cf578063217a4b70146100f5578063313ce5671461012057806335ac73861461012f57806354fd4d50146101385780637284e4161461013f575b5f5ffd5b6100e26100dd3660046107be565b61021f565b6040519081526020015b60405180910390f35b600354610108906001600160a01b031681565b6040516001600160a01b0390911681526020016100ec565b604051601281526020016100ec565b6100e260015481565b60016100e2565b610147610290565b6040516100ec91906107e8565b61016f61016236600461081d565b505f908190819081908190565b6040805169ffffffffffffffffffff968716815260208101959095528401929092526060830152909116608082015260a0016100ec565b6100e25f5481565b6101c16101bc36600461084d565b6102e2565b005b6002546001600160a01b0316610108565b6101c16101e2366004610886565b50565b61016f6104d8565b6040805180820190915260168152750466c617450726963654f7261636c6520342e31322e360541b6020820152610147565b6002545f906001600160a01b0383811691161461024f5760405163981a2a2b60e01b815260040160405180910390fd5b6001545f5461025e90856108b3565b61026891906108ca565b9050805f0361028a57604051634dfba02360e01b815260040160405180910390fd5b92915050565b6002546060906102a8906001600160a01b031661052b565b6003546102bd906001600160a01b031661052b565b6040516020016102ce929190610900565b604051602081830303815290604052905090565b7ff0c57e16840df040f15088dc2f81fe391c3923bec73e23a9662efc9c229c6a008054600160401b810460ff16159067ffffffffffffffff165f811580156103275750825b90505f8267ffffffffffffffff1660011480156103435750303b155b905081158015610351575080155b1561036f5760405163f92ee8a960e01b815260040160405180910390fd5b845467ffffffffffffffff19166001178555831561039957845460ff60401b1916600160401b1785555b6001600160a01b0387166103c057604051639fabe1c160e01b815260040160405180910390fd5b6001600160a01b0386166103e757604051639fabe1c160e01b815260040160405180910390fd5b856001600160a01b0316876001600160a01b03160361041957604051633d4cfcc560e11b815260040160405180910390fd5b875f0361043957604051634dfba02360e01b815260040160405180910390fd5b5f610443886105d0565b5f8a9055905061045481600a610a0d565b60015550600280546001600160a01b03808a166001600160a01b031992831617909255600380549289169290911691909117905583156104ce57845460ff60401b19168555604051600181527fc7f505b2f371ae2175ee4913f4499e1f2633a7b5936321eed1cdaeb6115181d29060200160405180910390a15b5050505050505050565b5f80808080806104f06002546001600160a01b031690565b90505f6104fc826105d0565b905061051a61051561050f83600a610a0d565b8461021f565b61063b565b96974296508695505f945092505050565b6040805160048152602481019091526020810180516001600160e01b03166395d89b4160e01b1790526060905f90819061056690859061066f565b9150915081158061057657508051155b1561059b5750506040805180820190915260018152603f60f81b602082015292915050565b60208151036105b5576105ad81610725565b949350505050565b808060200190518101906105ad9190610a2c565b5050919050565b6040805160048152602481019091526020810180516001600160e01b031663313ce56760e01b1790525f908190819061060a90859061066f565b915091508161061c57505f9392505050565b808060200190518101906106309190610adf565b60ff16949350505050565b5f6001600160ff1b0382111561066b5760405163123baf0360e11b81526004810183905260240160405180910390fd5b5090565b5f60606001600160a01b0384163b61069a576040516373d39f9d60e01b815260040160405180910390fd5b5f5f856001600160a01b0316856040516106b49190610aff565b5f60405180830381855afa9150503d805f81146106ec576040519150601f19603f3d011682016040523d82523d5f602084013e6106f1565b606091505b509150915081610716575f60405180602001604052805f81525093509350505061071e565b600193509150505b9250929050565b80516060905f5b818110156105c95783818151811061074657610746610b0a565b01602001516001600160f81b0319161561079b578284828151811061076d5761076d610b0a565b602001015160f81c60f81b604051602001610789929190610b1e565b60405160208183030381529060405292505b60010161072c565b80356001600160a01b03811681146107b9575f5ffd5b919050565b5f5f604083850312156107cf575f5ffd5b823591506107df602084016107a3565b90509250929050565b602081525f82518060208401528060208501604085015e5f604082850101526040601f19601f83011684010191505092915050565b5f6020828403121561082d575f5ffd5b813569ffffffffffffffffffff81168114610846575f5ffd5b9392505050565b5f5f5f6060848603121561085f575f5ffd5b8335925061086f602085016107a3565b915061087d604085016107a3565b90509250925092565b5f60208284031215610896575f5ffd5b610846826107a3565b634e487b7160e01b5f52601160045260245ffd5b808202811582820484141761028a5761028a61089f565b5f826108e457634e487b7160e01b5f52601260045260245ffd5b500490565b5f81518060208401855e5f93019283525090919050565b5f61090b82856108e9565b6201017960ed1b815261092160038201856108e9565b95945050505050565b6001815b6001841115610965578085048111156109495761094961089f565b600184161561095757908102905b60019390931c92800261092e565b935093915050565b5f8261097b5750600161028a565b8161098757505f61028a565b816001811461099d57600281146109a7576109c3565b600191505061028a565b60ff8411156109b8576109b861089f565b50506001821b61028a565b5060208310610133831016604e8410600b84101617156109e6575081810a61028a565b6109f25f19848461092a565b805f1904821115610a0557610a0561089f565b029392505050565b5f610846838361096d565b634e487b7160e01b5f52604160045260245ffd5b5f60208284031215610a3c575f5ffd5b815167ffffffffffffffff811115610a52575f5ffd5b8201601f81018413610a62575f5ffd5b805167ffffffffffffffff811115610a7c57610a7c610a18565b604051601f8201601f19908116603f0116810167ffffffffffffffff81118282101715610aab57610aab610a18565b604052818152828201602001861015610ac2575f5ffd5b8160208401602083015e5f91810160200191909152949350505050565b5f60208284031215610aef575f5ffd5b815160ff81168114610846575f5ffd5b5f61084682846108e9565b634e487b7160e01b5f52603260045260245ffd5b5f610b2982856108e9565b6001600160f81b0319939093168352505060010191905056fea26469706673582212208d2938db49a5e4c7f4b4c1492e4f557abfbac97b2fd1cd26c5f0e5684e62b25064736f6c634300081c0033",
  "language": "Solidity",
  "compiler": "0.8.28+commit.7893614a"
}