{
  "address": "0xdE3a6c3c7A8F0534aD0756bDc17A9BF6A0da633A",
  "abi": [
    {
      "type": "constructor",
      "inputs": [],
      "stateMutability": "nonpayable"
    },
    {
      "type": "function",
      "name": "ORACLE_IMPLEMENTATION",
      "inputs": [],
      "outputs": [
        {
          "name": "",
          "type": "address",
          "internalType": "address"
        }
      ],
      "stateMutability": "view"
    },
    {
      "type": "function",
      "name": "create",
      "inputs": [
        {
          "name": "_config",
          "type": "tuple",
          "internalType": "struct ICustomMethodOracle.DeploymentConfig",
          "components": [
            {
              "name": "baseToken",
              "type": "address",
              "internalType": "contract IERC20Metadata"
            },
            {
              "name": "quoteToken",
              "type": "address",
              "internalType": "contract IERC20Metadata"
            },
            {
              "name": "target",
              "type": "address",
              "internalType": "address"
            },
            {
              "name": "callSelector",
              "type": "bytes4",
              "internalType": "bytes4"
            },
            {
              "name": "priceDecimals",
              "type": "uint8",
              "internalType": "uint8"
            }
          ]
        },
        {
          "name": "_externalSalt",
          "type": "bytes32",
          "internalType": "bytes32"
        }
      ],
      "outputs": [
        {
          "name": "oracle",
          "type": "address",
          "internalType": "contract ICustomMethodOracle"
        }
      ],
      "stateMutability": "nonpayable"
    },
    {
      "type": "function",
      "name": "nonces",
      "inputs": [
        {
          "name": "owner",
          "type": "address",
          "internalType": "address"
        }
      ],
      "outputs": [
        {
          "name": "",
          "type": "uint256",
          "internalType": "uint256"
        }
      ],
      "stateMutability": "view"
    },
    {
      "type": "function",
      "name": "predictAddress",
      "inputs": [
        {
          "name": "_deployer",
          "type": "address",
          "internalType": "address"
        },
        {
          "name": "_externalSalt",
          "type": "bytes32",
          "internalType": "bytes32"
        }
      ],
      "outputs": [
        {
          "name": "predictedAddress",
          "type": "address",
          "internalType": "address"
        }
      ],
      "stateMutability": "view"
    },
    {
      "type": "function",
      "name": "verifyConfig",
      "inputs": [
        {
          "name": "_config",
          "type": "tuple",
          "internalType": "struct ICustomMethodOracle.DeploymentConfig",
          "components": [
            {
              "name": "baseToken",
              "type": "address",
              "internalType": "contract IERC20Metadata"
            },
            {
              "name": "quoteToken",
              "type": "address",
              "internalType": "contract IERC20Metadata"
            },
            {
              "name": "target",
              "type": "address",
              "internalType": "address"
            },
            {
              "name": "callSelector",
              "type": "bytes4",
              "internalType": "bytes4"
            },
            {
              "name": "priceDecimals",
              "type": "uint8",
              "internalType": "uint8"
            }
          ]
        }
      ],
      "outputs": [
        {
          "name": "normalizationDivider",
          "type": "uint256",
          "internalType": "uint256"
        },
        {
          "name": "normalizationMultiplier",
          "type": "uint256",
          "internalType": "uint256"
        }
      ],
      "stateMutability": "view"
    },
    {
      "type": "event",
      "name": "CustomMethodConfigDeployed",
      "inputs": [
        {
          "name": "configAddress",
          "type": "address",
          "indexed": true,
          "internalType": "address"
        }
      ],
      "anonymous": false
    },
    {
      "type": "error",
      "name": "AddressZero",
      "inputs": []
    },
    {
      "type": "error",
      "name": "BaseTokenDecimalsAbove18",
      "inputs": []
    },
    {
      "type": "error",
      "name": "DeployerCannotBeZero",
      "inputs": []
    },
    {
      "type": "error",
      "name": "EmptyCallSelector",
      "inputs": []
    },
    {
      "type": "error",
      "name": "FailedDeployment",
      "inputs": []
    },
    {
      "type": "error",
      "name": "InsufficientBalance",
      "inputs": [
        {
          "name": "balance",
          "type": "uint256",
          "internalType": "uint256"
        },
        {
          "name": "needed",
          "type": "uint256",
          "internalType": "uint256"
        }
      ]
    },
    {
      "type": "error",
      "name": "InvalidAccountNonce",
      "inputs": [
        {
          "name": "account",
          "type": "address",
          "internalType": "address"
        },
        {
          "name": "currentNonce",
          "type": "uint256",
          "internalType": "uint256"
        }
      ]
    },
    {
      "type": "error",
      "name": "NormalizationScaleTooLarge",
      "inputs": []
    },
    {
      "type": "error",
      "name": "TokenIsNotAContract",
      "inputs": []
    },
    {
      "type": "error",
      "name": "TokensAreTheSame",
      "inputs": []
    }
  ],
  "bytecode": "0x60a0604052348015600e575f5ffd5b506040516019906042565b604051809103905ff0801580156031573d5f5f3e3d5ffd5b506001600160a01b0316608052604f565b61121f80610e7083390190565b608051610dfc6100745f395f818160c4015281816101be01526103680152610dfc5ff3fe608060405234801561000f575f5ffd5b5060043610610055575f3560e01c806349551a9f146100595780637ecebe0014610089578063a8f39f66146100bf578063cb193942146100e6578063eef8612d146100f9575b5f5ffd5b61006c610067366004610871565b610121565b6040516001600160a01b0390911681526020015b60405180910390f35b6100b161009736600461089a565b6001600160a01b03165f9081526020819052604090205490565b604051908152602001610080565b61006c7f000000000000000000000000000000000000000000000000000000000000000081565b61006c6100f43660046108b5565b6102df565b61010c6101073660046108df565b610394565b60408051928352602083019190915201610080565b5f5f5f61012d85610394565b915091505f85838360405161014190610772565b83516001600160a01b039081168252602080860151821690830152604080860151909116908201526060808501516001600160e01b0319169082015260809384015160ff169381019390935260a083019190915260c082015260e001604051809103905ff0801580156101b6573d5f5f3e3d5ffd5b5090506102497f000000000000000000000000000000000000000000000000000000000000000061024487335f81815260208190526040812080546001810190915590919060405160609290921b6bffffffffffffffffffffffff19166020830152603482015260548101839052607401604051602081830303815290604052805190602001209050919050565b61049b565b60405163189acdbd60e31b81526001600160a01b0383811660048301529195509085169063c4d66de8906024015f604051808303815f87803b15801561028d575f5ffd5b505af115801561029f573d5f5f3e3d5ffd5b50506040516001600160a01b03841692507f2ce1855429c24bf7423b8ef6d827fae6f474de3a9edf521cfae365a4a814f90691505f90a250505092915050565b5f6001600160a01b0383166103075760405163e4452e2b60e01b815260040160405180910390fd5b6001600160a01b0383165f90815260208181526040918290205482516bffffffffffffffffffffffff19606088901b168184015260348101919091526054808201869052835180830390910181526074909101909252815191012061038d907f0000000000000000000000000000000000000000000000000000000000000000906104ad565b9392505050565b80515f9081906001600160a01b03166103c057604051639fabe1c160e01b815260040160405180910390fd5b60208301516001600160a01b03166103eb57604051639fabe1c160e01b815260040160405180910390fd5b60408301516001600160a01b031661041657604051639fabe1c160e01b815260040160405180910390fd5b82602001516001600160a01b0316835f01516001600160a01b03160361044f57604051633d4cfcc560e11b815260040160405180910390fd5b60608301516001600160e01b03191661047b5760405163045fe49360e31b815260040160405180910390fd5b6104916104878461050c565b846080015161053e565b9094909350915050565b5f61038d83835f6105bc565b92915050565b6040513060388201526f5af43d82803e903d91602b57fd5bf3ff602482015260148101839052733d602d80600a3d3981f3363d3d373d3d3d363d738152605881018290526037600c820120607882015260556043909101205f9061038d565b5f5f61051a835f0151610651565b905060128111156104a757604051638eea799b60e01b815260040160405180910390fd5b5f808061055160ff80861690871661090d565b905060248111156105755760405163cbeaed2760e01b815260040160405180910390fd5b601281111561059b57610589601282610920565b61059490600a610a16565b92506105b4565b6105a6816012610920565b6105b190600a610a16565b91505b509250929050565b5f814710156105eb5760405163cf47918160e01b81524760048201526024810183905260440160405180910390fd5b6e5af43d82803e903d91602b57fd5bf360205283601152763d602d80600a3d3981f3363d3d373d3d3d363d730000008460881c175f52826037600984f590506001600160a01b03811661038d5760405163b06ebf3d60e01b815260040160405180910390fd5b6040805160048152602481019091526020810180516001600160e01b031663313ce56760e01b1790525f908190819061068b9085906106bc565b915091508161069d57505f9392505050565b808060200190518101906106b19190610a21565b60ff16949350505050565b5f60606001600160a01b0384163b6106e7576040516373d39f9d60e01b815260040160405180910390fd5b5f5f856001600160a01b0316856040516107019190610a3c565b5f60405180830381855afa9150503d805f8114610739576040519150601f19603f3d011682016040523d82523d5f602084013e61073e565b606091505b509150915081610763575f60405180602001604052805f81525093509350505061076b565b600193509150505b9250929050565b61037480610a5383390190565b6001600160a01b0381168114610793575f5ffd5b50565b80356107a18161077f565b919050565b80356001600160e01b0319811681146107a1575f5ffd5b60ff81168114610793575f5ffd5b80356107a1816107bd565b5f60a082840312156107e6575f5ffd5b60405160a0810181811067ffffffffffffffff8211171561081557634e487b7160e01b5f52604160045260245ffd5b60405290508061082483610796565b815261083260208401610796565b602082015261084360408401610796565b6040820152610854606084016107a6565b6060820152610865608084016107cb565b60808201525092915050565b5f5f60c08385031215610882575f5ffd5b61088c84846107d6565b9460a0939093013593505050565b5f602082840312156108aa575f5ffd5b813561038d8161077f565b5f5f604083850312156108c6575f5ffd5b82356108d18161077f565b946020939093013593505050565b5f60a082840312156108ef575f5ffd5b61038d83836107d6565b634e487b7160e01b5f52601160045260245ffd5b808201808211156104a7576104a76108f9565b818103818111156104a7576104a76108f9565b6001815b600184111561096e57808504811115610952576109526108f9565b600184161561096057908102905b60019390931c928002610937565b935093915050565b5f82610984575060016104a7565b8161099057505f6104a7565b81600181146109a657600281146109b0576109cc565b60019150506104a7565b60ff8411156109c1576109c16108f9565b50506001821b6104a7565b5060208310610133831016604e8410600b84101617156109ef575081810a6104a7565b6109fb5f198484610933565b805f1904821115610a0e57610a0e6108f9565b029392505050565b5f61038d8383610976565b5f60208284031215610a31575f5ffd5b815161038d816107bd565b5f82518060208501845e5f92019182525091905056fe610140604052348015610010575f5ffd5b5060405161037438038061037483398101604081905261002f916100b5565b82516001600160a01b039081166080526020840151811660a05260c09290925260e05260408201511661010052606001516001600160e01b0319166101205261016d565b80516001600160a01b0381168114610089575f5ffd5b919050565b80516001600160e01b031981168114610089575f5ffd5b805160ff81168114610089575f5ffd5b5f5f5f83850360e08112156100c8575f5ffd5b60a08112156100d5575f5ffd5b5060405160a081016001600160401b038111828210171561010457634e487b7160e01b5f52604160045260245ffd5b60405261011085610073565b815261011e60208601610073565b602082015261012f60408601610073565b60408201526101406060860161008e565b6060820152610151608086016100a5565b608082015260a085015160c09095015190969495509392505050565b60805160a05160c05160e05161010051610120516101c56101af5f395f60c001525f608e01525f61010d01525f60e701525f606601525f604101526101c55ff3fe608060405234801561000f575f5ffd5b5060043610610029575f3560e01c8063c3f909d41461002d575b5f5ffd5b6040805160c0810182526001600160a01b037f0000000000000000000000000000000000000000000000000000000000000000811682527f0000000000000000000000000000000000000000000000000000000000000000811660208301527f000000000000000000000000000000000000000000000000000000000000000016918101919091526001600160e01b03197f00000000000000000000000000000000000000000000000000000000000000001660608201527f000000000000000000000000000000000000000000000000000000000000000060808201527f000000000000000000000000000000000000000000000000000000000000000060a08201526040805182516001600160a01b0390811682526020808501518216908301528383015116818301526060808401516001600160e01b031916908201526080808401519082015260a09283015192810192909252519081900360c00190f3fea2646970667358221220ac432e29422d0a66283388e60d9c1cd9d1f79d62842ac96f84097939cb6e6aea64736f6c634300081c0033a2646970667358221220cc77224fec5f563d6ac07407cfe6495c229e658d279c9b686330d07a9cf5ea1264736f6c634300081c00336080604052348015600e575f5ffd5b5060156019565b60c9565b7ff0c57e16840df040f15088dc2f81fe391c3923bec73e23a9662efc9c229c6a00805468010000000000000000900460ff161560685760405163f92ee8a960e01b815260040160405180910390fd5b80546001600160401b039081161460c65780546001600160401b0319166001600160401b0390811782556040519081527fc7f505b2f371ae2175ee4913f4499e1f2633a7b5936321eed1cdaeb6115181d29060200160405180910390a15b50565b611149806100d65f395ff3fe608060405234801561000f575f5ffd5b50600436106100fb575f3560e01c80639a6fc8f511610093578063f9fa619a11610063578063f9fa619a1461028d578063fc7e89591461029e578063feaf968c146102a6578063ffa1ad74146102ae575f5ffd5b80639a6fc8f5146101ba578063c3f909d41461020c578063c4d66de814610272578063c55dae6314610285575f5ffd5b806354fd4d50116100ce57806354fd4d50146101665780637284e4161461016d57806378ac469a1461019d5780637e91400f146101b2575f5ffd5b806313b0be33146100ff578063217a4b7014610125578063313ce56714610145578063324b8d6e14610154575b5f5ffd5b61011261010d366004610c14565b6102e7565b6040519081526020015b60405180910390f35b61012d61042c565b6040516001600160a01b03909116815260200161011c565b6040516012815260200161011c565b5f5461012d906001600160a01b031681565b6001610112565b60408051808201909152600b81526a53696c6f204f7261636c6560a81b60208201525b60405161011c9190610c42565b6101b06101ab366004610ce5565b6104a9565b005b61011261058e565b6101d56101c8366004610d79565b505f908190819081908190565b6040805169ffffffffffffffffffff968716815260208101959095528401929092526060830152909116608082015260a00161011c565b610214610613565b6040805182516001600160a01b0390811682526020808501518216908301528383015116918101919091526060808301516001600160e01b031916908201526080808301519082015260a0918201519181019190915260c00161011c565b6101b0610280366004610da9565b6106b0565b61012d610844565b6101b061029b366004610da9565b50565b6101906108be565b6101d561094a565b60408051808201909152601881527f437573746f6d4d6574686f644f7261636c6520342e352e3000000000000000006020820152610190565b5f8054604080516330fe427560e21b8152905183926001600160a01b03169163c3f909d49160048083019260c09291908290030181865afa15801561032e573d5f5f3e3d5ffd5b505050506040513d601f19601f820116820180604052508101906103529190610dc4565b9050805f01516001600160a01b0316836001600160a01b0316146103895760405163981a2a2b60e01b815260040160405180910390fd5b6001600160801b038411156103b157604051631df5999960e21b815260040160405180910390fd5b5f6103c482604001518360600151610993565b90506001600160801b038111156103ee5760405163455639ff60e01b815260040160405180910390fd5b610402858284608001518560a00151610a71565b9250825f03610424576040516301a7e28b60e61b815260040160405180910390fd5b505092915050565b5f5f5f9054906101000a90046001600160a01b03166001600160a01b031663c3f909d46040518163ffffffff1660e01b815260040160c060405180830381865afa15801561047c573d5f5f3e3d5ffd5b505050506040513d601f19601f820116820180604052508101906104a09190610dc4565b60200151905090565b5f5f5f9054906101000a90046001600160a01b03166001600160a01b031663c3f909d46040518163ffffffff1660e01b815260040160c060405180830381865afa1580156104f9573d5f5f3e3d5ffd5b505050506040513d601f19601f8201168201806040525081019061051d9190610dc4565b9050816040516020016105309190610e64565b604051602081830303815290604052805190602001206001600160e01b03191681606001516001600160e01b0319161461057d57604051632608704f60e21b815260040160405180910390fd5b60016105898382610ef2565b505050565b5f8054604080516330fe427560e21b8152905183926001600160a01b03169163c3f909d49160048083019260c09291908290030181865afa1580156105d5573d5f5f3e3d5ffd5b505050506040513d601f19601f820116820180604052508101906105f99190610dc4565b905061060d81604001518260600151610993565b91505090565b6040805160c080820183525f80835260208301819052828401819052606083018190526080830181905260a083018190525483516330fe427560e21b8152935192936001600160a01b039091169263c3f909d4926004808401939192918290030181865afa158015610687573d5f5f3e3d5ffd5b505050506040513d601f19601f820116820180604052508101906106ab9190610dc4565b905090565b7ff0c57e16840df040f15088dc2f81fe391c3923bec73e23a9662efc9c229c6a008054600160401b810460ff16159067ffffffffffffffff165f811580156106f55750825b90505f8267ffffffffffffffff1660011480156107115750303b155b90508115801561071f575080155b1561073d5760405163f92ee8a960e01b815260040160405180910390fd5b845467ffffffffffffffff19166001178555831561076757845460ff60401b1916600160401b1785555b5f80546001600160a01b0319166001600160a01b0388169081178255604080516330fe427560e21b8152905163c3f909d49160048082019260c0929091908290030181865afa1580156107bc573d5f5f3e3d5ffd5b505050506040513d601f19601f820116820180604052508101906107e09190610dc4565b90506107f481604001518260600151610993565b5050831561083c57845460ff60401b19168555604051600181527fc7f505b2f371ae2175ee4913f4499e1f2633a7b5936321eed1cdaeb6115181d29060200160405180910390a15b505050505050565b5f5f5f9054906101000a90046001600160a01b03166001600160a01b031663c3f909d46040518163ffffffff1660e01b815260040160c060405180830381865afa158015610894573d5f5f3e3d5ffd5b505050506040513d601f19601f820116820180604052508101906108b89190610dc4565b51919050565b600180546108cb90610e6f565b80601f01602080910402602001604051908101604052809291908181526020018280546108f790610e6f565b80156109425780601f1061091957610100808354040283529160200191610942565b820191905f5260205f20905b81548152906001019060200180831161092557829003601f168201915b505050505081565b5f8080808080610958610844565b90505f61096482610aab565b905061098261097d61097783600a6110a6565b846102e7565b610b16565b96974296508695505f945092505050565b60408051600481526024810182526020810180516001600160e01b03166001600160e01b0319851617905290515f91829182916001600160a01b038716916109db9190610e64565b5f60405180830381855afa9150503d805f8114610a13576040519150601f19603f3d011682016040523d82523d5f602084013e610a18565b606091505b509150915081610a3b57604051633842fc7360e21b815260040160405180910390fd5b8051602014610a5d5760405163455639ff60e01b815260040160405180910390fd5b8080602001905181019061040291906110b1565b5f815f03610a92578284860281610a8a57610a8a6110c8565b049050610aa3565b848402610a9f83826110dc565b9150505b949350505050565b6040805160048152602481019091526020810180516001600160e01b031663313ce56760e01b1790525f9081908190610ae5908590610b4a565b9150915081610af757505f9392505050565b80806020019051810190610b0b91906110f3565b60ff16949350505050565b5f6001600160ff1b03821115610b465760405163123baf0360e11b81526004810183905260240160405180910390fd5b5090565b5f60606001600160a01b0384163b610b75576040516373d39f9d60e01b815260040160405180910390fd5b5f5f856001600160a01b031685604051610b8f9190610e64565b5f60405180830381855afa9150503d805f8114610bc7576040519150601f19603f3d011682016040523d82523d5f602084013e610bcc565b606091505b509150915081610bf1575f60405180602001604052805f815250935093505050610bf9565b600193509150505b9250929050565b6001600160a01b038116811461029b575f5ffd5b5f5f60408385031215610c25575f5ffd5b823591506020830135610c3781610c00565b809150509250929050565b602081525f82518060208401528060208501604085015e5f604082850101526040601f19601f83011684010191505092915050565b634e487b7160e01b5f52604160045260245ffd5b60405160c0810167ffffffffffffffff81118282101715610cae57610cae610c77565b60405290565b604051601f8201601f1916810167ffffffffffffffff81118282101715610cdd57610cdd610c77565b604052919050565b5f60208284031215610cf5575f5ffd5b813567ffffffffffffffff811115610d0b575f5ffd5b8201601f81018413610d1b575f5ffd5b803567ffffffffffffffff811115610d3557610d35610c77565b610d48601f8201601f1916602001610cb4565b818152856020838501011115610d5c575f5ffd5b816020840160208301375f91810160200191909152949350505050565b5f60208284031215610d89575f5ffd5b813569ffffffffffffffffffff81168114610da2575f5ffd5b9392505050565b5f60208284031215610db9575f5ffd5b8135610da281610c00565b5f60c0828403128015610dd5575f5ffd5b50610dde610c8b565b8251610de981610c00565b81526020830151610df981610c00565b60208201526040830151610e0c81610c00565b604082015260608301516001600160e01b031981168114610e2b575f5ffd5b60608201526080838101519082015260a0928301519281019290925250919050565b5f81518060208401855e5f93019283525090919050565b5f610da28284610e4d565b600181811c90821680610e8357607f821691505b602082108103610ea157634e487b7160e01b5f52602260045260245ffd5b50919050565b601f82111561058957805f5260205f20601f840160051c81016020851015610ecc5750805b601f840160051c820191505b81811015610eeb575f8155600101610ed8565b5050505050565b815167ffffffffffffffff811115610f0c57610f0c610c77565b610f2081610f1a8454610e6f565b84610ea7565b6020601f821160018114610f52575f8315610f3b5750848201515b5f19600385901b1c1916600184901b178455610eeb565b5f84815260208120601f198516915b82811015610f815787850151825560209485019460019092019101610f61565b5084821015610f9e57868401515f19600387901b60f8161c191681555b50505050600190811b01905550565b634e487b7160e01b5f52601160045260245ffd5b6001815b6001841115610ffc57808504811115610fe057610fe0610fad565b6001841615610fee57908102905b60019390931c928002610fc5565b935093915050565b5f82611012575060016110a0565b8161101e57505f6110a0565b8160018114611034576002811461103e5761105a565b60019150506110a0565b60ff84111561104f5761104f610fad565b50506001821b6110a0565b5060208310610133831016604e8410600b841016171561107d575081810a6110a0565b6110895f198484610fc1565b805f190482111561109c5761109c610fad565b0290505b92915050565b5f610da28383611004565b5f602082840312156110c1575f5ffd5b5051919050565b634e487b7160e01b5f52601260045260245ffd5b80820281158282048414176110a0576110a0610fad565b5f60208284031215611103575f5ffd5b815160ff81168114610da2575f5ffdfea2646970667358221220c614bd6fa876978cfe7224db19f4939e0583126afabe9c4c6c84dcf9937c9d4164736f6c634300081c0033",
  "language": "Solidity",
  "compiler": "0.8.28+commit.7893614a"
}