{
  "address": "0xFfD3cB64ec6Fb68432792e4E902F62192a420506",
  "abi": [
    {
      "type": "constructor",
      "inputs": [
        {
          "name": "_supraOraclePull",
          "type": "address",
          "internalType": "contract ISupraOraclePull_V2"
        }
      ],
      "stateMutability": "nonpayable"
    },
    {
      "type": "function",
      "name": "ORACLE_IMPLEMENTATION",
      "inputs": [],
      "outputs": [
        {
          "name": "",
          "type": "address",
          "internalType": "address"
        }
      ],
      "stateMutability": "view"
    },
    {
      "type": "function",
      "name": "SUPRA_ORACLE_PULL",
      "inputs": [],
      "outputs": [
        {
          "name": "",
          "type": "address",
          "internalType": "contract ISupraOraclePull_V2"
        }
      ],
      "stateMutability": "view"
    },
    {
      "type": "function",
      "name": "create",
      "inputs": [
        {
          "name": "_config",
          "type": "tuple",
          "internalType": "struct ISupraSValueOracle.DeploymentConfig",
          "components": [
            {
              "name": "baseToken",
              "type": "address",
              "internalType": "contract IERC20Metadata"
            },
            {
              "name": "quoteToken",
              "type": "address",
              "internalType": "contract IERC20Metadata"
            },
            {
              "name": "pairId",
              "type": "uint256",
              "internalType": "uint256"
            }
          ]
        },
        {
          "name": "_externalSalt",
          "type": "bytes32",
          "internalType": "bytes32"
        }
      ],
      "outputs": [
        {
          "name": "oracle",
          "type": "address",
          "internalType": "contract ISupraSValueOracle"
        }
      ],
      "stateMutability": "nonpayable"
    },
    {
      "type": "function",
      "name": "nonces",
      "inputs": [
        {
          "name": "owner",
          "type": "address",
          "internalType": "address"
        }
      ],
      "outputs": [
        {
          "name": "",
          "type": "uint256",
          "internalType": "uint256"
        }
      ],
      "stateMutability": "view"
    },
    {
      "type": "function",
      "name": "predictAddress",
      "inputs": [
        {
          "name": "_deployer",
          "type": "address",
          "internalType": "address"
        },
        {
          "name": "_externalSalt",
          "type": "bytes32",
          "internalType": "bytes32"
        }
      ],
      "outputs": [
        {
          "name": "predictedAddress",
          "type": "address",
          "internalType": "address"
        }
      ],
      "stateMutability": "view"
    },
    {
      "type": "function",
      "name": "verifyConfig",
      "inputs": [
        {
          "name": "_config",
          "type": "tuple",
          "internalType": "struct ISupraSValueOracle.DeploymentConfig",
          "components": [
            {
              "name": "baseToken",
              "type": "address",
              "internalType": "contract IERC20Metadata"
            },
            {
              "name": "quoteToken",
              "type": "address",
              "internalType": "contract IERC20Metadata"
            },
            {
              "name": "pairId",
              "type": "uint256",
              "internalType": "uint256"
            }
          ]
        }
      ],
      "outputs": [
        {
          "name": "normalizationDivider",
          "type": "uint256",
          "internalType": "uint256"
        },
        {
          "name": "normalizationMultiplier",
          "type": "uint256",
          "internalType": "uint256"
        },
        {
          "name": "priceDecimals",
          "type": "uint8",
          "internalType": "uint8"
        },
        {
          "name": "supraFeed",
          "type": "address",
          "internalType": "contract ISupraSValueFeed"
        }
      ],
      "stateMutability": "view"
    },
    {
      "type": "event",
      "name": "SupraSValueConfigDeployed",
      "inputs": [
        {
          "name": "configAddress",
          "type": "address",
          "indexed": true,
          "internalType": "address"
        },
        {
          "name": "priceDecimals",
          "type": "uint8",
          "indexed": false,
          "internalType": "uint8"
        }
      ],
      "anonymous": false
    },
    {
      "type": "error",
      "name": "AddressZero",
      "inputs": []
    },
    {
      "type": "error",
      "name": "BaseTokenDecimalsAbove18",
      "inputs": []
    },
    {
      "type": "error",
      "name": "DeployerCannotBeZero",
      "inputs": []
    },
    {
      "type": "error",
      "name": "FailedDeployment",
      "inputs": []
    },
    {
      "type": "error",
      "name": "InsufficientBalance",
      "inputs": [
        {
          "name": "balance",
          "type": "uint256",
          "internalType": "uint256"
        },
        {
          "name": "needed",
          "type": "uint256",
          "internalType": "uint256"
        }
      ]
    },
    {
      "type": "error",
      "name": "InvalidAccountNonce",
      "inputs": [
        {
          "name": "account",
          "type": "address",
          "internalType": "address"
        },
        {
          "name": "currentNonce",
          "type": "uint256",
          "internalType": "uint256"
        }
      ]
    },
    {
      "type": "error",
      "name": "InvalidDecimals",
      "inputs": []
    },
    {
      "type": "error",
      "name": "NormalizationScaleTooLarge",
      "inputs": []
    },
    {
      "type": "error",
      "name": "TimeStampZero",
      "inputs": []
    },
    {
      "type": "error",
      "name": "TokenIsNotAContract",
      "inputs": []
    },
    {
      "type": "error",
      "name": "TokensAreTheSame",
      "inputs": []
    }
  ],
  "bytecode": "0x60c060405234801561000f575f5ffd5b50604051611ec5380380611ec583398101604081905261002e916100a7565b6001600160a01b03811661005557604051639fabe1c160e01b815260040160405180910390fd5b6001600160a01b03811660a05260405161006e9061009a565b604051809103905ff080158015610087573d5f5f3e3d5ffd5b506001600160a01b0316608052506100d4565b610e0c806110b983390190565b5f602082840312156100b7575f5ffd5b81516001600160a01b03811681146100cd575f5ffd5b9392505050565b60805160a051610fb06101095f395f8181610152015261054501525f818160ed0152818161032101526104dc0152610fb05ff3fe608060405234801561000f575f5ffd5b5060043610610060575f3560e01c80631b080343146100645780637ecebe00146100b2578063a8f39f66146100e8578063bd5d23ff14610127578063cb1939421461013a578063de4675041461014d575b5f5ffd5b6100776100723660046109f3565b610174565b6040516100a99493929190938452602084019290925260ff1660408301526001600160a01b0316606082015260800190565b60405180910390f35b6100da6100c0366004610a0d565b6001600160a01b03165f9081526020819052604090205490565b6040519081526020016100a9565b61010f7f000000000000000000000000000000000000000000000000000000000000000081565b6040516001600160a01b0390911681526020016100a9565b61010f610135366004610a28565b61023a565b61010f610148366004610a51565b610453565b61010f7f000000000000000000000000000000000000000000000000000000000000000081565b80515f908190819081906001600160a01b03166101a457604051639fabe1c160e01b815260040160405180910390fd5b60208501516001600160a01b03166101cf57604051639fabe1c160e01b815260040160405180910390fd5b84602001516001600160a01b0316855f01516001600160a01b03160361020857604051633d4cfcc560e11b815260040160405180910390fd5b5f61021286610508565b905061021d86610540565b909350915061022c81846106ba565b909790965092945090925050565b5f5f5f5f5f61024887610174565b93509350935093505f6040518060c00160405280895f01516001600160a01b0316815260200189602001516001600160a01b03168152602001836001600160a01b03168152602001896040015181526020018681526020018581525090505f816040516102b490610959565b81516001600160a01b03908116825260208084015182169083015260408084015190911690820152606080830151908201526080808301519082015260a0918201519181019190915260c001604051809103905ff080158015610319573d5f5f3e3d5ffd5b5090506103ac7f00000000000000000000000000000000000000000000000000000000000000006103a78a335f81815260208190526040812080546001810190915590919060405160609290921b6bffffffffffffffffffffffff19166020830152603482015260548101839052607401604051602081830303815290604052805190602001209050919050565b610738565b60405163189acdbd60e31b81526001600160a01b0383811660048301529198509088169063c4d66de8906024015f604051808303815f87803b1580156103f0575f5ffd5b505af1158015610402573d5f5f3e3d5ffd5b505060405160ff871681526001600160a01b03841692507ff98ac1652c5e1a3dc3c1388e8f8c5ae842d6d5f578397162c364ee421065d8e8915060200160405180910390a250505050505092915050565b5f6001600160a01b03831661047b5760405163e4452e2b60e01b815260040160405180910390fd5b6001600160a01b0383165f90815260208181526040918290205482516bffffffffffffffffffffffff19606088901b1681840152603481019190915260548082018690528351808303909101815260749091019092528151910120610501907f000000000000000000000000000000000000000000000000000000000000000090610744565b9392505050565b5f5f610516835f01516107a3565b9050601281111561053a57604051638eea799b60e01b815260040160405180910390fd5b92915050565b5f5f5f7f00000000000000000000000000000000000000000000000000000000000000006001600160a01b0316632e89c1e36040518163ffffffff1660e01b8152600401602060405180830381865afa15801561059f573d5f5f3e3d5ffd5b505050506040513d601f19601f820116820180604052508101906105c39190610a7b565b90506001600160a01b0381166105ec57604051639fabe1c160e01b815260040160405180910390fd5b8091505f826001600160a01b03166389b94ea286604001516040518263ffffffff1660e01b815260040161062291815260200190565b608060405180830381865afa15801561063d573d5f5f3e3d5ffd5b505050506040513d601f19601f820116820180604052508101906106619190610a96565b905080604001515f036106865760405162a26a3560e41b815260040160405180910390fd5b602081015160ff10156106ac57604051630692acc560e51b815260040160405180910390fd5b806020015193505050915091565b5f80806106cd60ff808616908716610b19565b905060248111156106f15760405163cbeaed2760e01b815260040160405180910390fd5b601281111561071757610705601282610b2c565b61071090600a610c22565b9250610730565b610722816012610b2c565b61072d90600a610c22565b91505b509250929050565b5f61050183835f61080e565b6040513060388201526f5af43d82803e903d91602b57fd5bf3ff602482015260148101839052733d602d80600a3d3981f3363d3d373d3d3d363d738152605881018290526037600c820120607882015260556043909101205f90610501565b6040805160048152602481019091526020810180516001600160e01b031663313ce56760e01b1790525f90819081906107dd9085906108a3565b91509150816107ef57505f9392505050565b808060200190518101906108039190610c2d565b60ff16949350505050565b5f8147101561083d5760405163cf47918160e01b81524760048201526024810183905260440160405180910390fd5b6e5af43d82803e903d91602b57fd5bf360205283601152763d602d80600a3d3981f3363d3d373d3d3d363d730000008460881c175f52826037600984f590506001600160a01b0381166105015760405163b06ebf3d60e01b815260040160405180910390fd5b5f60606001600160a01b0384163b6108ce576040516373d39f9d60e01b815260040160405180910390fd5b5f5f856001600160a01b0316856040516108e89190610c4d565b5f60405180830381855afa9150503d805f8114610920576040519150601f19603f3d011682016040523d82523d5f602084013e610925565b606091505b50915091508161094a575f60405180602001604052805f815250935093505050610952565b600193509150505b9250929050565b61031780610c6483390190565b6001600160a01b038116811461097a575f5ffd5b50565b5f6060828403121561098d575f5ffd5b6040516060810167ffffffffffffffff811182821017156109bc57634e487b7160e01b5f52604160045260245ffd5b60405290508082356109cd81610966565b815260208301356109dd81610966565b6020820152604092830135920191909152919050565b5f60608284031215610a03575f5ffd5b610501838361097d565b5f60208284031215610a1d575f5ffd5b813561050181610966565b5f5f60808385031215610a39575f5ffd5b610a43848461097d565b946060939093013593505050565b5f5f60408385031215610a62575f5ffd5b8235610a6d81610966565b946020939093013593505050565b5f60208284031215610a8b575f5ffd5b815161050181610966565b5f6080828403128015610aa7575f5ffd5b506040516080810167ffffffffffffffff81118282101715610ad757634e487b7160e01b5f52604160045260245ffd5b6040908152835182526020808501519083015283810151908201526060928301519281019290925250919050565b634e487b7160e01b5f52601160045260245ffd5b8082018082111561053a5761053a610b05565b8181038181111561053a5761053a610b05565b6001815b6001841115610b7a57808504811115610b5e57610b5e610b05565b6001841615610b6c57908102905b60019390931c928002610b43565b935093915050565b5f82610b905750600161053a565b81610b9c57505f61053a565b8160018114610bb25760028114610bbc57610bd8565b600191505061053a565b60ff841115610bcd57610bcd610b05565b50506001821b61053a565b5060208310610133831016604e8410600b8410161715610bfb575081810a61053a565b610c075f198484610b3f565b805f1904821115610c1a57610c1a610b05565b029392505050565b5f6105018383610b82565b5f60208284031215610c3d575f5ffd5b815160ff81168114610501575f5ffd5b5f82518060208501845e5f92019182525091905056fe610140604052348015610010575f5ffd5b5060405161031738038061031783398101604081905261002f9161008d565b80516001600160a01b0390811660809081526020830151821660a0908152604084015190921660c052606083015160e05282015161010052015161012052610124565b80516001600160a01b0381168114610088575f5ffd5b919050565b5f60c082840312801561009e575f5ffd5b5060405160c081016001600160401b03811182821017156100cd57634e487b7160e01b5f52604160045260245ffd5b6040526100d983610072565b81526100e760208401610072565b60208201526100f860408401610072565b6040820152606083810151908201526080808401519082015260a0928301519281019290925250919050565b60805160a05160c05160e05161010051610120516101b16101665f395f61010301525f60dd01525f60b701525f608e01525f606601525f604101526101b15ff3fe608060405234801561000f575f5ffd5b5060043610610029575f3560e01c8063c3f909d41461002d575b5f5ffd5b6040805160c0810182526001600160a01b037f0000000000000000000000000000000000000000000000000000000000000000811682527f0000000000000000000000000000000000000000000000000000000000000000811660208301527f000000000000000000000000000000000000000000000000000000000000000016918101919091527f000000000000000000000000000000000000000000000000000000000000000060608201527f000000000000000000000000000000000000000000000000000000000000000060808201527f000000000000000000000000000000000000000000000000000000000000000060a08201526040805182516001600160a01b039081168252602080850151821690830152838301511681830152606080840151908201526080808401519082015260a09283015192810192909252519081900360c00190f3fea2646970667358221220bfd51f7daf0bb9d32e51e9ee3b7f82ee409af7d34973c2f3bc3ccac4a089a44564736f6c634300081c0033a2646970667358221220b15e1657be0edc0533a38e9326afe31a0c4e1bebd88ed12e0f3637d8075d286964736f6c634300081c00336080604052348015600e575f5ffd5b5060156019565b60c9565b7ff0c57e16840df040f15088dc2f81fe391c3923bec73e23a9662efc9c229c6a00805468010000000000000000900460ff161560685760405163f92ee8a960e01b815260040160405180910390fd5b80546001600160401b039081161460c65780546001600160401b0319166001600160401b0390811782556040519081527fc7f505b2f371ae2175ee4913f4499e1f2633a7b5936321eed1cdaeb6115181d29060200160405180910390a15b50565b610d36806100d65f395ff3fe608060405234801561000f575f5ffd5b50600436106100e5575f3560e01c80639a6fc8f511610088578063c55dae6311610063578063c55dae6314610252578063f9fa619a1461025a578063feaf968c1461026b578063ffa1ad7414610273575f5ffd5b80639a6fc8f51461018f578063c3f909d4146101e1578063c4d66de81461023d575f5ffd5b8063324b8d6e116100c3578063324b8d6e1461013e57806354fd4d50146101505780637284e416146101575780637e91400f14610187575f5ffd5b806313b0be33146100e9578063217a4b701461010f578063313ce5671461012f575b5f5ffd5b6100fc6100f73660046109e0565b6102ac565b6040519081526020015b60405180910390f35b6101176103e8565b6040516001600160a01b039091168152602001610106565b60405160128152602001610106565b5f54610117906001600160a01b031681565b60016100fc565b60408051808201909152600b81526a53696c6f204f7261636c6560a81b60208201525b6040516101069190610a0e565b6100fc610465565b6101aa61019d366004610a43565b505f908190819081908190565b6040805169ffffffffffffffffffff968716815260208101959095528401929092526060830152909116608082015260a001610106565b6101e96104dc565b6040805182516001600160a01b039081168252602080850151821690830152838301511691810191909152606080830151908201526080808301519082015260a0918201519181019190915260c001610106565b61025061024b366004610a73565b610574565b005b6101176106d4565b610250610268366004610a73565b50565b6101aa61074e565b60408051808201909152601781527f53757072615356616c75654f7261636c6520342e372e30000000000000000000602082015261017a565b5f8054604080516330fe427560e21b8152905183926001600160a01b03169163c3f909d49160048083019260c09291908290030181865afa1580156102f3573d5f5f3e3d5ffd5b505050506040513d601f19601f820116820180604052508101906103179190610a8e565b9050805f01516001600160a01b0316836001600160a01b03161461034e5760405163981a2a2b60e01b815260040160405180910390fd5b6001600160801b0384111561037657604051631df5999960e21b815260040160405180910390fd5b5f61038082610797565b90506001600160801b038111156103aa5760405163a8c399e560e01b815260040160405180910390fd5b6103be858284608001518560a0015161083d565b9250825f036103e0576040516301a7e28b60e61b815260040160405180910390fd5b505092915050565b5f5f5f9054906101000a90046001600160a01b03166001600160a01b031663c3f909d46040518163ffffffff1660e01b815260040160c060405180830381865afa158015610438573d5f5f3e3d5ffd5b505050506040513d601f19601f8201168201806040525081019061045c9190610a8e565b60200151905090565b5f8054604080516330fe427560e21b815290516104d7926001600160a01b03169163c3f909d49160048083019260c09291908290030181865afa1580156104ae573d5f5f3e3d5ffd5b505050506040513d601f19601f820116820180604052508101906104d29190610a8e565b610797565b905090565b6040805160c080820183525f80835260208301819052828401819052606083018190526080830181905260a083018190525483516330fe427560e21b8152935192936001600160a01b039091169263c3f909d4926004808401939192918290030181865afa158015610550573d5f5f3e3d5ffd5b505050506040513d601f19601f820116820180604052508101906104d79190610a8e565b7ff0c57e16840df040f15088dc2f81fe391c3923bec73e23a9662efc9c229c6a008054600160401b810460ff16159067ffffffffffffffff165f811580156105b95750825b90505f8267ffffffffffffffff1660011480156105d55750303b155b9050811580156105e3575080155b156106015760405163f92ee8a960e01b815260040160405180910390fd5b845467ffffffffffffffff19166001178555831561062b57845460ff60401b1916600160401b1785555b5f80546001600160a01b0319166001600160a01b038816908117909155604080516330fe427560e21b81529051610685929163c3f909d49160048083019260c09291908290030181865afa1580156104ae573d5f5f3e3d5ffd5b5083156106cc57845460ff60401b19168555604051600181527fc7f505b2f371ae2175ee4913f4499e1f2633a7b5936321eed1cdaeb6115181d29060200160405180910390a15b505050505050565b5f5f5f9054906101000a90046001600160a01b03166001600160a01b031663c3f909d46040518163ffffffff1660e01b815260040160c060405180830381865afa158015610724573d5f5f3e3d5ffd5b505050506040513d601f19601f820116820180604052508101906107489190610a8e565b51919050565b5f808080808061075c6106d4565b90505f61076882610877565b905061078661078161077b83600a610c25565b846102ac565b6108e2565b96974296508695505f945092505050565b5f5f82604001516001600160a01b03166389b94ea284606001516040518263ffffffff1660e01b81526004016107cf91815260200190565b608060405180830381865afa1580156107ea573d5f5f3e3d5ffd5b505050506040513d601f19601f8201168201806040525081019061080e9190610c30565b905080604001515f036108335760405162a26a3560e41b815260040160405180910390fd5b6060015192915050565b5f815f0361085e57828486028161085657610856610c9f565b04905061086f565b84840261086b8382610cb3565b9150505b949350505050565b6040805160048152602481019091526020810180516001600160e01b031663313ce56760e01b1790525f90819081906108b1908590610916565b91509150816108c357505f9392505050565b808060200190518101906108d79190610cca565b60ff16949350505050565b5f6001600160ff1b038211156109125760405163123baf0360e11b81526004810183905260240160405180910390fd5b5090565b5f60606001600160a01b0384163b610941576040516373d39f9d60e01b815260040160405180910390fd5b5f5f856001600160a01b03168560405161095b9190610cea565b5f60405180830381855afa9150503d805f8114610993576040519150601f19603f3d011682016040523d82523d5f602084013e610998565b606091505b5091509150816109bd575f60405180602001604052805f8152509350935050506109c5565b600193509150505b9250929050565b6001600160a01b0381168114610268575f5ffd5b5f5f604083850312156109f1575f5ffd5b823591506020830135610a03816109cc565b809150509250929050565b602081525f82518060208401528060208501604085015e5f604082850101526040601f19601f83011684010191505092915050565b5f60208284031215610a53575f5ffd5b813569ffffffffffffffffffff81168114610a6c575f5ffd5b9392505050565b5f60208284031215610a83575f5ffd5b8135610a6c816109cc565b5f60c0828403128015610a9f575f5ffd5b5060405160c0810167ffffffffffffffff81118282101715610acf57634e487b7160e01b5f52604160045260245ffd5b6040528251610add816109cc565b81526020830151610aed816109cc565b60208201526040830151610b00816109cc565b6040820152606083810151908201526080808401519082015260a0928301519281019290925250919050565b634e487b7160e01b5f52601160045260245ffd5b6001815b6001841115610b7b57808504811115610b5f57610b5f610b2c565b6001841615610b6d57908102905b60019390931c928002610b44565b935093915050565b5f82610b9157506001610c1f565b81610b9d57505f610c1f565b8160018114610bb35760028114610bbd57610bd9565b6001915050610c1f565b60ff841115610bce57610bce610b2c565b50506001821b610c1f565b5060208310610133831016604e8410600b8410161715610bfc575081810a610c1f565b610c085f198484610b40565b805f1904821115610c1b57610c1b610b2c565b0290505b92915050565b5f610a6c8383610b83565b5f6080828403128015610c41575f5ffd5b506040516080810167ffffffffffffffff81118282101715610c7157634e487b7160e01b5f52604160045260245ffd5b6040908152835182526020808501519083015283810151908201526060928301519281019290925250919050565b634e487b7160e01b5f52601260045260245ffd5b8082028115828204841417610c1f57610c1f610b2c565b5f60208284031215610cda575f5ffd5b815160ff81168114610a6c575f5ffd5b5f82518060208501845e5f92019182525091905056fea264697066735822122021c2ae1704adb607da95a31675dfeaa262815f50feb7a307b2f58630c46052f464736f6c634300081c0033",
  "language": "Solidity",
  "compiler": "0.8.28+commit.7893614a"
}