{
  "address": "0xe90c78dBe44A59848cEfeFbB3866854DDb509F0e",
  "abi": [
    {
      "type": "function",
      "name": "decimals",
      "inputs": [],
      "outputs": [
        {
          "name": "",
          "type": "uint8",
          "internalType": "uint8"
        }
      ],
      "stateMutability": "pure"
    },
    {
      "type": "function",
      "name": "name",
      "inputs": [],
      "outputs": [
        {
          "name": "",
          "type": "string",
          "internalType": "string"
        }
      ],
      "stateMutability": "pure"
    },
    {
      "type": "function",
      "name": "symbol",
      "inputs": [],
      "outputs": [
        {
          "name": "",
          "type": "string",
          "internalType": "string"
        }
      ],
      "stateMutability": "pure"
    }
  ],
  "bytecode": "0x6080604052348015600e575f5ffd5b5061011e8061001c5f395ff3fe6080604052348015600e575f5ffd5b5060043610603a575f3560e01c806306fdde0314603e578063313ce56714608757806395d89b41146095575b5f5ffd5b60408051808201909152601881527f53696c6f205669727475616c204173736574202d20425443000000000000000060208201525b604051607e919060b3565b60405180910390f35b60405160088152602001607e565b60408051808201909152600381526242544360e81b60208201526073565b602081525f82518060208401528060208501604085015e5f604082850101526040601f19601f8301168401019150509291505056fea264697066735822122092938fe52efcc2cb0f5128b57d6e4da7de06d4e2f32e64482408aff037d149e664736f6c634300081c0033",
  "language": "Solidity",
  "compiler": "0.8.28+commit.7893614a"
}