{
  "address": "0x1d51F30e5C8ec1C6eFEB5d1877F7302A09A03Ed1",
  "abi": [
    {
      "type": "constructor",
      "inputs": [],
      "stateMutability": "nonpayable"
    },
    {
      "type": "function",
      "name": "IMPLEMENTATION",
      "inputs": [],
      "outputs": [
        {
          "name": "",
          "type": "address",
          "internalType": "address"
        }
      ],
      "stateMutability": "view"
    },
    {
      "type": "function",
      "name": "create",
      "inputs": [
        {
          "name": "_collateralShareToken",
          "type": "address",
          "internalType": "contract IShareToken"
        }
      ],
      "outputs": [
        {
          "name": "controller",
          "type": "address",
          "internalType": "address"
        }
      ],
      "stateMutability": "nonpayable"
    },
    {
      "type": "event",
      "name": "PermissionedLiquidationControllerCreated",
      "inputs": [
        {
          "name": "controller",
          "type": "address",
          "indexed": true,
          "internalType": "address"
        },
        {
          "name": "collateralShareToken",
          "type": "address",
          "indexed": true,
          "internalType": "address"
        }
      ],
      "anonymous": false
    }
  ],
  "bytecode": "0x60a0604052348015600e575f5ffd5b506040516019906042565b604051809103905ff0801580156031573d5f5f3e3d5ffd5b506001600160a01b0316608052604f565b611bf3806111d583390190565b60805161116861006d5f395f8181603d015261019401526111685ff3fe608060405234801561000f575f5ffd5b5060043610610034575f3560e01c80633a4741bd146100385780639ed933181461007b575b5f5ffd5b61005f7f000000000000000000000000000000000000000000000000000000000000000081565b6040516001600160a01b03909116815260200160405180910390f35b61005f610089366004610254565b5f5f826001600160a01b0316638fea80626040518163ffffffff1660e01b8152600401602060405180830381865afa1580156100c7573d5f5f3e3d5ffd5b505050506040513d601f19601f820116820180604052508101906100eb9190610276565b6001600160a01b0316638da5cb5b6040518163ffffffff1660e01b8152600401602060405180830381865afa158015610126573d5f5f3e3d5ffd5b505050506040513d601f19601f8201168201806040525081019061014a9190610276565b6040516001600160a01b03851660248201529091505f9060440160408051601f198184030181529181526020820180516001600160e01b031663189acdbd60e31b179052519091507f000000000000000000000000000000000000000000000000000000000000000090839083906101c190610230565b6101cd93929190610291565b604051809103905ff0801580156101e6573d5f5f3e3d5ffd5b509250836001600160a01b0316836001600160a01b03167f1bd89cde7f50ffb0dd68dcedc3000a445d7c9f22767b06f875ab7a8b835b080660405160405180910390a35050919050565b610e4e806102e583390190565b6001600160a01b0381168114610251575f5ffd5b50565b5f60208284031215610264575f5ffd5b813561026f8161023d565b9392505050565b5f60208284031215610286575f5ffd5b815161026f8161023d565b60018060a01b038416815260018060a01b0383166020820152606060408201525f82518060608401528060208501608085015e5f608082850101526080601f19601f83011684010191505094935050505056fe60a060405234801561000f575f5ffd5b50604051610e4e380380610e4e83398101604081905261002e9161037c565b828282828161003d828261009e565b50508160405161004c90610340565b6001600160a01b039091168152602001604051809103905ff080158015610075573d5f5f3e3d5ffd5b506001600160a01b031660805261009361008e60805190565b6100fc565b505050505050610463565b6100a782610169565b6040516001600160a01b038316907fbc7cd75a20ee27fd9adebab32041f755214dbc6bffa90cc0225b39da2e5c2d3b905f90a28051156100f0576100eb82826101e7565b505050565b6100f861025a565b5050565b7f7e644d79422f17c01e4894b5f4f588d331ebfa28653d42ae832dc59e38c9798f61013b5f516020610e2e5f395f51905f52546001600160a01b031690565b604080516001600160a01b03928316815291841660208301520160405180910390a16101668161027b565b50565b806001600160a01b03163b5f036101a357604051634c9c8ce360e01b81526001600160a01b03821660048201526024015b60405180910390fd5b807f360894a13ba1a3210667c828492db98dca3e2076cc3735a920a3ca505d382bbc5b80546001600160a01b0319166001600160a01b039290921691909117905550565b60605f5f846001600160a01b031684604051610203919061044d565b5f60405180830381855af49150503d805f811461023b576040519150601f19603f3d011682016040523d82523d5f602084013e610240565b606091505b5090925090506102518583836102b8565b95945050505050565b34156102795760405163b398979f60e01b815260040160405180910390fd5b565b6001600160a01b0381166102a457604051633173bdd160e11b81525f600482015260240161019a565b805f516020610e2e5f395f51905f526101c6565b6060826102cd576102c882610317565b610310565b81511580156102e457506001600160a01b0384163b155b1561030d57604051639996b31560e01b81526001600160a01b038516600482015260240161019a565b50805b9392505050565b8051156103275780518082602001fd5b60405163d6bda27560e01b815260040160405180910390fd5b6104e68061094883390190565b80516001600160a01b0381168114610363575f5ffd5b919050565b634e487b7160e01b5f52604160045260245ffd5b5f5f5f6060848603121561038e575f5ffd5b6103978461034d565b92506103a56020850161034d565b60408501519092506001600160401b038111156103c0575f5ffd5b8401601f810186136103d0575f5ffd5b80516001600160401b038111156103e9576103e9610368565b604051601f8201601f19908116603f011681016001600160401b038111828210171561041757610417610368565b60405281815282820160200188101561042e575f5ffd5b8160208401602083015e5f602083830101528093505050509250925092565b5f82518060208501845e5f920191825250919050565b6080516104c86104805f395f818160400152607d01526104c85ff3fe608060405260043610610021575f3560e01c80636e9960c31461003257610028565b3661002857005b61003061007b565b005b34801561003d575f5ffd5b507f00000000000000000000000000000000000000000000000000000000000000006040516001600160a01b03909116815260200160405180910390f35b7f00000000000000000000000000000000000000000000000000000000000000006001600160a01b031633036100e7575f356001600160e01b03191663278f794360e11b146100dd576040516334ad5dbb60e21b815260040160405180910390fd5b6100e56100f4565b565b6100e5610122565b905090565b5f806101033660048184610370565b81019061011091906103ab565b9150915061011e8282610132565b5050565b6100e561012d61018c565b6101be565b61013b826101dc565b6040516001600160a01b038316907fbc7cd75a20ee27fd9adebab32041f755214dbc6bffa90cc0225b39da2e5c2d3b905f90a28051156101845761017f8282610257565b505050565b61011e6102c9565b5f6100ef7f360894a13ba1a3210667c828492db98dca3e2076cc3735a920a3ca505d382bbc546001600160a01b031690565b365f5f375f5f365f845af43d5f5f3e8080156101d8573d5ff35b3d5ffd5b806001600160a01b03163b5f0361021657604051634c9c8ce360e01b81526001600160a01b03821660048201526024015b60405180910390fd5b7f360894a13ba1a3210667c828492db98dca3e2076cc3735a920a3ca505d382bbc80546001600160a01b0319166001600160a01b0392909216919091179055565b60605f5f846001600160a01b031684604051610273919061047c565b5f60405180830381855af49150503d805f81146102ab576040519150601f19603f3d011682016040523d82523d5f602084013e6102b0565b606091505b50915091506102c08583836102e8565b95945050505050565b34156100e55760405163b398979f60e01b815260040160405180910390fd5b6060826102fd576102f882610347565b610340565b815115801561031457506001600160a01b0384163b155b1561033d57604051639996b31560e01b81526001600160a01b038516600482015260240161020d565b50805b9392505050565b8051156103575780518082602001fd5b60405163d6bda27560e01b815260040160405180910390fd5b5f5f8585111561037e575f5ffd5b8386111561038a575f5ffd5b5050820193919092039150565b634e487b7160e01b5f52604160045260245ffd5b5f5f604083850312156103bc575f5ffd5b82356001600160a01b03811681146103d2575f5ffd5b9150602083013567ffffffffffffffff8111156103ed575f5ffd5b8301601f810185136103fd575f5ffd5b803567ffffffffffffffff81111561041757610417610397565b604051601f8201601f19908116603f0116810167ffffffffffffffff8111828210171561044657610446610397565b60405281815282820160200187101561045d575f5ffd5b816020840160208301375f602083830101528093505050509250929050565b5f82518060208501845e5f92019182525091905056fea26469706673582212206264e510734e6ea5c5d62e31ade5eb2c389b0a3d14bd73df9fd8422331a1797764736f6c634300081c00336080604052348015600e575f5ffd5b506040516104e63803806104e6833981016040819052602b9160b4565b806001600160a01b038116605857604051631e4fbdf760e01b81525f600482015260240160405180910390fd5b605f816065565b505060df565b5f80546001600160a01b038381166001600160a01b0319831681178455604051919092169283917f8be0079c531659141344cd1fd0a4f28419497f9722a3daafe3b4186f6b6457e09190a35050565b5f6020828403121560c3575f5ffd5b81516001600160a01b038116811460d8575f5ffd5b9392505050565b6103fa806100ec5f395ff3fe608060405260043610610049575f3560e01c8063715018a61461004d5780638da5cb5b146100635780639623609d1461008e578063ad3cb1cc146100a1578063f2fde38b146100de575b5f5ffd5b348015610058575f5ffd5b506100616100fd565b005b34801561006e575f5ffd5b505f546040516001600160a01b0390911681526020015b60405180910390f35b61006161009c366004610260565b610110565b3480156100ac575f5ffd5b506100d1604051806040016040528060058152602001640352e302e360dc1b81525081565b6040516100859190610365565b3480156100e9575f5ffd5b506100616100f836600461037e565b61017b565b6101056101bd565b61010e5f6101e9565b565b6101186101bd565b60405163278f794360e11b81526001600160a01b03841690634f1ef2869034906101489086908690600401610399565b5f604051808303818588803b15801561015f575f5ffd5b505af1158015610171573d5f5f3e3d5ffd5b5050505050505050565b6101836101bd565b6001600160a01b0381166101b157604051631e4fbdf760e01b81525f60048201526024015b60405180910390fd5b6101ba816101e9565b50565b5f546001600160a01b0316331461010e5760405163118cdaa760e01b81523360048201526024016101a8565b5f80546001600160a01b038381166001600160a01b0319831681178455604051919092169283917f8be0079c531659141344cd1fd0a4f28419497f9722a3daafe3b4186f6b6457e09190a35050565b6001600160a01b03811681146101ba575f5ffd5b634e487b7160e01b5f52604160045260245ffd5b5f5f5f60608486031215610272575f5ffd5b833561027d81610238565b9250602084013561028d81610238565b9150604084013567ffffffffffffffff8111156102a8575f5ffd5b8401601f810186136102b8575f5ffd5b803567ffffffffffffffff8111156102d2576102d261024c565b604051601f8201601f19908116603f0116810167ffffffffffffffff811182821017156103015761030161024c565b604052818152828201602001881015610318575f5ffd5b816020840160208301375f602083830101528093505050509250925092565b5f81518084528060208401602086015e5f602082860101526020601f19601f83011685010191505092915050565b602081525f6103776020830184610337565b9392505050565b5f6020828403121561038e575f5ffd5b813561037781610238565b6001600160a01b03831681526040602082018190525f906103bc90830184610337565b94935050505056fea26469706673582212209758516ef42f379e59850e54bc8051e53e23b1bdc11ccfd348933098e87599b564736f6c634300081c0033b53127684a568b3173ae13b9f8a6016e243e63b6e8ee1178d6a717850b5d6103a26469706673582212206d8884043da7f638092136facbc93ce7fbdcc5fa232d90f0a7177737b6ddb6a764736f6c634300081c00336080604052348015600e575f5ffd5b5060156019565b60c9565b7ff0c57e16840df040f15088dc2f81fe391c3923bec73e23a9662efc9c229c6a00805468010000000000000000900460ff161560685760405163f92ee8a960e01b815260040160405180910390fd5b80546001600160401b039081161460c65780546001600160401b0319166001600160401b0390811782556040519081527fc7f505b2f371ae2175ee4913f4499e1f2633a7b5936321eed1cdaeb6115181d29060200160405180910390a15b50565b611b1d806100d65f395ff3fe608060405234801561000f575f5ffd5b5060043610610276575f3560e01c80639f2e6a0c11610156578063ca15c873116100ca578063e7b8b9c411610084578063e7b8b9c414610596578063ef5cfb8c1461065c578063f5ba47501461066a578063f5cf673b14610682578063fb71aec514610694578063ffa1ad74146106a3575f5ffd5b8063ca15c873146105f4578063cc080164146104e1578063cd72a4bf14610607578063d32f71541461061a578063d34fb26714610641578063d547741f14610649575f5ffd5b8063ab8f09451161011b578063ab8f0945146105a4578063ae24e092146105ac578063b5a89065146104e1578063b90817f2146105c0578063bbdc013b146105ce578063c4d66de8146105e1575f5ffd5b80639f2e6a0c1461053a578063a217fddf1461054b578063a3246ad314610552578063a5eb3f0d14610572578063a7b800dd14610596575f5ffd5b806359d5fc8c116101ed5780638ba2c3c8116101b25780638ba2c3c8146104e15780638da5cb5b146104ef5780638fea8062146104f75780639010d07c1461050a57806391d148541461051d5780639c868ac014610530575f5ffd5b806359d5fc8c146103f15780636c9fa59e146104065780636f564e7d1461041957806374d945ec1461043a57806382794f391461044d575f5ffd5b80632f2ff15d1161023e5780632f2ff15d1461030b578063328d8f721461031e57806336568abe14610331578063421f5b131461034457806352c702a6146103d357806358703bed146103db575f5ffd5b806301ffc9a71461027a57806306363975146102a25780631d7e3556146102b5578063248a9ca3146102da5780632ad87c6f146102b5575b5f5ffd5b61028d61028836600461123e565b6106ab565b60405190151581526020015b60405180910390f35b6102b36102b036600461132c565b50565b005b6004546001600160a01b03165b6040516001600160a01b039091168152602001610299565b6102fd6102e836600461141b565b5f908152600160208190526040909120015490565b604051908152602001610299565b6102b3610319366004611432565b6106d5565b6102b361032c36600461146d565b6106fa565b6102b361033f366004611432565b61078b565b6103a4604080516060810182525f808252602082018190529181019190915250604080516060810182526005546001600160a01b038116825260ff600160a01b8204811615156020840152600160a81b9091041615159181019190915290565b6040805182516001600160a01b0316815260208084015115159082015291810151151590820152606001610299565b6102b36107be565b6102fd6103e93660046114cf565b5f9392505050565b6102fd6103ff36600461151f565b5f92915050565b6004546102c2906001600160a01b031681565b61042d61042736600461141b565b50606090565b6040516102999190611577565b6102c2610448366004611589565b505f90565b61048a61045b3660046115e1565b50506040805160a0810182525f8082526020820181905291810182905260608101829052608081019190915290565b60405161029991905f60a0820190508251825260018060a01b0360208401511660208301526040830151604083015264ffffffffff606084015116606083015264ffffffffff608084015116608083015292915050565b6102fd6103e936600461161f565b6102c2610815565b6003546102c2906001600160a01b031681565b6102c2610518366004611662565b61083f565b61028d61052b366004611432565b61085d565b5f5460ff1661028d565b6003546001600160a01b03166102c2565b6102fd5f81565b61056561056036600461141b565b610887565b6040516102999190611682565b6105896105803660046114cf565b60609392505050565b60405161029991906116cd565b6102fd6103ff3660046115e1565b6102b36108a0565b6102b36105ba366004611726565b50505050565b6102b36102b0366004611589565b6102b36105dc36600461177d565b6108dd565b6102b36105ef366004611589565b610a1d565b6102fd61060236600461141b565b610d96565b6102b36106153660046117d5565b505050565b6102fd7fd5dc6b389d0dd5687ab5bd9338f760ebeaff2d2852a93a9a9ebaebbfefc763ac81565b6102b3610dac565b6102b3610657366004611432565b610de6565b610589610427366004611589565b610589610678366004611824565b6060949350505050565b6102b3610690366004611884565b5050565b606060405161029991906118b0565b61042d610e0b565b5f6001600160e01b03198216635a05180f60e01b14806106cf57506106cf82610e2b565b92915050565b5f82815260016020819052604090912001546106f081610e5f565b6105ba8383610e69565b610702610e9c565b600554811515600160a01b90910460ff161515036107335760405163437e8a3960e01b815260040160405180910390fd5b60058054821515600160a01b0260ff60a01b199091161790556040517f771a7aa6908240b30698825129cb3d6dfa4308b3ac33cf77f17889143e29346d9061078090831515815260200190565b60405180910390a150565b6001600160a01b03811633146107b45760405163334bd91960e11b815260040160405180910390fd5b6106158282610ed7565b6107e87fd5dc6b389d0dd5687ab5bd9338f760ebeaff2d2852a93a9a9ebaebbfefc763ac3361085d565b610805576040516394572de960e01b815260040160405180910390fd5b60015f805c60ff19168217905d50565b5f8061082081610d96565b90508015610837576108325f8061083f565b610839565b5f5b91505090565b5f8281526002602052604081206108569083610f02565b9392505050565b5f9182526001602090815260408084206001600160a01b0393909316845291905290205460ff1690565b5f8181526002602052604090206060906106cf90610f0d565b6108a8610e9c565b5f805460ff191660011781556040517f1cd942681240393874c94d43d81f6d2be3e0a1f94e200f58cdb151773cbec7ba9190a1565b6003546001600160a01b03163314610908576040516380897acb60e01b815260040160405180910390fd5b604080516060810182526005546001600160a01b038116825260ff600160a01b82048116151560208401819052600160a81b90920416151592820192909252906109525750610a15565b60ff5f5c16156109625750610a15565b8060400151156109725750610a15565b61097c8786610f19565b6109865750610a15565b80516040516338b51ce160e01b81526001600160a01b0389811660048301525f9216906338b51ce190602401602060405180830381865afa1580156109cd573d5f5f3e3d5ffd5b505050506040513d601f19601f820116820180604052508101906109f1919061191e565b1590508015610a12576040516229abe760e51b815260040160405180910390fd5b50505b505050505050565b7ff0c57e16840df040f15088dc2f81fe391c3923bec73e23a9662efc9c229c6a008054600160401b810460ff1615906001600160401b03165f81158015610a615750825b90505f826001600160401b03166001148015610a7c5750303b155b905081158015610a8a575080155b15610aa85760405163f92ee8a960e01b815260040160405180910390fd5b845467ffffffffffffffff191660011785558315610ad257845460ff60401b1916600160401b1785555b856001600160a01b0316638fea80626040518163ffffffff1660e01b8152600401602060405180830381865afa158015610b0e573d5f5f3e3d5ffd5b505050506040513d601f19601f82011682018060405250810190610b329190611944565b600380546001600160a01b039283166001600160a01b0319918216179091556004805492891692909116821781556040805163eb3beb2960e01b815290515f939263eb3beb29928082019260209290918290030181865afa158015610b99573d5f5f3e3d5ffd5b505050506040513d601f19601f82011682018060405250810190610bbd9190611944565b90505f816001600160a01b03166379502c556040518163ffffffff1660e01b8152600401602060405180830381865afa158015610bfc573d5f5f3e3d5ffd5b505050506040513d601f19601f82011682018060405250810190610c209190611944565b60405163e48a5f7b60e01b81526001600160a01b038481166004830152919091169063e48a5f7b9060240161022060405180830381865afa158015610c67573d5f5f3e3d5ffd5b505050506040513d601f19601f82011682018060405250810190610c8b919061195f565b604080516060810182526001600160a01b038581168083525f60208085019190915260c08601518e841690841614938501849052600580546001600160b01b031916909217600160a81b9094029390931790556003548351638da5cb5b60e01b81529351949550610d4794911692638da5cb5b9260048083019391928290030181865afa158015610d1e573d5f5f3e3d5ffd5b505050506040513d601f19601f82011682018060405250810190610d429190611944565b610f3e565b50508315610a1557845460ff60401b19168555604051600181527fc7f505b2f371ae2175ee4913f4499e1f2633a7b5936321eed1cdaeb6115181d29060200160405180910390a1505050505050565b5f8181526002602052604081206106cf90610f48565b610db4610e9c565b5f805460ff191681556040517f2bb961d4f48d79d94b84e7017d12533eff7562d60f9fcbdc7784646269c1ec219190a1565b5f8281526001602081905260409091200154610e0181610e5f565b6105ba8383610ed7565b6060604051806060016040528060288152602001611ac060289139905090565b5f6001600160e01b03198216637965db0b60e01b14806106cf57506301ffc9a760e01b6001600160e01b03198316146106cf565b6102b08133610f51565b5f5f610e758484610f8e565b90508015610856575f848152600260205260409020610e949084611004565b509392505050565b610ea4610815565b6001600160a01b0316336001600160a01b031614610ed557604051635fc483c560e01b815260040160405180910390fd5b565b5f5f610ee38484611018565b90508015610856575f848152600260205260409020610e949084611083565b5f6108568383611097565b60605f610856836110bd565b5f6001600160a01b038316158015906108565750506001600160a01b03161515919050565b6106905f82610e69565b5f6106cf825490565b610f5b828261085d565b6106905760405163e2517d3f60e01b81526001600160a01b03821660048201526024810183905260440160405180910390fd5b5f610f99838361085d565b610ffd575f8381526001602081815260408084206001600160a01b0387168086529252808420805460ff19169093179092559051339286917f2f8788117e7eff1d82e926ec794901d17c78024a50270940304540a733656f0d9190a45060016106cf565b505f6106cf565b5f610856836001600160a01b038416611116565b5f611023838361085d565b15610ffd575f8381526001602090815260408083206001600160a01b0386168085529252808320805460ff1916905551339286917ff6391f5c32d9c69d2a47ea670b442974b53935d1edc7fd64eb21e047a839171b9190a45060016106cf565b5f610856836001600160a01b03841661115b565b5f825f0182815481106110ac576110ac611a78565b905f5260205f200154905092915050565b6060815f0180548060200260200160405190810160405280929190818152602001828054801561110a57602002820191905f5260205f20905b8154815260200190600101908083116110f6575b50505050509050919050565b5f818152600183016020526040812054610ffd57508154600181810184555f8481526020808220909301849055845484825282860190935260409020919091556106cf565b5f8181526001830160205260408120548015611235575f61117d600183611a8c565b85549091505f9061119090600190611a8c565b90508082146111ef575f865f0182815481106111ae576111ae611a78565b905f5260205f200154905080875f0184815481106111ce576111ce611a78565b5f918252602080832090910192909255918252600188019052604090208390555b855486908061120057611200611aab565b600190038181905f5260205f20015f90559055856001015f8681526020019081526020015f205f9055600193505050506106cf565b5f9150506106cf565b5f6020828403121561124e575f5ffd5b81356001600160e01b031981168114610856575f5ffd5b634e487b7160e01b5f52604160045260245ffd5b604051608081016001600160401b038111828210171561129b5761129b611265565b60405290565b60405161022081016001600160401b038111828210171561129b5761129b611265565b604051601f8201601f191681016001600160401b03811182821017156112ec576112ec611265565b604052919050565b6001600160a01b03811681146102b0575f5ffd5b8035611313816112f4565b919050565b803564ffffffffff81168114611313575f5ffd5b5f6020828403121561133c575f5ffd5b81356001600160401b03811115611351575f5ffd5b820160808185031215611362575f5ffd5b61136a611279565b81356001600160401b0381111561137f575f5ffd5b8201601f8101861361138f575f5ffd5b80356001600160401b038111156113a8576113a8611265565b6113bb601f8201601f19166020016112c4565b8181528760208385010111156113cf575f5ffd5b816020840160208301375f602083830101528084525050506113f360208301611308565b60208201526040828101359082015261140e60608301611318565b6060820152949350505050565b5f6020828403121561142b575f5ffd5b5035919050565b5f5f60408385031215611443575f5ffd5b823591506020830135611455816112f4565b809150509250929050565b80151581146102b0575f5ffd5b5f6020828403121561147d575f5ffd5b813561085681611460565b5f5f83601f840112611498575f5ffd5b5081356001600160401b038111156114ae575f5ffd5b6020830191508360208260051b85010111156114c8575f5ffd5b9250929050565b5f5f5f604084860312156114e1575f5ffd5b83356114ec816112f4565b925060208401356001600160401b03811115611506575f5ffd5b61151286828701611488565b9497909650939450505050565b5f5f60408385031215611530575f5ffd5b823561153b816112f4565b946020939093013593505050565b5f81518084528060208401602086015e5f602082860101526020601f19601f83011685010191505092915050565b602081525f6108566020830184611549565b5f60208284031215611599575f5ffd5b8135610856816112f4565b5f5f83601f8401126115b4575f5ffd5b5081356001600160401b038111156115ca575f5ffd5b6020830191508360208285010111156114c8575f5ffd5b5f5f602083850312156115f2575f5ffd5b82356001600160401b03811115611607575f5ffd5b611613858286016115a4565b90969095509350505050565b5f5f5f60408486031215611631575f5ffd5b833561163c816112f4565b925060208401356001600160401b03811115611656575f5ffd5b611512868287016115a4565b5f5f60408385031215611673575f5ffd5b50508035926020909101359150565b602080825282518282018190525f918401906040840190835b818110156116c25783516001600160a01b031683526020938401939092019160010161169b565b509095945050505050565b602080825282518282018190525f918401906040840190835b818110156116c257835180518452602080820151818601526040918201516001600160a01b031691850191909152909301926060909201916001016116e6565b5f5f5f5f60608587031215611739575f5ffd5b84356001600160401b0381111561174e575f5ffd5b61175a878288016115a4565b909550935061176d905060208601611318565b9396929550929360400135925050565b5f5f5f5f5f5f60c08789031215611792575f5ffd5b863561179d816112f4565b95506020870135945060408701356117b4816112f4565b959894975094956060810135955060808101359460a0909101359350915050565b5f5f5f604084860312156117e7575f5ffd5b83356001600160401b038111156117fc575f5ffd5b611808868287016115a4565b909450925061181b905060208501611318565b90509250925092565b5f5f5f5f60608587031215611837575f5ffd5b8435611842816112f4565b93506020850135611852816112f4565b925060408501356001600160401b0381111561186c575f5ffd5b61187887828801611488565b95989497509550505050565b5f5f60408385031215611895575f5ffd5b82356118a0816112f4565b91506020830135611455816112f4565b5f602082016020835280845180835260408501915060408160051b8601019250602086015f5b8281101561190757603f198786030184526118f2858351611549565b945060209384019391909101906001016118d6565b50929695505050505050565b805161131381611460565b5f6020828403121561192e575f5ffd5b815161085681611460565b8051611313816112f4565b5f60208284031215611954575f5ffd5b8151610856816112f4565b5f610220828403128015611971575f5ffd5b5061197a6112a1565b825181526020808401519082015261199460408401611939565b60408201526119a560608401611939565b60608201526119b660808401611939565b60808201526119c760a08401611939565b60a08201526119d860c08401611939565b60c08201526119e960e08401611939565b60e08201526119fb6101008401611939565b610100820152611a0e6101208401611939565b6101208201526101408381015190820152610160808401519082015261018080840151908201526101a080840151908201526101c08084015190820152611a586101e08401611939565b6101e0820152611a6b6102008401611913565b6102008201529392505050565b634e487b7160e01b5f52603260045260245ffd5b818103818111156106cf57634e487b7160e01b5f52601160045260245ffd5b634e487b7160e01b5f52603160045260245ffdfe5065726d697373696f6e65644c69717569646174696f6e436f6e74726f6c6c657220342e31372e30a2646970667358221220bd22174307439cdfc108d1c5e0be806307ede15bdb98b6012e9fdc675db6c80a64736f6c634300081c0033",
  "language": "Solidity",
  "compiler": "0.8.28+commit.7893614a"
}