{
  "address": "0x8c3024280BF126db4bDbA2B5dE5b22ccCb26db98",
  "abi": [
    {
      "type": "function",
      "name": "ALLOWED_ROLE",
      "inputs": [],
      "outputs": [
        {
          "name": "",
          "type": "bytes32",
          "internalType": "bytes32"
        }
      ],
      "stateMutability": "view"
    },
    {
      "type": "function",
      "name": "DEFAULT_ADMIN_ROLE",
      "inputs": [],
      "outputs": [
        {
          "name": "",
          "type": "bytes32",
          "internalType": "bytes32"
        }
      ],
      "stateMutability": "view"
    },
    {
      "type": "function",
      "name": "KEEPER_FEE",
      "inputs": [],
      "outputs": [
        {
          "name": "",
          "type": "uint256",
          "internalType": "uint256"
        }
      ],
      "stateMutability": "view"
    },
    {
      "type": "function",
      "name": "LIQUIDATION_LOGIC",
      "inputs": [],
      "outputs": [
        {
          "name": "",
          "type": "address",
          "internalType": "address"
        }
      ],
      "stateMutability": "view"
    },
    {
      "type": "function",
      "name": "LT_MARGIN_FOR_DEFAULTING",
      "inputs": [],
      "outputs": [
        {
          "name": "",
          "type": "uint256",
          "internalType": "uint256"
        }
      ],
      "stateMutability": "pure"
    },
    {
      "type": "function",
      "name": "VERSION",
      "inputs": [],
      "outputs": [
        {
          "name": "",
          "type": "string",
          "internalType": "string"
        }
      ],
      "stateMutability": "pure"
    },
    {
      "type": "function",
      "name": "acceptOwnership",
      "inputs": [],
      "outputs": [],
      "stateMutability": "nonpayable"
    },
    {
      "type": "function",
      "name": "afterAction",
      "inputs": [
        {
          "name": "_silo",
          "type": "address",
          "internalType": "address"
        },
        {
          "name": "_action",
          "type": "uint256",
          "internalType": "uint256"
        },
        {
          "name": "_inputAndOutput",
          "type": "bytes",
          "internalType": "bytes"
        }
      ],
      "outputs": [],
      "stateMutability": "nonpayable"
    },
    {
      "type": "function",
      "name": "beforeAction",
      "inputs": [
        {
          "name": "",
          "type": "address",
          "internalType": "address"
        },
        {
          "name": "",
          "type": "uint256",
          "internalType": "uint256"
        },
        {
          "name": "",
          "type": "bytes",
          "internalType": "bytes"
        }
      ],
      "outputs": [],
      "stateMutability": "nonpayable"
    },
    {
      "type": "function",
      "name": "configuredGauges",
      "inputs": [
        {
          "name": "",
          "type": "address",
          "internalType": "contract IShareToken"
        }
      ],
      "outputs": [
        {
          "name": "",
          "type": "address",
          "internalType": "contract ISiloIncentivesController"
        }
      ],
      "stateMutability": "view"
    },
    {
      "type": "function",
      "name": "getKeeperAndLenderSharesSplit",
      "inputs": [
        {
          "name": "_assetsToLiquidate",
          "type": "uint256",
          "internalType": "uint256"
        },
        {
          "name": "_collateralType",
          "type": "uint8",
          "internalType": "enum ISilo.CollateralType"
        }
      ],
      "outputs": [
        {
          "name": "totalSharesToLiquidate",
          "type": "uint256",
          "internalType": "uint256"
        },
        {
          "name": "keeperShares",
          "type": "uint256",
          "internalType": "uint256"
        },
        {
          "name": "lendersShares",
          "type": "uint256",
          "internalType": "uint256"
        }
      ],
      "stateMutability": "view"
    },
    {
      "type": "function",
      "name": "getRoleAdmin",
      "inputs": [
        {
          "name": "role",
          "type": "bytes32",
          "internalType": "bytes32"
        }
      ],
      "outputs": [
        {
          "name": "",
          "type": "bytes32",
          "internalType": "bytes32"
        }
      ],
      "stateMutability": "view"
    },
    {
      "type": "function",
      "name": "getRoleMember",
      "inputs": [
        {
          "name": "role",
          "type": "bytes32",
          "internalType": "bytes32"
        },
        {
          "name": "index",
          "type": "uint256",
          "internalType": "uint256"
        }
      ],
      "outputs": [
        {
          "name": "",
          "type": "address",
          "internalType": "address"
        }
      ],
      "stateMutability": "view"
    },
    {
      "type": "function",
      "name": "getRoleMemberCount",
      "inputs": [
        {
          "name": "role",
          "type": "bytes32",
          "internalType": "bytes32"
        }
      ],
      "outputs": [
        {
          "name": "",
          "type": "uint256",
          "internalType": "uint256"
        }
      ],
      "stateMutability": "view"
    },
    {
      "type": "function",
      "name": "getRoleMembers",
      "inputs": [
        {
          "name": "role",
          "type": "bytes32",
          "internalType": "bytes32"
        }
      ],
      "outputs": [
        {
          "name": "",
          "type": "address[]",
          "internalType": "address[]"
        }
      ],
      "stateMutability": "view"
    },
    {
      "type": "function",
      "name": "grantRole",
      "inputs": [
        {
          "name": "role",
          "type": "bytes32",
          "internalType": "bytes32"
        },
        {
          "name": "account",
          "type": "address",
          "internalType": "address"
        }
      ],
      "outputs": [],
      "stateMutability": "nonpayable"
    },
    {
      "type": "function",
      "name": "hasRole",
      "inputs": [
        {
          "name": "role",
          "type": "bytes32",
          "internalType": "bytes32"
        },
        {
          "name": "account",
          "type": "address",
          "internalType": "address"
        }
      ],
      "outputs": [
        {
          "name": "",
          "type": "bool",
          "internalType": "bool"
        }
      ],
      "stateMutability": "view"
    },
    {
      "type": "function",
      "name": "hookReceiverConfig",
      "inputs": [
        {
          "name": "_silo",
          "type": "address",
          "internalType": "address"
        }
      ],
      "outputs": [
        {
          "name": "hooksBefore",
          "type": "uint24",
          "internalType": "uint24"
        },
        {
          "name": "hooksAfter",
          "type": "uint24",
          "internalType": "uint24"
        }
      ],
      "stateMutability": "view"
    },
    {
      "type": "function",
      "name": "initialize",
      "inputs": [
        {
          "name": "_config",
          "type": "address",
          "internalType": "contract ISiloConfig"
        },
        {
          "name": "_data",
          "type": "bytes",
          "internalType": "bytes"
        }
      ],
      "outputs": [],
      "stateMutability": "nonpayable"
    },
    {
      "type": "function",
      "name": "liquidationCall",
      "inputs": [
        {
          "name": "",
          "type": "address",
          "internalType": "address"
        },
        {
          "name": "",
          "type": "address",
          "internalType": "address"
        },
        {
          "name": "",
          "type": "address",
          "internalType": "address"
        },
        {
          "name": "",
          "type": "uint256",
          "internalType": "uint256"
        },
        {
          "name": "",
          "type": "bool",
          "internalType": "bool"
        }
      ],
      "outputs": [
        {
          "name": "",
          "type": "uint256",
          "internalType": "uint256"
        },
        {
          "name": "",
          "type": "uint256",
          "internalType": "uint256"
        }
      ],
      "stateMutability": "nonpayable"
    },
    {
      "type": "function",
      "name": "liquidationCallByDefaulting",
      "inputs": [
        {
          "name": "_borrower",
          "type": "address",
          "internalType": "address"
        }
      ],
      "outputs": [
        {
          "name": "withdrawCollateral",
          "type": "uint256",
          "internalType": "uint256"
        },
        {
          "name": "repayDebtAssets",
          "type": "uint256",
          "internalType": "uint256"
        }
      ],
      "stateMutability": "nonpayable"
    },
    {
      "type": "function",
      "name": "maxLiquidation",
      "inputs": [
        {
          "name": "_borrower",
          "type": "address",
          "internalType": "address"
        }
      ],
      "outputs": [
        {
          "name": "collateralToLiquidate",
          "type": "uint256",
          "internalType": "uint256"
        },
        {
          "name": "debtToRepay",
          "type": "uint256",
          "internalType": "uint256"
        },
        {
          "name": "sTokenRequired",
          "type": "bool",
          "internalType": "bool"
        }
      ],
      "stateMutability": "view"
    },
    {
      "type": "function",
      "name": "owner",
      "inputs": [],
      "outputs": [
        {
          "name": "",
          "type": "address",
          "internalType": "address"
        }
      ],
      "stateMutability": "view"
    },
    {
      "type": "function",
      "name": "pendingOwner",
      "inputs": [],
      "outputs": [
        {
          "name": "",
          "type": "address",
          "internalType": "address"
        }
      ],
      "stateMutability": "view"
    },
    {
      "type": "function",
      "name": "removeGauge",
      "inputs": [
        {
          "name": "_shareToken",
          "type": "address",
          "internalType": "contract IShareToken"
        }
      ],
      "outputs": [],
      "stateMutability": "nonpayable"
    },
    {
      "type": "function",
      "name": "renounceOwnership",
      "inputs": [],
      "outputs": [],
      "stateMutability": "nonpayable"
    },
    {
      "type": "function",
      "name": "renounceRole",
      "inputs": [
        {
          "name": "role",
          "type": "bytes32",
          "internalType": "bytes32"
        },
        {
          "name": "callerConfirmation",
          "type": "address",
          "internalType": "address"
        }
      ],
      "outputs": [],
      "stateMutability": "nonpayable"
    },
    {
      "type": "function",
      "name": "revokeRole",
      "inputs": [
        {
          "name": "role",
          "type": "bytes32",
          "internalType": "bytes32"
        },
        {
          "name": "account",
          "type": "address",
          "internalType": "address"
        }
      ],
      "outputs": [],
      "stateMutability": "nonpayable"
    },
    {
      "type": "function",
      "name": "setGauge",
      "inputs": [
        {
          "name": "_gauge",
          "type": "address",
          "internalType": "contract ISiloIncentivesController"
        },
        {
          "name": "_shareToken",
          "type": "address",
          "internalType": "contract IShareToken"
        }
      ],
      "outputs": [],
      "stateMutability": "nonpayable"
    },
    {
      "type": "function",
      "name": "siloConfig",
      "inputs": [],
      "outputs": [
        {
          "name": "",
          "type": "address",
          "internalType": "contract ISiloConfig"
        }
      ],
      "stateMutability": "view"
    },
    {
      "type": "function",
      "name": "supportsInterface",
      "inputs": [
        {
          "name": "interfaceId",
          "type": "bytes4",
          "internalType": "bytes4"
        }
      ],
      "outputs": [
        {
          "name": "",
          "type": "bool",
          "internalType": "bool"
        }
      ],
      "stateMutability": "view"
    },
    {
      "type": "function",
      "name": "transferOwnership",
      "inputs": [
        {
          "name": "newOwner",
          "type": "address",
          "internalType": "address"
        }
      ],
      "outputs": [],
      "stateMutability": "nonpayable"
    },
    {
      "type": "function",
      "name": "transferOwnership1Step",
      "inputs": [
        {
          "name": "newOwner",
          "type": "address",
          "internalType": "address"
        }
      ],
      "outputs": [],
      "stateMutability": "nonpayable"
    },
    {
      "type": "function",
      "name": "validateControllerForCollateral",
      "inputs": [
        {
          "name": "_silo",
          "type": "address",
          "internalType": "address"
        }
      ],
      "outputs": [
        {
          "name": "controllerCollateral",
          "type": "address",
          "internalType": "contract ISiloIncentivesController"
        }
      ],
      "stateMutability": "view"
    },
    {
      "type": "function",
      "name": "validateDefaultingCollateral",
      "inputs": [],
      "outputs": [],
      "stateMutability": "view"
    },
    {
      "type": "event",
      "name": "DefaultingLiquidation",
      "inputs": [
        {
          "name": "canceledDebt",
          "type": "uint256",
          "indexed": false,
          "internalType": "uint256"
        },
        {
          "name": "deductedFromCollateral",
          "type": "uint256",
          "indexed": false,
          "internalType": "uint256"
        }
      ],
      "anonymous": false
    },
    {
      "type": "event",
      "name": "DefaultingLiquidationData",
      "inputs": [
        {
          "name": "debtSilo",
          "type": "address",
          "indexed": true,
          "internalType": "address"
        },
        {
          "name": "borrower",
          "type": "address",
          "indexed": true,
          "internalType": "address"
        },
        {
          "name": "withdrawAssetsFromCollateral",
          "type": "uint256",
          "indexed": false,
          "internalType": "uint256"
        },
        {
          "name": "withdrawAssetsFromProtected",
          "type": "uint256",
          "indexed": false,
          "internalType": "uint256"
        },
        {
          "name": "repayDebtAssets",
          "type": "uint256",
          "indexed": false,
          "internalType": "uint256"
        }
      ],
      "anonymous": false
    },
    {
      "type": "event",
      "name": "GaugeConfigured",
      "inputs": [
        {
          "name": "gauge",
          "type": "address",
          "indexed": false,
          "internalType": "address"
        },
        {
          "name": "shareToken",
          "type": "address",
          "indexed": false,
          "internalType": "address"
        }
      ],
      "anonymous": false
    },
    {
      "type": "event",
      "name": "GaugeRemoved",
      "inputs": [
        {
          "name": "shareToken",
          "type": "address",
          "indexed": false,
          "internalType": "address"
        }
      ],
      "anonymous": false
    },
    {
      "type": "event",
      "name": "HookConfigured",
      "inputs": [
        {
          "name": "silo",
          "type": "address",
          "indexed": false,
          "internalType": "address"
        },
        {
          "name": "hooksBefore",
          "type": "uint24",
          "indexed": false,
          "internalType": "uint24"
        },
        {
          "name": "hooksAfter",
          "type": "uint24",
          "indexed": false,
          "internalType": "uint24"
        }
      ],
      "anonymous": false
    },
    {
      "type": "event",
      "name": "Initialized",
      "inputs": [
        {
          "name": "version",
          "type": "uint64",
          "indexed": false,
          "internalType": "uint64"
        }
      ],
      "anonymous": false
    },
    {
      "type": "event",
      "name": "LiquidationCall",
      "inputs": [
        {
          "name": "liquidator",
          "type": "address",
          "indexed": true,
          "internalType": "address"
        },
        {
          "name": "silo",
          "type": "address",
          "indexed": true,
          "internalType": "address"
        },
        {
          "name": "borrower",
          "type": "address",
          "indexed": true,
          "internalType": "address"
        },
        {
          "name": "repayDebtAssets",
          "type": "uint256",
          "indexed": false,
          "internalType": "uint256"
        },
        {
          "name": "withdrawCollateral",
          "type": "uint256",
          "indexed": false,
          "internalType": "uint256"
        },
        {
          "name": "receiveSToken",
          "type": "bool",
          "indexed": false,
          "internalType": "bool"
        }
      ],
      "anonymous": false
    },
    {
      "type": "event",
      "name": "LiquidationStart",
      "inputs": [
        {
          "name": "liquidationType",
          "type": "uint8",
          "indexed": true,
          "internalType": "enum IPartialLiquidation.LiquidationType"
        }
      ],
      "anonymous": false
    },
    {
      "type": "event",
      "name": "OwnershipTransferStarted",
      "inputs": [
        {
          "name": "previousOwner",
          "type": "address",
          "indexed": true,
          "internalType": "address"
        },
        {
          "name": "newOwner",
          "type": "address",
          "indexed": true,
          "internalType": "address"
        }
      ],
      "anonymous": false
    },
    {
      "type": "event",
      "name": "OwnershipTransferred",
      "inputs": [
        {
          "name": "previousOwner",
          "type": "address",
          "indexed": true,
          "internalType": "address"
        },
        {
          "name": "newOwner",
          "type": "address",
          "indexed": true,
          "internalType": "address"
        }
      ],
      "anonymous": false
    },
    {
      "type": "event",
      "name": "RoleAdminChanged",
      "inputs": [
        {
          "name": "role",
          "type": "bytes32",
          "indexed": true,
          "internalType": "bytes32"
        },
        {
          "name": "previousAdminRole",
          "type": "bytes32",
          "indexed": true,
          "internalType": "bytes32"
        },
        {
          "name": "newAdminRole",
          "type": "bytes32",
          "indexed": true,
          "internalType": "bytes32"
        }
      ],
      "anonymous": false
    },
    {
      "type": "event",
      "name": "RoleGranted",
      "inputs": [
        {
          "name": "role",
          "type": "bytes32",
          "indexed": true,
          "internalType": "bytes32"
        },
        {
          "name": "account",
          "type": "address",
          "indexed": true,
          "internalType": "address"
        },
        {
          "name": "sender",
          "type": "address",
          "indexed": true,
          "internalType": "address"
        }
      ],
      "anonymous": false
    },
    {
      "type": "event",
      "name": "RoleRevoked",
      "inputs": [
        {
          "name": "role",
          "type": "bytes32",
          "indexed": true,
          "internalType": "bytes32"
        },
        {
          "name": "account",
          "type": "address",
          "indexed": true,
          "internalType": "address"
        },
        {
          "name": "sender",
          "type": "address",
          "indexed": true,
          "internalType": "address"
        }
      ],
      "anonymous": false
    },
    {
      "type": "error",
      "name": "AccessControlBadConfirmation",
      "inputs": []
    },
    {
      "type": "error",
      "name": "AccessControlUnauthorizedAccount",
      "inputs": [
        {
          "name": "account",
          "type": "address",
          "internalType": "address"
        },
        {
          "name": "neededRole",
          "type": "bytes32",
          "internalType": "bytes32"
        }
      ]
    },
    {
      "type": "error",
      "name": "AlreadyConfigured",
      "inputs": []
    },
    {
      "type": "error",
      "name": "CantRemoveActiveGauge",
      "inputs": []
    },
    {
      "type": "error",
      "name": "CollateralNotSupportedForDefaulting",
      "inputs": []
    },
    {
      "type": "error",
      "name": "DeductDefaultedDebtFromCollateralFailed",
      "inputs": []
    },
    {
      "type": "error",
      "name": "EmptyCollateralShareToken",
      "inputs": []
    },
    {
      "type": "error",
      "name": "EmptyGaugeAddress",
      "inputs": []
    },
    {
      "type": "error",
      "name": "EmptySiloConfig",
      "inputs": []
    },
    {
      "type": "error",
      "name": "FullLiquidationRequired",
      "inputs": []
    },
    {
      "type": "error",
      "name": "GaugeAlreadyConfigured",
      "inputs": []
    },
    {
      "type": "error",
      "name": "GaugeIsNotConfigured",
      "inputs": []
    },
    {
      "type": "error",
      "name": "InvalidInitialization",
      "inputs": []
    },
    {
      "type": "error",
      "name": "InvalidLTConfig0",
      "inputs": []
    },
    {
      "type": "error",
      "name": "InvalidLTConfig1",
      "inputs": []
    },
    {
      "type": "error",
      "name": "InvalidShareToken",
      "inputs": []
    },
    {
      "type": "error",
      "name": "NoCollateralToLiquidate",
      "inputs": []
    },
    {
      "type": "error",
      "name": "NoControllerForCollateral",
      "inputs": []
    },
    {
      "type": "error",
      "name": "NoDebtToCover",
      "inputs": []
    },
    {
      "type": "error",
      "name": "NoRepayAssets",
      "inputs": []
    },
    {
      "type": "error",
      "name": "NotInitializing",
      "inputs": []
    },
    {
      "type": "error",
      "name": "NotSupported",
      "inputs": []
    },
    {
      "type": "error",
      "name": "OnlyAllowedRole",
      "inputs": []
    },
    {
      "type": "error",
      "name": "OnlySilo",
      "inputs": []
    },
    {
      "type": "error",
      "name": "OnlySiloOrShareToken",
      "inputs": []
    },
    {
      "type": "error",
      "name": "OwnableInvalidOwner",
      "inputs": [
        {
          "name": "owner",
          "type": "address",
          "internalType": "address"
        }
      ]
    },
    {
      "type": "error",
      "name": "OwnableUnauthorizedAccount",
      "inputs": [
        {
          "name": "account",
          "type": "address",
          "internalType": "address"
        }
      ]
    },
    {
      "type": "error",
      "name": "OwnerIsZeroAddress",
      "inputs": []
    },
    {
      "type": "error",
      "name": "ReentrancyGuardReentrantCall",
      "inputs": []
    },
    {
      "type": "error",
      "name": "RepayDebtByDefaultingFailed",
      "inputs": []
    },
    {
      "type": "error",
      "name": "RequestNotSupported",
      "inputs": []
    },
    {
      "type": "error",
      "name": "TwoWayMarketNotAllowed",
      "inputs": []
    },
    {
      "type": "error",
      "name": "UnexpectedCollateralToken",
      "inputs": []
    },
    {
      "type": "error",
      "name": "UnexpectedDebtToken",
      "inputs": []
    },
    {
      "type": "error",
      "name": "UnknownRatio",
      "inputs": []
    },
    {
      "type": "error",
      "name": "UnnecessaryLiquidationFee",
      "inputs": []
    },
    {
      "type": "error",
      "name": "UserIsSolvent",
      "inputs": []
    },
    {
      "type": "error",
      "name": "WrongGaugeShareToken",
      "inputs": []
    }
  ],
  "bytecode": "0x60a060405234801561000f575f5ffd5b50338061001a610093565b6001600160a01b03811661004757604051631e4fbdf760e01b81525f600482015260240160405180910390fd5b61005081610145565b5061005c90505f610145565b604051610068906101aa565b604051809103905ff080158015610081573d5f5f3e3d5ffd5b506001600160a01b03166080526101b7565b7ff0c57e16840df040f15088dc2f81fe391c3923bec73e23a9662efc9c229c6a00805468010000000000000000900460ff16156100e35760405163f92ee8a960e01b815260040160405180910390fd5b80546001600160401b03908116146101425780546001600160401b0319166001600160401b0390811782556040519081527fc7f505b2f371ae2175ee4913f4499e1f2633a7b5936321eed1cdaeb6115181d29060200160405180910390a15b50565b600380546001600160a01b031916905561014281600280546001600160a01b038381166001600160a01b0319831681179093556040519116919082907f8be0079c531659141344cd1fd0a4f28419497f9722a3daafe3b4186f6b6457e0905f90a35050565b6103ca806139de83390190565b6080516138086101d65f395f818161040c01526127a201526138085ff3fe608060405234801561000f575f5ffd5b5060043610610207575f3560e01c806391d148541161011f578063d1f57894116100a9578063e1b9713911610079578063e1b97139146104e3578063e30c3978146104f6578063e4784fa914610507578063f2fde38b14610571578063ffa1ad7414610584575f5ffd5b8063d1f5789414610484578063d32f715414610497578063d547741f146104be578063d714fd19146104d1575f5ffd5b8063aef28235116100ef578063aef28235146103f4578063b24972ee14610407578063b55cb6421461042e578063bd02d84814610441578063ca15c87314610471575f5ffd5b806391d1485414610392578063a217fddf146103a5578063a3246ad3146103ac578063a37d9411146103cc575f5ffd5b806336568abe116101a0578063632c2d8511610170578063632c2d8514610344578063715018a61461034a57806379ba5097146103525780638da5cb5b1461035a5780639010d07c1461037f575f5ffd5b806336568abe146102fc5780633a0451451461030f5780633d1b760b14610322578063430f099414610331575f5ffd5b8063237e6d64116101db578063237e6d6414610293578063248a9ca3146102a65780632f2ff15d146102d657806335cb1099146102e9575f5ffd5b8062a718a91461020b57806301ffc9a7146102385780630b85609b1461025b5780631f9c9dfc14610265575b5f5ffd5b61021e610219366004612d41565b6105b6565b604080519283526020830191909152015b60405180910390f35b61024b610246366004612dba565b6105d1565b604051901515815260200161022f565b6102636105fb565b005b610278610273366004612dd5565b610877565b6040805193845260208401929092529082015260600161022f565b6102636102a1366004612e06565b6108aa565b6102c86102b4366004612e32565b5f9081526005602052604090206001015490565b60405190815260200161022f565b6102636102e4366004612e49565b610ae7565b6102636102f7366004612eaa565b610b0b565b61026361030a366004612e49565b610b4a565b61026361031d366004612f02565b610b82565b6102c86702c68af0bb14000081565b61021e61033f366004612f02565b610c1f565b5f6102c8565b610263611178565b61026361118b565b6002546001600160a01b03165b6040516001600160a01b03909116815260200161022f565b61036761038d366004612f1d565b6111d4565b61024b6103a0366004612e49565b6111f2565b6102c85f81565b6103bf6103ba366004612e32565b61121c565b60405161022f9190612f3d565b6103676103da366004612f02565b60046020525f90815260409020546001600160a01b031681565b610263610402366004612eaa565b611235565b6103677f000000000000000000000000000000000000000000000000000000000000000081565b61036761043c366004612f02565b611267565b61045461044f366004612f02565b611396565b60408051938452602084019290925215159082015260600161022f565b6102c861047f366004612e32565b61142d565b610263610492366004612f88565b611443565b6102c87fd5dc6b389d0dd5687ab5bd9338f760ebeaff2d2852a93a9a9ebaebbfefc763ac81565b6102636104cc366004612e49565b611575565b5f54610367906001600160a01b031681565b6102636104f1366004612f02565b611599565b6003546001600160a01b0316610367565b610555610515366004612f02565b6001600160a01b03165f9081526001602090815260409182902082518084019093525462ffffff8082168085526301000000909204169290910182905291565b6040805162ffffff93841681529290911660208301520161022f565b61026361057f366004612f02565b6115ca565b604080518082018252601081526f053696c6f486f6f6b563320342e342e360841b6020820152905161022f9190613007565b5f5f604051630280e1e560e61b815260040160405180910390fd5b5f6001600160e01b03198216635a05180f60e01b14806105f557506105f58261163b565b92915050565b5f80546040805163aecc90cb60e01b8152815184936001600160a01b03169263aecc90cb92600480820193918290030181865afa15801561063e573d5f5f3e3d5ffd5b505050506040513d601f19601f820116820180604052508101906106629190613029565b5f805460405163e48a5f7b60e01b81526001600160a01b0380861660048301529496509294509092169063e48a5f7b9060240161022060405180830381865afa1580156106b1573d5f5f3e3d5ffd5b505050506040513d601f19601f820116820180604052508101906106d591906131e8565b5f805460405163e48a5f7b60e01b81526001600160a01b0386811660048301529394509192169063e48a5f7b9060240161022060405180830381865afa158015610721573d5f5f3e3d5ffd5b505050506040513d601f19601f8201168201806040525081019061074591906131e8565b90508161016001515f148061075d5750610160810151155b61077a576040516329c5f0dd60e21b815260040160405180910390fd5b8161016001515f036107af576101a0820151156107aa57604051631c3196cb60e21b815260040160405180910390fd5b6107d3565b6101a0810151156107d357604051631c3196cb60e21b815260040160405180910390fd5b670de0b6b3a7640000826101a001516107e95f90565b8461016001516107f99190613217565b6108039190613217565b11156108225760405163732481ab60e01b815260040160405180910390fd5b670de0b6b3a7640000816101a001516108385f90565b8361016001516108489190613217565b6108529190613217565b1115610871576040516312b0b4f560e21b815260040160405180910390fd5b50505050565b5f5f5f5f5f5f6108868761166f565b9250925092506108998383838b8b61180e565b919a90995090975095505050505050565b6108b26119ac565b6001600160a01b0382166108d95760405163d1af83ef60e01b815260040160405180910390fd5b806001600160a01b0316826001600160a01b0316631d7e35566040518163ffffffff1660e01b8152600401602060405180830381865afa15801561091f573d5f5f3e3d5ffd5b505050506040513d601f19601f82011682018060405250810190610943919061322a565b6001600160a01b03161461096a5760405163060a0aaf60e41b815260040160405180910390fd5b6001600160a01b038082165f908152600460205260409020541680156109a35760405163d0c7225560e01b815260040160405180910390fd5b5f826001600160a01b031663eb3beb296040518163ffffffff1660e01b8152600401602060405180830381865afa1580156109e0573d5f5f3e3d5ffd5b505050506040513d601f19601f82011682018060405250810190610a04919061322a565b90505f610a1182856119d9565b6001600160a01b0383165f90815260016020526040812054919250906301000000900462ffffff1690506104008217610a4982821790565b9150610a7884610a72866001600160a01b03165f9081526001602052604090205462ffffff1690565b84611adc565b6001600160a01b038681165f8181526004602090815260409182902080546001600160a01b031916948c16948517905581519384528301919091527f213d54ca7d6adb897962b4f78f6c2424aa527ee584f57a6000f961c507e0ec27910160405180910390a150505050505050565b5f82815260056020526040902060010154610b0181611bbf565b6108718383611bc9565b610b1433611bfc565b610b31576040516310528c6d60e11b815260040160405180910390fd5b604051632a188cb160e21b815260040160405180910390fd5b6001600160a01b0381163314610b735760405163334bd91960e11b815260040160405180910390fd5b610b7d8282611ca4565b505050565b610b8a6119ac565b6001600160a01b038082165f908152600460205260409020541680610bc257604051632e77844760e21b815260040160405180910390fd5b6001600160a01b0382165f8181526004602090815260409182902080546001600160a01b031916905590519182527f94ac12f5301759f065db9de7f23677e50bef009f062b028d4d4612f620f0f5fb910160405180910390a15050565b5f8060ff815c1615610c4457604051633ee5aeb560e01b815260040160405180910390fd5b60015f805c60ff19168217905d50610c7b7fd5dc6b389d0dd5687ab5bd9338f760ebeaff2d2852a93a9a9ebaebbfefc763ac61142d565b1580610cac5750610cac7fd5dc6b389d0dd5687ab5bd9338f760ebeaff2d2852a93a9a9ebaebbfefc763ac336111f2565b610cc9576040516394572de960e01b815260040160405180910390fd5b60016040517fb59c4a578f1cf03f75770e14b8cbc94d58157d6f0be1fd91afc8416836b1ca10905f90a25f546001600160a01b031680610d1c576040516379c39cf960e01b815260040160405180910390fd5b806001600160a01b0316639dd413306040518163ffffffff1660e01b81526004015f604051808303815f87803b158015610d54575f5ffd5b505af1158015610d66573d5f5f3e3d5ffd5b505050505f5f610d768387611ccf565b91509150610d815f90565b8261016001818151610d939190613217565b91508181525050610dea6040518061012001604052805f81526020015f81526020015f81526020015f81526020015f81526020015f81526020015f81526020015f81526020015f6001600160e01b03191681525090565b6101a0830151604051636da707db60e01b815273__$13ae51f56eab8417585cbbba140ac4e457$__91636da707db91610e2f91879187918d915f1991906004016133b1565b608060405180830381865af4158015610e4a573d5f5f3e3d5ffd5b505050506040513d601f19601f82011682018060405250810190610e6e91906133f6565b6001600160e01b031916610100850181905260608501929092526040840192909252909550610e9c90611e7e565b610ebb83604001518460a00151856101a001518460400151600161180e565b60a08401526080808401919091529082526040840151908401516101a08501516060840151610eed939291905f61180e565b60e084015260c08301526020820152604082015160a084810151908301516080840151610f1f938b9390929091611e9b565b610f3c87836040015185608001518460e001518560c00151611e9b565b805115610fbb576040808401518251915163a7d6e44b60e01b81526001600160a01b039091169163a7d6e44b91610f799190600190600401613446565b602060405180830381865afa158015610f94573d5f5f3e3d5ffd5b505050506040513d601f19601f82011682018060405250810190610fb89190613463565b95505b6020810151156110475782604001516001600160a01b031663a7d6e44b82602001515f6040518363ffffffff1660e01b8152600401610ffb929190613446565b602060405180830381865afa158015611016573d5f5f3e3d5ffd5b505050506040513d601f19601f8201168201806040525081019061103a9190613463565b6110449087613217565b95505b611055826040015186611ff7565b836001600160a01b03166362402b046040518163ffffffff1660e01b81526004015f604051808303815f87803b15801561108d575f5ffd5b505af115801561109f573d5f5f3e3d5ffd5b505050506110b282604001518689612041565b60408085015184820151606080870151845192835260208301529281018490529298506001600160a01b03808c16945016917f54cc728c12748a65aedfe79efaabd7c185b1ef2165e29bd4e4f17ab2da2c2ede910160405180910390a360408281015181518781526020810189905260018184015291516001600160a01b038a81169392169133917f3a84f64446e8eada995aa9da2ddbfcd9b5d5d650503b19f024096d04c05ef2a99181900360600190a4505f92505050805c60ff1916815d50915091565b6111806119ac565b6111895f6120d7565b565b60035433906001600160a01b031681146111c85760405163118cdaa760e01b81526001600160a01b03821660048201526024015b60405180910390fd5b6111d1816120d7565b50565b5f8281526006602052604081206111eb90836120f0565b9392505050565b5f9182526005602090815260408084206001600160a01b0393909316845291905290205460ff1690565b5f8181526006602052604090206060906105f5906120fb565b61123e33612107565b61125b576040516358ec9b7760e11b815260040160405180910390fd5b6108718484848461231e565b5f8054604051630483b24f60e41b81526001600160a01b0384811660048301528392169063483b24f090602401606060405180830381865afa1580156112af573d5f5f3e3d5ffd5b505050506040513d601f19601f820116820180604052508101906112d3919061347a565b509150506001600160a01b0381166112fe57604051638b3f447160e01b815260040160405180910390fd5b60405163a37d941160e01b81526001600160a01b0382166004820152309063a37d941190602401602060405180830381865afa158015611340573d5f5f3e3d5ffd5b505050506040513d601f19601f82011682018060405250810190611364919061322a565b91506001600160a01b03821661139057604051600162036e1560e11b0319815260040160405180910390fd5b50919050565b5f8054604051631c2b1ded60e01b81526001600160a01b03918216600482015290831660248201528190819073__$13ae51f56eab8417585cbbba140ac4e457$__90631c2b1ded90604401606060405180830381865af41580156113fc573d5f5f3e3d5ffd5b505050506040513d601f19601f8201168201806040525081019061142091906134c4565b9250925092509193909250565b5f8181526006602052604081206105f59061242d565b7ff0c57e16840df040f15088dc2f81fe391c3923bec73e23a9662efc9c229c6a008054600160401b810460ff16159067ffffffffffffffff165f811580156114885750825b90505f8267ffffffffffffffff1660011480156114a45750303b155b9050811580156114b2575080155b156114d05760405163f92ee8a960e01b815260040160405180910390fd5b845467ffffffffffffffff1916600117855583156114fa57845460ff60401b1916600160401b1785555b5f61150787890189612f02565b905061151289612436565b61151b816124af565b611524816124de565b50831561156b57845460ff60401b19168555604051600181527fc7f505b2f371ae2175ee4913f4499e1f2633a7b5936321eed1cdaeb6115181d29060200160405180910390a15b5050505050505050565b5f8281526005602052604090206001015461158f81611bbf565b6108718383611ca4565b6115a16119ac565b6001600160a01b0381166111c857604051631e4fbdf760e01b81525f60048201526024016111bf565b6115d26119ac565b600380546001600160a01b0383166001600160a01b031990911681179091556116036002546001600160a01b031690565b6001600160a01b03167f38d16b8cac22d99fc7c124b9cd0de2d3fa1faef420bfe791d8c362d765e2270060405160405180910390a350565b5f6001600160e01b03198216637965db0b60e01b14806105f557506301ffc9a760e01b6001600160e01b03198316146105f5565b5f80546040805163aecc90cb60e01b81528151849384936001600160a01b039091169284928392859263aecc90cb92600480830193928290030181865afa1580156116bc573d5f5f3e3d5ffd5b505050506040513d601f19601f820116820180604052508101906116e09190613029565b60405163e48a5f7b60e01b81526001600160a01b0380841660048301529298508894509092505f9185169063e48a5f7b9060240161022060405180830381865afa158015611730573d5f5f3e3d5ffd5b505050506040513d601f19601f8201168201806040525081019061175491906131e8565b90508061016001515f036117d15760405163e48a5f7b60e01b81526001600160a01b03838116600483015285169063e48a5f7b9060240161022060405180830381865afa1580156117a7573d5f5f3e3d5ffd5b505050506040513d601f19601f820116820180604052508101906117cb91906131e8565b90508196505b60018860018111156117e5576117e5613245565b146117f45780608001516117fa565b8060a001515b6101a0909101519698909750945050505050565b5f5f5f845f0361182557505f9150819050806119a1565b5f886001600160a01b031663b6d821c786600181111561184757611847613245565b60ff16600281111561185b5761185b613245565b6040518263ffffffff1660e01b815260040161187791906134f0565b602060405180830381865afa158015611892573d5f5f3e3d5ffd5b505050506040513d601f19601f820116820180604052508101906118b69190613463565b90505f886001600160a01b03166318160ddd6040518163ffffffff1660e01b8152600401602060405180830381865afa1580156118f5573d5f5f3e3d5ffd5b505050506040513d601f19601f820116820180604052508101906119199190613463565b905061194d8783835f8a600181111561193457611934613245565b60ff16600281111561194857611948613245565b6124f7565b945061196188670de0b6b3a7640000613217565b6119866119766702c68af0bb1400008b61350a565b87670de0b6b3a76400005f612534565b6119909190613535565b935061199c8486613548565b925050505b955095509592505050565b6002546001600160a01b031633146111895760405163118cdaa760e01b81523360048201526024016111bf565b5f8054604051630483b24f60e41b81526001600160a01b0385811660048301528392839283929091169063483b24f090602401606060405180830381865afa158015611a27573d5f5f3e3d5ffd5b505050506040513d601f19601f82011682018060405250810190611a4b919061347a565b925092509250816001600160a01b0316856001600160a01b031603611a775761080093505050506105f5565b826001600160a01b0316856001600160a01b031603611a9d5761100093505050506105f5565b806001600160a01b0316856001600160a01b031603611ac35761200093505050506105f5565b60405163d938fa3760e01b815260040160405180910390fd5b60408051808201825262ffffff84811680835284821660208085018281526001600160a01b038a165f81815260018452889020965187549251871663010000000265ffffffffffff1990931696169590951717909455845192835292820152918201527f1c26a8451bc890d476a0e7bb8310f00750604879bb30d4813a7718a1ee089fa69060600160405180910390a1826001600160a01b031663cad1aacf6040518163ffffffff1660e01b81526004015f604051808303815f87803b158015611ba4575f5ffd5b505af1158015611bb6573d5f5f3e3d5ffd5b50505050505050565b6111d18133612576565b5f5f611bd584846125b3565b905080156111eb575f848152600660205260409020611bf49084612644565b509392505050565b5f80546040805163aecc90cb60e01b81528151849384936001600160a01b039091169263aecc90cb92600480830193928290030181865afa158015611c43573d5f5f3e3d5ffd5b505050506040513d601f19601f82011682018060405250810190611c679190613029565b91509150816001600160a01b0316846001600160a01b03161480611c9c5750806001600160a01b0316846001600160a01b0316145b949350505050565b5f5f611cb08484612658565b905080156111eb575f848152600660205260409020611bf490846126c3565b611cd7612c95565b611cdf612c95565b6040516394c0527d60e01b81526001600160a01b0384811660048301528516906394c0527d9060240161044060405180830381865afa158015611d24573d5f5f3e3d5ffd5b505050506040513d601f19601f82011682018060405250810190611d48919061355b565b604081015191935091506001600160a01b0316611d7857604051632f13551560e11b815260040160405180910390fd5b80604001516001600160a01b031663a6afed956040518163ffffffff1660e01b81526004016020604051808303815f875af1158015611db9573d5f5f3e3d5ffd5b505050506040513d601f19601f82011682018060405250810190611ddd9190613463565b5080604001516001600160a01b031682604001516001600160a01b031614611e775781604001516001600160a01b031663a6afed956040518163ffffffff1660e01b81526004016020604051808303815f875af1158015611e40573d5f5f3e3d5ffd5b505050506040513d601f19601f82011682018060405250810190611e649190613463565b50611e6e826126d7565b611e77816126d7565b9250929050565b6001600160e01b031981165f03611e925750565b6111d18161275d565b5f611ea585611267565b90508215611f8457604051633661585b60e21b81526001600160a01b03878116600483015282811660248301526044820185905285169063d985616c906064015f604051808303815f87803b158015611efc575f5ffd5b505af1158015611f0e573d5f5f3e3d5ffd5b50506040516316757f2360e21b81526001600160a01b03878116600483015260248201879052841692506359d5fc8c91506044016020604051808303815f875af1158015611f5e573d5f5f3e3d5ffd5b505050506040513d601f19601f82011682018060405250810190611f829190613463565b505b8115611fef57604051633661585b60e21b81526001600160a01b0387811660048301523360248301526044820184905285169063d985616c906064015b5f604051808303815f87803b158015611fd8575f5ffd5b505af1158015611fea573d5f5f3e3d5ffd5b505050505b505050505050565b6040805160248082018490528251808303909101815260449091019091526020810180516001600160e01b031663194af7dd60e11b179052610871838263fe568fd160e01b61278e565b5f5f5f6120b486631bc77f3060e01b87876040516024016120759291909182526001600160a01b0316602082015260400190565b60408051601f198184030181529190526020810180516001600160e01b03166001600160e01b0319909316929092179091526340561a9d60e11b61278e565b9050808060200190518101906120ca9190613590565b9097909650945050505050565b600380546001600160a01b03191690556111d181612839565b5f6111eb838361288a565b60605f6111eb836128b0565b5f80546040805163aecc90cb60e01b81528151849384936001600160a01b039091169263aecc90cb92600480830193928290030181865afa15801561214e573d5f5f3e3d5ffd5b505050506040513d601f19601f820116820180604052508101906121729190613029565b91509150816001600160a01b0316846001600160a01b031614806121a75750806001600160a01b0316846001600160a01b0316145b156121b6575060019392505050565b5f8054604051630483b24f60e41b81526001600160a01b0385811660048301528392169063483b24f090602401606060405180830381865afa1580156121fe573d5f5f3e3d5ffd5b505050506040513d601f19601f82011682018060405250810190612222919061347a565b919350909150506001600160a01b0386811690831614806122545750806001600160a01b0316866001600160a01b0316145b156122655750600195945050505050565b5f54604051630483b24f60e41b81526001600160a01b0385811660048301529091169063483b24f090602401606060405180830381865afa1580156122ac573d5f5f3e3d5ffd5b505050506040513d601f19601f820116820180604052508101906122d0919061347a565b919350909150506001600160a01b0386811690831614806123025750806001600160a01b0316866001600160a01b0316145b156123135750600195945050505050565b505f95945050505050565b335f908152600460205260409020546001600160a01b0316806123415750610871565b61237684612370876001600160a01b03165f9081526001602052604090205462ffffff63010000009091041690565b81161490565b6123805750610871565b5f6123bf84848080601f0160208091040260200160405190810160405280939291908181526020018383808284375f9201919091525061290992505050565b805160608201516020830151608084015160a0850151604080870151905163bbdc013b60e01b81526001600160a01b039687166004820152602481019590955292851660448501526064840191909152608483015260a482015291925083169063bbdc013b9060c401611fc1565b5f6105f5825490565b61243e6129ad565b6001600160a01b038116612465576040516379c39cf960e01b815260040160405180910390fd5b5f546001600160a01b03161561248e576040516308db0db560e11b815260040160405180910390fd5b5f80546001600160a01b0319166001600160a01b0392909216919091179055565b6124b76129ad565b6001600160a01b0381166111c8576040516354a4010f60e01b815260040160405180910390fd5b6124e66129ad565b6124ef816129f6565b6111d16105fb565b5f5f5f612505878786612a00565b91509150815f0361251a57879250505061252b565b61252688838388612534565b925050505b95945050505050565b5f61256161254183612a5b565b801561255c57505f848061255757612557613521565b868809115b151590565b61256c868686612a87565b61252b9190613217565b61258082826111f2565b6125af5760405163e2517d3f60e01b81526001600160a01b0382166004820152602481018390526044016111bf565b5050565b5f6125be83836111f2565b61263d575f8381526005602090815260408083206001600160a01b03861684529091529020805460ff191660011790556125f53390565b6001600160a01b0316826001600160a01b0316847f2f8788117e7eff1d82e926ec794901d17c78024a50270940304540a733656f0d60405160405180910390a45060016105f5565b505f6105f5565b5f6111eb836001600160a01b038416612b44565b5f61266383836111f2565b1561263d575f8381526005602090815260408083206001600160a01b0386168085529252808320805460ff1916905551339286917ff6391f5c32d9c69d2a47ea670b442974b53935d1edc7fd64eb21e047a839171b9190a45060016105f5565b5f6111eb836001600160a01b038416612b89565b80610200015180156126f5575060e08101516001600160a01b031615155b156111d15760e08101516060820151604051637cfd30cd60e11b81526001600160a01b03918216600482015291169063f9fa619a906024015f604051808303815f87803b158015612744575f5ffd5b505af1158015612756573d5f5f3e3d5ffd5b5050505050565b6040805160048152602481019091526020810180516001600160e01b03166001600160e01b03198416178152815190fd5b60605f846001600160a01b0316634624c6a77f00000000000000000000000000000000000000000000000000000000000000005f6001886040518563ffffffff1660e01b81526004016127e494939291906135b2565b5f604051808303815f875af11580156127ff573d5f5f3e3d5ffd5b505050506040513d5f823e601f3d908101601f1916820160405261282691908101906135f3565b9250905080611bf457611bf48284612c6c565b600280546001600160a01b038381166001600160a01b0319831681179093556040519116919082907f8be0079c531659141344cd1fd0a4f28419497f9722a3daafe3b4186f6b6457e0905f90a35050565b5f825f01828154811061289f5761289f61369b565b905f5260205f200154905092915050565b6060815f018054806020026020016040519081016040528092919081815260200182805480156128fd57602002820191905f5260205f20905b8154815260200190600101908083116128e9575b50505050509050919050565b61294e6040518060c001604052805f6001600160a01b031681526020015f6001600160a01b031681526020015f81526020015f81526020015f81526020015f81525090565b506014810151602882015160488301516068840151608885015160a8909501516040805160c0810182526001600160a01b039687168152959094166020860152928401919091526060830152608082019290925260a081019190915290565b7ff0c57e16840df040f15088dc2f81fe391c3923bec73e23a9662efc9c229c6a0054600160401b900460ff1661118957604051631afcd79f60e31b815260040160405180910390fd5b6125af5f82611bc9565b5f5f835f03612a0d575f94505b6002836002811115612a2157612a21613245565b14612a4c57612a326003600a613792565b612a3c9085613217565b612a47866001613217565b612a4f565b83855b90969095509350505050565b5f6002826003811115612a7057612a70613245565b612a7a919061379d565b60ff166001149050919050565b5f838302815f1985870982811083820303915050805f03612abb57838281612ab157612ab1613521565b04925050506111eb565b808411612ad957612ad98415612ad2576011612c84565b6012612c84565b5f848688095f868103871696879004966002600389028118808a02820302808a02820302808a02820302808a02820302808a02820302808a02909103029181900381900460010186841190950394909402919094039290920491909117919091029150509392505050565b5f81815260018301602052604081205461263d57508154600181810184555f8481526020808220909301849055845484825282860190935260409020919091556105f5565b5f8181526001830160205260408120548015612c63575f612bab600183613548565b85549091505f90612bbe90600190613548565b9050808214612c1d575f865f018281548110612bdc57612bdc61369b565b905f5260205f200154905080875f018481548110612bfc57612bfc61369b565b5f918252602080832090910192909255918252600188019052604090208390555b8554869080612c2e57612c2e6137be565b600190038181905f5260205f20015f90559055856001015f8681526020019081526020015f205f9055600193505050506105f5565b5f9150506105f5565b815115612c7b57815182602001fd5b6125af8161275d565b634e487b715f52806020526024601cfd5b60408051610220810182525f80825260208201819052918101829052606081018290526080810182905260a0810182905260c0810182905260e08101829052610100810182905261012081018290526101408101829052610160810182905261018081018290526101a081018290526101c081018290526101e0810182905261020081019190915290565b6001600160a01b03811681146111d1575f5ffd5b80151581146111d1575f5ffd5b5f5f5f5f5f60a08688031215612d55575f5ffd5b8535612d6081612d20565b94506020860135612d7081612d20565b93506040860135612d8081612d20565b9250606086013591506080860135612d9781612d34565b809150509295509295909350565b6001600160e01b0319811681146111d1575f5ffd5b5f60208284031215612dca575f5ffd5b81356111eb81612da5565b5f5f60408385031215612de6575f5ffd5b82359150602083013560028110612dfb575f5ffd5b809150509250929050565b5f5f60408385031215612e17575f5ffd5b8235612e2281612d20565b91506020830135612dfb81612d20565b5f60208284031215612e42575f5ffd5b5035919050565b5f5f60408385031215612e5a575f5ffd5b823591506020830135612dfb81612d20565b5f5f83601f840112612e7c575f5ffd5b50813567ffffffffffffffff811115612e93575f5ffd5b602083019150836020828501011115611e77575f5ffd5b5f5f5f5f60608587031215612ebd575f5ffd5b8435612ec881612d20565b935060208501359250604085013567ffffffffffffffff811115612eea575f5ffd5b612ef687828801612e6c565b95989497509550505050565b5f60208284031215612f12575f5ffd5b81356111eb81612d20565b5f5f60408385031215612f2e575f5ffd5b50508035926020909101359150565b602080825282518282018190525f918401906040840190835b81811015612f7d5783516001600160a01b0316835260209384019390920191600101612f56565b509095945050505050565b5f5f5f60408486031215612f9a575f5ffd5b8335612fa581612d20565b9250602084013567ffffffffffffffff811115612fc0575f5ffd5b612fcc86828701612e6c565b9497909650939450505050565b5f81518084528060208401602086015e5f602082860101526020601f19601f83011685010191505092915050565b602081525f6111eb6020830184612fd9565b805161302481612d20565b919050565b5f5f6040838503121561303a575f5ffd5b825161304581612d20565b6020840151909250612dfb81612d20565b634e487b7160e01b5f52604160045260245ffd5b604051610220810167ffffffffffffffff8111828210171561308e5761308e613056565b60405290565b604051601f8201601f1916810167ffffffffffffffff811182821017156130bd576130bd613056565b604052919050565b805161302481612d34565b5f61022082840312156130e1575f5ffd5b6130e961306a565b8251815260208084015190820152905061310560408301613019565b604082015261311660608301613019565b606082015261312760808301613019565b608082015261313860a08301613019565b60a082015261314960c08301613019565b60c082015261315a60e08301613019565b60e082015261316c6101008301613019565b61010082015261317f6101208301613019565b6101208201526101408281015190820152610160808301519082015261018080830151908201526101a080830151908201526101c080830151908201526131c96101e08301613019565b6101e08201526131dc61020083016130c5565b61020082015292915050565b5f61022082840312156131f9575f5ffd5b6111eb83836130d0565b634e487b7160e01b5f52601160045260245ffd5b808201808211156105f5576105f5613203565b5f6020828403121561323a575f5ffd5b81516111eb81612d20565b634e487b7160e01b5f52602160045260245ffd5b8051825260208101516020830152604081015161328160408401826001600160a01b03169052565b50606081015161329c60608401826001600160a01b03169052565b5060808101516132b760808401826001600160a01b03169052565b5060a08101516132d260a08401826001600160a01b03169052565b5060c08101516132ed60c08401826001600160a01b03169052565b5060e081015161330860e08401826001600160a01b03169052565b506101008101516133256101008401826001600160a01b03169052565b506101208101516133426101208401826001600160a01b03169052565b506101408101516101408301526101608101516101608301526101808101516101808301526101a08101516101a08301526101c08101516101c08301526101e081015161339b6101e08401826001600160a01b03169052565b50610200810151610b7d61020084018215159052565b6104a081016133c08288613259565b6133ce610220830187613259565b6001600160a01b03949094166104408201526104608101929092526104809091015292915050565b5f5f5f5f60808587031215613409575f5ffd5b8451602086015160408701516060880151929650909450925061342b81612da5565b939692955090935050565b600281106111d1576111d1613245565b8281526040810161345683613436565b8260208301529392505050565b5f60208284031215613473575f5ffd5b5051919050565b5f5f5f6060848603121561348c575f5ffd5b835161349781612d20565b60208501519093506134a881612d20565b60408501519092506134b981612d20565b809150509250925092565b5f5f5f606084860312156134d6575f5ffd5b83516020850151604086015191945092506134b981612d34565b602081016003831061350457613504613245565b91905290565b80820281158282048414176105f5576105f5613203565b634e487b7160e01b5f52601260045260245ffd5b5f8261354357613543613521565b500490565b818103818111156105f5576105f5613203565b5f5f610440838503121561356d575f5ffd5b61357784846130d0565b91506135878461022085016130d0565b90509250929050565b5f5f604083850312156135a1575f5ffd5b505080516020909101519092909150565b6001600160a01b0385168152602081018490526135ce83613436565b826040820152608060608201525f6135e96080830184612fd9565b9695505050505050565b5f5f60408385031215613604575f5ffd5b825161360f81612d34565b602084015190925067ffffffffffffffff81111561362b575f5ffd5b8301601f8101851361363b575f5ffd5b805167ffffffffffffffff81111561365557613655613056565b613668601f8201601f1916602001613094565b81815286602083850101111561367c575f5ffd5b8160208401602083015e5f602083830101528093505050509250929050565b634e487b7160e01b5f52603260045260245ffd5b6001815b60018411156136ea578085048111156136ce576136ce613203565b60018416156136dc57908102905b60019390931c9280026136b3565b935093915050565b5f82613700575060016105f5565b8161370c57505f6105f5565b8160018114613722576002811461372c57613748565b60019150506105f5565b60ff84111561373d5761373d613203565b50506001821b6105f5565b5060208310610133831016604e8410600b841016171561376b575081810a6105f5565b6137775f1984846136af565b805f190482111561378a5761378a613203565b029392505050565b5f6111eb83836136f2565b5f60ff8316806137af576137af613521565b8060ff84160691505092915050565b634e487b7160e01b5f52603160045260245ffdfea26469706673582212208660e5abe17f187419e54cd04c26457a54f876d75b0ae8c791d288d2fbbc01db64736f6c634300081c00336080604052348015600e575f5ffd5b506103ae8061001c5f395ff3fe608060405234801561000f575f5ffd5b5060043610610034575f3560e01c80631bc77f30146100385780633295efba14610064575b5f5ffd5b61004b6100463660046102e1565b610079565b6040805192835260208301919091520160405180910390f35b61007761007236600461031a565b61015d565b005b604051632811815960e11b8152600481018390525f602482018190526001600160a01b038316604483015233606483015290819073__$2af8d6de85c36a4126e5b0561510a530d6$__9063502302b2906084016040805180830381865af41580156100e6573d5f5f3e3d5ffd5b505050506040513d601f19601f8201168201806040525081019061010a9190610331565b60408051838152602081018390529194509192506001600160a01b0385169133917fe4a1ae657f49cb1fb1c7d3a94ae6093565c4c8c0e03de488f79c377c3c3a24e0910160405180910390a39250929050565b60015f9081527fd7513ffe3a01a9f6606089d1b67011bca35bec018ac0faa914e1c529408f83026020527f9f4c9b90b8375e1a1c51483b3ca447c3cef6557c7e1ddcfb2935a045af6b0ec7547fd7513ffe3a01a9f6606089d1b67011bca35bec018ac0faa914e1c529408f830091906101d68185610282565b60015f90815260028601602052604090205591508382610242575f6101fb8387610353565b85548493509091505f90610218906001600160c01b031683610282565b915050610224816102a6565b86546001600160c01b0319166001600160c01b039190911617865550505b60408051868152602081018390527fa5329f73da29674b6bc0fb1faa44d0eafe0c62c249e1d478ce992ba1f7dea2ad910160405180910390a15050505050565b5f5f8383111561029657505f90508061029f565b50600190508183035b9250929050565b5f6001600160c01b038211156102dd576040516306dfcc6560e41b815260c060048201526024810183905260440160405180910390fd5b5090565b5f5f604083850312156102f2575f5ffd5b8235915060208301356001600160a01b038116811461030f575f5ffd5b809150509250929050565b5f6020828403121561032a575f5ffd5b5035919050565b5f5f60408385031215610342575f5ffd5b505080516020909101519092909150565b8181038181111561037257634e487b7160e01b5f52601160045260245ffd5b9291505056fea26469706673582212201affc4206887607ce4056070e2beef32de2d9db961ccb1b9344da895dac2c48564736f6c634300081c0033",
  "language": "Solidity",
  "compiler": "0.8.28+commit.7893614a"
}